:020000040800F2
:1000000000B00220C5060008090E00081B0E0008FB
:100010002D0E00083F0E0008510E000800000000E1
:1000200000000000000000000000000000000000D0
:1000300000000000000000000000000000000000C0
:1000400000000000000000000000000000000000B0
:1000500000000000000000000000000000000000A0
:100060000000000000000000000000000000000090
:100070000000000000000000000000000000000080
:100080000000000000000000000000000000000070
:100090000000000000000000000000000000000060
:1000A0000000000000000000000000000000000050
:1000B0000000000000000000000000000000000040
:1000C0000000000000000000000000000000000030
:1000D0000000000000000000000000000000000020
:1000E0000000000000000000000000000000000010
:1000F0000000000000000000AC0000003807000015
:1001000000E01C08FCBF00080600040010F8012BEA
:1001100011F8013B012A28BF9A42F7D0D01A704744
:1001200038B5264C0023237000F058FE244BD0F144
:10013000010038BF0020187000F0B6FB00F096FBFD
:1001400007F030FF6378CBB9E9F1B2FE07F0F6FFB4
:10015000E9F1CAFA05F070FDE9F128FAE6F160FF6D
:10016000E9F11EFBE9F166F9E7F11CF905F0BAFFC8
:10017000E7F134FAE7F102F900F0ECFA022000F0BE
:1001800023FE104BC0F3C01018701D4608B96378E9
:1001900033B1012000F018FE0B4B186002F0AAFBEF
:1001A000012323702B782BB900F05CF900F052FD8D
:1001B000E9F1ECF900F082FCFCE700BF08BD022089
:1001C000E4B10220B0BD0220ACBD0220024B4FF0D2
:1001D000FF321A60704700BFE8B1022010B5064C2C
:1001E0002368013306D106F0A9FA012802D108F0EC
:1001F00002F8206010BD00BFE8B102206C4B1B78F4
:100200002DE9F34713B100F0CDFBFCE7694C07F093
:10021000F2FF2368814613B900F0B4FCA080236884
:10022000644D994500F0C18000F0ACFCAB882968B2
:10023000C3EBC3031844C310AB800323B9FBF3F231
:10024000B1FBF3F39A425C4D00F0968000F03EFB68
:1002500003281AD8DFE800F00C02060A64232B7189
:10026000042613E032232B7103260FE0322309E02A
:10027000A28840F6B7339A4203D864232B71022632
:1002800004E000232B71052600E001266B79B342C0
:100290000BD1494B9B799E4207D0053B022B01D8DD
:1002A000052E02D0A388AE71E380AB79062B0BD06C
:1002B000072B27D0052B5ED1E28840F6A5639A4232
:1002C00002D83D4B06229A71A288E3889A4203D253
:1002D000134438495B10CB80E38840F6AB5293421D
:1002E0009CBF0722AA71A3F6AC53072293FBF2F33B
:1002F000DBB2642B2B7102D92F4B64221A710023BD
:10030000A36038E0E368DFF8ACA05A1C2D2BE26054
:1003100031DD2A4B002738464FF001081F6004F0FA
:10032000ABF9384604F030F903F046FA02F06AFF00
:1003300038465A21224ACDF800804FF0FF33CDF8DD
:10034000048003F02DF91F4ACDF800804FF0FF33F1
:1003500038463C21CDF8048003F022F9404602F0F3
:1003600069FFDAF8083003EB0802042BCAF808200A
:1003700001DD00F017FB6E712B68C4F800905A1C69
:1003800013D0C3EB0909B9F5967F0ED90A4B9B79B7
:10039000023B012B04D902B0BDE8F04700F002BBDC
:1003A00002B0BDE8F047FFF719BF02B0BDE8F08723
:1003B00096BD022010BD0220E8B1022088BD0220B7
:1003C0002D691E083F691E0870470000154B1B78F9
:1003D00010B533B9144B1A68FAB11A68013A1A60A9
:1003E0001BE0124B1B7803F0FF04002BF2D11048E6
:1003F00050F814305A1CEDD05BB10E4A4430A15A6B
:10040000205A013189B28842A15202D80021A1525A
:1004100098470234222CEAD1DCE7064B5A6A0132B3
:100420005A6210BD08BD02200CBD022009BD022089
:10043000F0B1022020BD0220014B1870704700BFB0
:1004400048BD022007B500930123E6F175FD03B016
:100450005DF804FB07B500930023E6F16DFD03B0E2
:100460005DF804FB014B1878704700BF34C40220CC
:100470000048704751691E0810B9044B1960704755
:1004800010289CBF024B43F82010704758B202203E
:10049000F0B1022010B9054B1868704710289ABFB8
:1004A000034B53F820000020704700BF58B20220D1
:1004B000F0B10220014B1878704700BF09BD02203F
:1004C00008B500F003FA80B208BD00002DE9F0473E
:1004D00098B0044604F070F86D4B00F0010000285D
:1004E0004FF00301186814BF4FF0F0084FF4A078E4
:1004F00014BF4FF4A077F027E7F134FA0CB123785A
:1005000033B9002001238DE809000146614A0CE05F
:1005100007F0B4FE002008F067FE064660B1002038
:1005200001238DE809005C4A01464FF0FF3303F0D8
:1005300037F84FF0FF30A8E00146584A08F0A8FC11
:10054000054630B101230096019330463146544AA6
:10055000EBE7214651480A2203AB08F00BFC0446A6
:1005600030B1012300950193284629464D4ADCE726
:100570004223282108FB07F202EB42028DF82830C3
:10058000ADF836104D2301218DF82930ADF8421019
:1005900002F136031821CDF82A30ADF82E00ADF85F
:1005A00030003623ADF83400ADF83800ADF8441013
:1005B000ADF84600ADF84800CDF84A20ADF84E0041
:1005C000ADF85000ADF85200ADF85400ADF856004B
:1005D000ADF85800ADF85A00ADF85C000AA903A8C0
:1005E00002AAADF83230CDF83A70CDF83E8008F06E
:1005F000EBFB264605461FFA84F90FFA89F34345BB
:100600000FD303A808F0F0FB002D3AD000200123FF
:100610008DE809000146244A4FF0FF3302F0C0FF85
:100620002FE0002DEDD1AA460FFA8AF0B84226D26B
:100630002DBB0FFA89F105F0C7FC06EB460318AA9B
:100640001344420922F0070203F8382CC20A02F0D0
:100650001C02013642EA4012042E20F0070003F883
:10066000372C03F8360C07D103A80AA902AA0C23D9
:1006700008F0AAFB002605460AF1010AD4E7013476
:10068000B9E7002008F070FB284618B0BDE8F087F5
:1006900044BE022058691E0884691E08D4E4022062
:1006A00090691E08A8691E08BD691E08014B23F841
:1006B0001010704734B20220014B33F8100070471D
:1006C00034B20220002100F004B80B4B5B584350B9
:1006D00004310A480A4B42189A42FFF4F6AF094A1D
:1006E00000F003B8002342F8043B074B9A42FFF4A2
:1006F000F9AFFFF715FD704738EA1E0800B0022079
:1007000008BD022008BD022000FC0220FFF7FEBF4A
:1007100007B50E494FF00050EBF150FE4FF4A060CA
:10072000EBF142FE1C238DF8043001A801238DF863
:1007300005308DF806308DF8073008F0FFFD044BCA
:10074000302283F8232003B05DF804FB00B00200E0
:1007500000ED00E030B5012089B00146002409F029
:10076000E1FA01254FF4007369464FF08040019390
:10077000ADF80050ADF80840ADF80240ECF14CF88F
:1007800003A94FF08040ADF80C400594ADF810403F
:10079000ADF80E40ADF81C40ADF81E40ADF8184065
:1007A000ADF81A40EBF132FF202303A94FF080404F
:1007B000ADF80C30EBF162FF03A94FF08040EBF194
:1007C000A1FF03A94FF08040EBF1DEFF29464FF077
:1007D0008040ECF172F82A464FF080404FF480716F
:1007E000ECF180F829464FF08040ECF17EF84FF0B4
:1007F000804029462A46ECF16CF809B030BD000073
:1008000007B5002300930193EBF132FE154B1A68F4
:1008100042F480321A60134B1A6802F400320192DB
:10082000009A01320092019A1AB9009AB2F5A04FCB
:10083000F1D11B6813F4003318BF01230193019B0E
:10084000012B0ED1084B1B780BB1032004E00220D2
:1008500000F0BAFA00F0070000F0FCF903B05DF810
:1008600004FBFEE700380240E4B1022008B56FF057
:100870000400ECF1E9F8064B4CF24F325A60054A9D
:10088000F02182F8231000229A6007221A6008BD26
:1008900010E000E000ED00E008B500F0B3FA042835
:1008A00000D0FEE708BD000008B5074BD3F888204C
:1008B00042F47002C3F88820FFF7A2FFFFF7ECFFB5
:1008C000BDE80840FFF724BF00ED00E02DE9F3414B
:1008D0000421334809F008F908210546304809F099
:1008E00003F9411E484248414400012D08BF01342C
:1008F000022C51D1012302AD00268DF80730284883
:100900008DF805400C23694645F8083D8DF80460D4
:1009100009F0AAF822488DF80760694609F0A4F8A2
:1009200004211F4809F0E0F8082107461C4809F097
:10093000DBF8694680461A488DF8074009F094F8BC
:1009400017488DF80760694609F08EF804211448AD
:1009500009F0CAF808210446114809F0C5F8421EFA
:10096000504250414000012C14BF0446441C022C4C
:1009700011D1B8F10103D3F1000858EB03084FEA95
:100980004808012F14BF474608F10107022F0CBF8A
:100990000224032400E00324204602B0BDE8F081D5
:1009A0000018024037B5FFF75DFD364B1B78002B72
:1009B000354B1B7800F007000CBF00218021002B75
:1009C0000CBF0023082301431943304B1B78002B35
:1009D0000CBF0023402319432D4B1B78002B0CBF69
:1009E00000234FF4007319432A4B1B78002B0CBFD4
:1009F000002310231943284B1B78002B0CBF002326
:100A000020231943254B1B78002B0CBF00234FF4E8
:100A100080731943022000F0EDF9214B052019786D
:100A200000F0E8F903F088FD81B2032000F0E2F95C
:100A30001C4B0420197800F0DDF900224FF08040B3
:100A40000121EBF146FF06F0EFFE0420012109F041
:100A500051F900234FF4005501248DF806308DF82C
:100A6000073011480095022369468DF804408DF83F
:100A7000053008F0F9FF0C482946224609F03AF8FB
:100A8000FEE700BFB0BD0220A0BA02204CC1022088
:100A9000F0B60220F6B30220F5B30220F4B3022030
:100AA0004DC10220DCBD022000080240024B18604C
:100AB0001A68002AFCD170470CBD022030BF704775
:100AC00070470023C25C0AB10133FBE71846704748
:100AD00008B58021034809F007F8431E58425841E1
:100AE00008BD00BF001C0240A0F10803B3F5BC7FA5
:100AF0003CBF014BC150704700B00220A0F1080379
:100B0000B3F5BC7F3ABF024BC0580020704700BF0E
:100B100000B00220F8B50A4B1E680746002435597C
:100B20006B1C0AD028683946FFF7F0FA08B9284646
:100B3000F8BD043C14F1A80FF1D10020F8BD00BFAE
:100B400080C402206E235843C822B0FBF2F010B5D7
:100B5000094B08B1186001E001221A600748084AF1
:100B60000078596052F820401868D2686043B0FBA2
:100B7000F2F21A6010BD00BF4CBD022034C4022046
:100B80006C641D0882B000230193019A132A09DCCA
:100B90000199104A32F831201344019A01329BB274
:100BA0000192F2E71422B3FBF2F340F64E425A43AD
:100BB000094BB3F90010C2F30F32481C4FEA42024E
:100BC00092B21CBF491001EB52021A80188802B081
:100BD000704700BFACC902205CB2022082B0002383
:100BE0000193019A132A0ADC0199174A02EBC10208
:100BF00052881344019A01329BB20192F1E7142208
:100C0000B3FBF2F340F64E4253431B130F4AC3F5B6
:100C1000B2630633534341F2CC0293FBF2F30C4A26
:100C200003F5C343127828339BB23AB103EBC303F5
:100C3000052293FBF2F303F5FA439BB26420B3FB66
:100C4000F0F002B0704700BFACC90220A0860100DE
:100C500048BD022070B50446002008F0F7FF0020D0
:100C600008F0DEFF002008F0E1FF631E4D4A4E4908
:100C70004E4D042B4FF4E06313604D4B88BF0324AB
:100C80001C704C4B9960996899604B4919200880F9
:100C9000A01E4A494A4C032803D8DFE800F00E1D85
:100CA0002B3E98689860986840F48050986013686C
:100CB0001360F023238008233EE0986898609868CA
:100CC00040F480509860136843F001031360C02320
:100CD000238004230B8031E098689860986840F482
:100CE00080509860136843F001031360F023238061
:100CF000042321E0986840F400409860986840F42C
:100D0000A0509860136843F0020313604FF490738F
:100D1000238004230B80062310E0986840F40040F1
:100D20009860986840F4A0509860136843F00503F9
:100D30001360F023238002230B8005230A882B8075
:100D400020882B88800152081B0640F01900013AC8
:100D500043F4800340EA02421A43164B5A601A6871
:100D600042F080721A6019460A68124B9201FBD554
:100D70009A6822F003029A609A6842F002029A602E
:100D80000C4B9B6803F00C03082BF9D10D4808F0BD
:100D900067FF4FF480004FF08061BDE8704008F0BD
:100DA0004BBF00BF003C02400000FFFF38C40220E0
:100DB00034C40220003802403AC402203CC402205D
:100DC00050C4022040C402201328DDBF024B33F878
:100DD000200080B2002070475028004010B5012448
:100DE0002046FFF7F1FF18B901340C2CF8D110BDE3
:100DF000012010BD1328DCBF014B23F820107047E1
:100E00005028004004207047684620F007018D46B6
:100E100001B5BDE8014085467047684620F00701EE
:100E20008D4601B5BDE8014085467047684620F013
:100E300007018D4601B5BDE801408546704768460B
:100E400020F007018D4601B5BDE801408546704799
:100E5000684620F007018D4601B5BDE80140854692
:100E60007047684620F007018D4601B5BDE8014096
:100E700085467047684620F007018D4601B5BDE8FC
:100E8000014085467047684620F007018D4601B550
:100E9000BDE8014085467047684620F007018D4651
:100EA00001B5ECF1A1FABDE80140854670470000AC
:100EB000684620F007018D4601B50348EDF18EFA32
:100EC000BDE801408546704754E502200148EDF138
:100ED0004BBA00BF54E502200148EDF11FBA00BF34
:100EE00054E50220684620F007018D4601B5012136
:100EF0004FF08040EBF1FDFC094B1B6803B19847B4
:100F0000084A13683BB1013B136023B906490A68DC
:100F10000AB10B609047BDE801408546704700BFAD
:100F200058B202204CBD022050BD0220684620F07D
:100F300007018D4601B51049104808F037FB40B154
:100F40000E480D4908F05AFB0D4B1A7842F0010289
:100F50001A700A480B4908F029FB40B107480949B3
:100F600008F04CFB064B1A7842F002021A70BDE8FA
:100F700001408546704700BF1040001010600240DD
:100F800068C1022020800010684620F007018D46CD
:100F900001B51B491B4808F009FB98B119481849CD
:100FA00008F02CFB184B1A7842F001021A70174B0C
:100FB0001B7813B906F044FA04E0154B1A7842F096
:100FC00001021A700F48134908F0F0FA98B10D4861
:100FD000104908F013FB0C4B1A7842F002021A7009
:100FE0000A4B1B7813B906F02BFA04E0084B1A7869
:100FF00042F002021A70BDE801408546704700BF0A
:101000000044002088600240D4D2022056C1022051
:101010009ABA02200088002007F04EBAF0B5144AB0
:10102000144B1478144A1868156804FB00F292FBFC
:10103000F5F2002A07DD59688F680E6A896ABE1BBF
:10104000B14205DBF0BD11D05968896A00290DDD78
:1010500059688E6A16448E629968891A6A4392FBAF
:10106000F4F4001B002299601860DA60F0BD00BF44
:10107000A5C4022054BD022054C402202DE9F04131
:1010800003F0C8FF064610B94FF0FF3435E003F017
:10109000ABFF054603F0AEFF674BB3F90030ADB2CE
:1010A0009D42F1DA654BB3F9003084B29C42EBDA31
:1010B000634B644A1B689C4202DB13689C4200DD60
:1010C00014881268604B141B604A1968127802FB7E
:1010D00001445F4A126894FBF2F45A68126A94421F
:1010E00003DB002914BF1446541E9B6824EAE474F1
:1010F0009C4202D0544B0022DA60564B564D1B786E
:10110000002B42D0601C42D105F044FB4E4A0346FE
:10111000107420B1518A01315182012000E05082C7
:10112000117D89B14849DFF838C14F8A9CF800C069
:101130004A4951F82CC0C9684FF03C0808FB0CFC28
:10114000BCFBF1F18F421FD30021042B518203D04D
:10115000072B01D00D2B0CD15168D2F808C00F6AB3
:10116000BC4506DA8F68496A013FB942B8BF0CF145
:101170000104022B03D0052B01D00B2B04D1936863
:10118000002BC8BF03F1FF341075611C0BD0344A2B
:10119000324B127853F82220DB684FF4C8714A436F
:1011A000B2FBF3F32B602B681BB12B4A013B13609E
:1011B0003FE02C4B1B78002B3BD02B4B1B68002BAC
:1011C00037D0621C35D1204A92F91030002B30D133
:1011D0007EBB93685268116A8B4210DA9168526A3A
:1011E00001398A420BDA214AB2F93410204AB2F9A5
:1011F00000006FF0F902121A9142B8BF5C1C002B7C
:101200000ADD1A4AB2F93410194AB2F90020323212
:10121000914201DD5C1E01E0631C0AD0104A0F4BB5
:10122000127853F82220DB6842214A43B2FBF3F3E1
:101230002B602046BDE8F081ACC4022070C80220BB
:101240005CC4022064C4022054BD0220A5C4022054
:1012500054C40220F6B3022060B202206C641D0860
:1012600034C40220F5B3022058B20220F4C0022098
:1012700008BA022038B503F0CDFE28B303F0B4FE5F
:10128000054603F0B7FE484B1B689D4220DD474BE7
:101290001B689D421CDA464B5C7D0CB9986110E0DE
:1012A000444A99691278441A94FBF2F4002C03DD45
:1012B0000A449A61012404E003D08A1A9A614FF02B
:1012C000FF3401225A7504E0394B0446587500E09A
:1012D0000024394B394D1B7833B305F05BFA344B9E
:1012E0000228187403D0052801D00B2804D19A686D
:1012F000002ADCBFAC886442042803D0072801D050
:101300000D2805D159689A68096A8A42A8BFAC8835
:1013100018B15A8A01325A8200E058825B8A132B34
:101320008CBF05230123AB8054B1254A254B12788D
:1013300053F82220DB68C8214A43B2FBF3F3AB60C9
:10134000AB681BB11D4A013B93602BE01E4B1B7821
:1013500043B31E4B1B682BB324BB154B93F91020D2
:1013600002BB5A7DF2B99A685B681B6A9A420ADB33
:10137000174BB3F93410174BB3F900006FF0F903B2
:101380001B1A99420ADB002A0CDC114BB3F93420FA
:10139000104BB3F9003032339A4203DD0C4BB3F9F2
:1013A00034406442204638BD68C4022058C402203C
:1013B00054BD0220A5C40220F6B3022060B2022070
:1013C00034C402206C641D08F5B3022058B2022018
:1013D000F4C0022008BA02202DE9F74F4D4D6B688A
:1013E0000446D3F80CA0894601F03CFF009001F0C0
:1013F0002DFF6B6801909A6A1B7804EB020BA846DC
:1014000013B9631C00F08280434B187803F004F991
:10141000424B1D7801F014FF414B68431880414B4B
:101420001D7801F00DFF404B671C00FB05F01860B4
:101430000CBF3E4B3E4B188801F01AFF661C0CBFD8
:101440003C4B3D4B188801F007FF6FF00107651C0E
:10145000C4EB0707394D50D0394B1E78D8F800300F
:101460005E43B9F1000F0CD0364B188801F000FF35
:10147000601C0CBF2F4B344B188801F0EDFE611C33
:101480000CD0324BB5F90000B3F90010304BB3F972
:101490000020304BB3F9003002F04AFE2249D8F860
:1014A00004300A6828885969042592FBF5F5491B20
:1014B00007FB0211621C18BF03EB8B03314489B296
:1014C0000CBF5A68DA6A00B209B2534602F0FEF85D
:1014D000013409D0204BB3F90010204B0020024604
:1014E000B3F9003002F024FE009801F0C1FE01982B
:1014F00003B0BDE8F04F01F0AFBEB9F1000F01D16C
:101500004E46CBE7094B00261888AFE703B0BDE88D
:10151000F08F00BF54BD0220DCBD0220FCB90220C8
:1015200060C40220FDB9022054C40220F2B302209C
:1015300078B20220F0B3022084BD022068C40220E9
:10154000A5C40220EEB30220ECB3022058C402204E
:101550005CC4022064C40220ACC4022070C8022013
:101560002DE9F74FBDF83080BDF83490BDF83860F4
:1015700000254FF40044EFB29F4202D264080135C7
:10158000F9E725460023DFB2974203D2C5F34F05A2
:101590000133F8E7184B1A784B1C01EB420101317B
:1015A00001914FEA460C019A934221D013F801AC05
:1015B0001A78002742EA0A2ABAB2B24216D2224662
:1015C000AA4211D900211FFA81FBB34508D212EAC1
:1015D0000A0F0CBFCB46C34620F811B00131F2E729
:1015E0006044C2F34F02EBE70137E5E70233DAE785
:1015F00003B0BDE8F08F00BFFCB902202DE9F04F29
:1016000087B00F469A462249BDF848300593214BD2
:10161000BDF84C4091F800B0B3F900309DF840801F
:1016200004FB0BFB93FBFBFB06465FFA8BFBBDF851
:1016300044000490934528BF93460025EBB25B45D8
:1016400022D2397809B1013700E02021DFF840903B
:10165000114B99F800201B680498009052000598DF
:101660000190203902FB013130465346029498FB29
:10167000F4F2FFF775FF99F8003018FB03F36343AA
:1016800006EB43060135D9E707B0BDE8F08F00BF90
:10169000FCB90220ACC40220A8C402202DE9F04FFE
:1016A00085B0044691468A469B4601F0DBFD0390D7
:1016B00001F0CCFD6E4E6F4D0746308801F0D8FD2D
:1016C0006D4B188801F0C8FD002003F0BBFB002320
:1016D000226A6362A362AB602B60EB60A3686C60FC
:1016E0009342B0464FF00006B8BF236234466B68A1
:1016F00099688C4209DA03EB84030134D86AFFF756
:10170000E0F98642B8BF0646F1E7197829B1586872
:10171000FFF7D7F9B042A8BF06466B68DE60574BAB
:10172000187802F079FF564B1C7801F089FD554B73
:101730005549604318800C78029301F081FD029BAB
:101740005249B3F800E060436C680860236A0221E4
:1017500003FB000C90FBF1F306FB0EE26344A26175
:10176000E361BBF1000F14D0DFF83891B9F90090B4
:10177000C2EB090999FBF1F9C4F81090DFF8289140
:10178000B9F90090C3EB090999FBF1F119446161C2
:1017900003E0C4F810A0C4F8149061694FF0040984
:1017A000C0EB010A90FBF9F9C9EB0A09DFF8FCA0CC
:1017B000C0EB0C00CAF80090C0EB09093448DFF810
:1017C000F0C0C0F80090206900EB5E04CEEB020E82
:1017D000CCF80040A6442F4CC91AC4F800E0B8F871
:1017E0000040009400B209B212B21BB202F0E6FD52
:1017F0006A68D3695169B2F91000B2F91820C91AA0
:1018000000241BB2009409B202F030FE6B681B7812
:1018100023B14FF0FF302146FFF7DEFD6B689B6878
:10182000B3B900241C4B20461C7004F08DFF1B4BE9
:10183000B3F936201A4B1A6000F0D4FF039801F078
:1018400017FD384601F008FDEC6105B0BDE8F08FEA
:1018500000246B681B6A9C42E3DA064B9968631AA2
:10186000594220465941FFF7B7FD0134F1E700BF67
:1018700078B2022054BD022084BD0220DCBD0220CB
:10188000FCB9022060C40220FDB9022054C4022029
:101890005CC4022058C40220BFBD0220F4C0022054
:1018A00094BD0220ACC4022070C8022064C402208F
:1018B00068C402202DE9F04F974C636889B0002B73
:1018C00000F0DF81E3690133E361944B1E68944BC0
:1018D0001F68944B1D7801F0B3FC934B6843934D04
:1018E000188095F8008001F0ABFC914B00FB08F0EC
:1018F000186040F6B83003F099FB637DA8460BB141
:10190000A06801E0FFF7BAFB411C834A20621AD0AD
:101910009368984217D0002B07DB5268126A9342F3
:1019200003DC18460021FFF757FD6368206A9A6AB6
:10193000A060024400285A6205DB1B6A984202DC60
:101940000121FFF749FD02F037FE7A4BDFF8C8A10D
:10195000DA6860629042994608D1636AC9F80C302F
:10196000FFF788FC00286C4D38D153E1724B1D689D
:10197000002DF2D1DAF80420DFF8D8E1D3695169FB
:10198000BEF800E0B2F91000B2F91820CDF800E07E
:10199000C91A09B21BB202F011FDDAF80420D369AA
:1019A0005169B2F91000B2F918200095C91A09B2AC
:1019B0001BB202F05BFD4FF0FF302946FFF70CFD34
:1019C00063681B6A9D42C8DA534B99686B1A594287
:1019D00028465941FFF700FD0135F1E7C6EB07093D
:1019E0001FFA89F96B686FDA9B6A002B40F310814C
:1019F000524D534B2F781B681F44524B1A68BFB28D
:101A000097429A4612DA0FFA86FB0FFA89FA58467D
:101A100039B252462B7800F0E7FE2B78F91A584677
:101A200009B2524600F0EAFE2B78E5E762682368C7
:101A3000906A591E0028216040F3EA80A0EBD17122
:101A400002EB81022F78D2F82CB05F4301F0F8FB53
:101A500098F8003097FBF0F090FBF3F703FB1707C3
:101A60007F42002F01DA1F44FBE72268A36803EBE3
:101A7000D2731BB9344B354A1B8802E0344B354ACC
:101A80001B88B2F8008062682978D268069101321A
:101A9000D2B20792059301F0D3FB0699059B009102
:101AA00080B20193039059462B48079ACDF80880DD
:101AB000FBB2FFF7A3FD2B78DAF80020264800934D
:101AC000D21A31B212B29FE099681A6A9B6A8A1AD6
:101AD000934280F29D80194D1A4B2F781B68C7EBFB
:101AE000C73703EB4707164B1A68BFB2974235DB7F
:101AF0000FFA86FB0FFA89FA39B2584652462B780C
:101B000000F072FE2B78F918584609B2524600F0E0
:101B100075FE2B78FF1AE6E754BD022068C4022048
:101B200058C40220FCB9022060C40220FDB9022082
:101B300054C4022060B2022088BD0220A5C4022045
:101B40005CC4022064C40220ECB30220EEB3022085
:101B500084BD022078B20220AEC4022063682268ED
:101B60009F6A196A986807EB010E01328645226068
:101B70004EDAA7EBD277394403EB810398F8007073
:101B8000D3F82CB02B7803FB02FA01F059FB98F83C
:101B900000309AFBF0F03F1A97FBF3F203FB127749
:101BA0006268002FB8BFC7EB0307116A2368002BD8
:101BB000D8BF0139A3688B4203D1344B34491B8809
:101BC00002E0344B34491B88D268B1F80080297890
:101BD00006910132D2B20792059301F031FB0699CA
:101BE000059B009180B20193039059462B48079AB8
:101BF000CDF80880FBB2FFF701FD294B2748B3F968
:101C000000202B78009331B20FFA89F301F087FCA2
:101C1000FFF704FAE369234E234D4F2BDCBFB6F9DF
:101C200036302B6004F09AFD022807D104F0ACFD99
:101C3000B6F936302B606368586A24E004F08EFDF4
:101C40000128F3D0B6F936202B689342EED1174B1A
:101C5000E268D968164F4A431649097853F821308B
:101C6000B2FBF3F2B2F5FA6FE0D803F0D3F910B19A
:101C7000114B1B7813B90023E36002E0FB680A33C1
:101C8000FB604FF0FF3009B0BDE8F08FECB30220ED
:101C9000EEB3022084BD022078B20220AEC402203E
:101CA0005CC40220F4C0022094BD02206C641D08B4
:101CB00054BD022034C40220F4B30220E5F1CAB9B5
:101CC00008B507F0D3F9013009D0002007F04CF82F
:101CD000044B5A681A60BDE80840E5F1BBB9012021
:101CE00008BD00BF70B20220014B1881704700BFD1
:101CF0007CBD0220014B1889704700BF7CBD0220CB
:101D0000014B1881704700BF70B20220014B188947
:101D1000704700BF70B2022010B5084B0024DC6091
:101D200001F056FD012003F08DF802F04FFE02F0A5
:101D30009FFC2046BDE8104002F006BD7CBD02209D
:101D4000204B1A68204B9A4270B5044607D10020F8
:101D50000146024603F07CFB002003F02FF91B4BE9
:101D600022781A736268A16825691A610020626985
:101D70005961D962DD611A62586303468B4208DA01
:101D8000134E04EB031006EB8306406AF062013346
:101D9000F4E7A9180E4802D10A46012302E029B24D
:101DA00012B20023FFF77AFC0A4B1A681A6102206C
:101DB0000022DC601A6003F045F80120BDE87040A5
:101DC00004F0C2BC2CBE02203CBA022070B2022039
:101DD0007CB202207CBD022008B50248FFF7B0FFAC
:101DE000032008BD50B902206C4B1B7870B5002B46
:101DF00000F0D2806A4CE36853B904F0AFFC0228CB
:101E000006D104F0C1FC00F0A5FE6648FFF798FF7C
:101E1000E36823B9624A1268002A00F0BD80626953
:101E20005F4E01326261002B00F08D803368002B21
:101E300040F08980FFF73EFD451C00F08480F36888
:101E4000594D18622B6004F09FFC584B584ADB8EAA
:101E50003383F368934210D1186A03EB00139A6A34
:101E6000544B9A4209D000F0B3FD0646B1B20120AE
:101E7000FEF7C0FF3046FEF723FE2B681A6A03EB1D
:101E8000021324332360DB68D90701D5FFF744FF31
:101E90002B689B6823B32368DB689A0711D5FFF78B
:101EA0003BFF002002F0CEFF002004F04DFC00209C
:101EB00002F048FBFEF7A6FF022802D9382002F004
:101EC000DBFBFEF783F923685B68984700232360F8
:101ED000C31EDBB2012B0BD9314A2B68D36007E05C
:101EE000E3602360FFF718FFBDE87040E5F1B2B88A
:101EF000052851D8DFE800F005501B5020030025CD
:101F00000AE0E3681A6A03EB02131B6BDB0701D4D8
:101F1000FFF702FF002525602846E56002F0ACFBD4
:101F200002F0A6FB2846BDE8704002F00DBCE06858
:101F3000BDE87040FFF704BF2B681A6A03EB021379
:101F40002433236070BD2368154D2BB39B681BB3EE
:101F5000194B6A691B6892FBF3F103FB1123DBB990
:101F6000FEF734F92B689B689847044678B902F06D
:101F700083FB02F07DFB204602F0E6FBFFF7CCFE80
:101F8000EC602C600120BDE8704002F0DBBA06284E
:101F900002D12B6903B12B6070BD00BF08BD0220C8
:101FA0007CBD022020B802206CC40220F4C00220B4
:101FB00004B40220BD1C000870B20220034B044A86
:101FC000986503F154005160FFF7BABE70B2022069
:101FD0007CBD0220014B00221A6070477CBD0220AC
:101FE000014B0022DA6070477CBD0220034BC3F82E
:101FF000EC0003F1E800FFF7A3BE00BF70B20220BF
:10200000014B1860704700BF70B20220014B0A22DA
:102010001A60704770B202202DE9F04FC84B8DB0A6
:1020200000241C6001F0EEF8C64B1D7801F008F9A1
:10203000684385B2C44BAFB21E783FB201F000F9DD
:1020400007EB470A02234FEA45089AFBF3FA70436D
:102050001FFA88F8CAF1000A07EB470B1FFA8AFA41
:1020600080B21FFA88F20BF1FF3BCDF81CA005905F
:1020700006921FFA8BFBA246B44B1B78002B00F094
:10208000C18002F099FAB24B1870BAF1000F02D178
:10209000504602F0D7FEAF4EDDF818E03188AE4B67
:1020A0000024C8EB0101B3F9002000940FFA8EF36D
:1020B00009B2204602F082F9204601F0D9F84BF629
:1020C000055001F0C9F83188079A009411440123A2
:1020D0000193204609B2A14A4FF0FF3301F060FAA4
:1020E00001F06AFBA1469E4B974C13F8091002229F
:1020F000012309A8FEF7A6F994F800A001F0A0F8C2
:1021000000FB0AF000EB40001FFA89F60230704332
:102110003C30502109AA022300B201F0D7FA94F80A
:1021200000A001F08DF800FB0AF000EB4000023047
:1021300070433C3005F1520109B28A4A022300B2D1
:1021400001F0C4FA94F800A001F07AF800FB0AF05C
:1021500000EB40000230C5F14E0270433C3016B235
:1021600000B23146804A022309F1010901F0AEFABA
:10217000B9F1030FB7D1F82001F06EF8022001F099
:1021800059F894F8009001F05BF8A9EB89035843E3
:102190003A305021754A012300B201F097FA4FF40A
:1021A000F85001F059F894F8009001F049F809EB63
:1021B000C90358434C3050216D4A012300B201F04D
:1021C00085FA01F01FF801F0F7FA94F800A001F089
:1021D00037F82478814601F033F8C4EB0414AAEBF5
:1021E0008A03604303FB09F33A33C21C314618B239
:1021F00012B20FFA8BF302F093FB022002F022FEE0
:102200004FF0010A02F0FAFBDDF814E00FFA8EF34A
:10221000A3F1440656FA80F6023396FBF3F6B6B203
:1022200031B203290FDC4A1C0FDB10D003290ED07A
:10223000C0F30720A7F14E030344B91C93FBF1F34D
:102240001FFA83F905E0032601E04FF6FF764FF011
:10225000010904F083FA012834B242D104F094FA5F
:10226000002C09DB022C1FDD032C05D13C4B187818
:1022700059789A7805F0D9FFFFF7ACFE01F09CFA87
:1022800001F0A6FA012002F0DDFD012004F05CFA65
:1022900002F09CFB012000F0CDFF012002F052F97A
:1022A000FFF7B4FE002047E1B9F1000F06D12C4B37
:1022B0001A5D0AB92F4A125D013A0CE0B9F1020F1A
:1022C0000AD1274B2B491A5D095D0132D2B29142E6
:1022D0001A5501D100221A551C4B01221A70924640
:1022E000CAE62549D1F8008044450FFA89F78B46A4
:1022F000DFF8889007D1D9F800309F4203D1BAF1B6
:10230000000F00F01581114A1378002B40F0A380D4
:10231000B8F1FF3F34D1022000F08CFFF82000F02C
:102320009BFF094B93F8008000F08AFFA8EB880818
:1023300008FB00F03A3000B250210C4A37E000BFF1
:1023400088BD0220FDB90220FCB9022000B40220A1
:1023500073C4022070C80220ACC40220E8691E08C1
:1023600070C40220F5691E08076B1E08F8691E0874
:10237000FA691E08BCE31C0878C4022074C4022059
:10238000B8F1030F1BD1022000F054FF4FF4F850B6
:1023900000F062FF6A4B93F8008000F051FF08EBF9
:1023A000C80808FB00F04C30664A00B250210123F7
:1023B00001F08CF901F000FA00F024FF4BE0D9F8AD
:1023C0000030012B16D0022B2FD0002B43D15C4BB9
:1023D0001B78039300F034FF039B5B4A584300EBE8
:1023E0004000023000FB08F03C30C5F14E0100B265
:1023F00009B218E0554A09A812F808100222FEF79F
:1024000021F84F4BBBF800801B78039300F018FFB6
:10241000039B584300EB4000023000FB08F03C30C7
:1024200000B2502109AA022313E0454A127804920F
:10243000039300F005FF049A039B504300EB400018
:10244000023000FB08F03C3005F15201404A00B276
:1024500009B201F03BF9631C0ED1022000F0EAFE44
:10246000374B1D7800F0ECFEA5EB850568433A304C
:1024700000B25021374A0FE0032C13D1022000F0A4
:10248000D9FE2F4B1D7800F0DBFE05EBC505684338
:102490004C302C4A00B25021012301F083F900F0A6
:1024A000B1FE41E0012F15D0022F29D0002F3BD1E2
:1024B000234B93F8008000F0C3FE00FB08F000EB14
:1024C0004000023070433C30C5F14E0100B209B209
:1024D0001D4A13E01D4B0222195D09A83B46FDF77A
:1024E000B1FF174B1D7800F0ABFE684300EB4000D6
:1024F000023070433C3000B2502109AA022311E09F
:102500000F4B93F8008000F09BFE00FB08F000EBFF
:102510004000023070433C3005F152010C4A00B2D9
:1025200009B23B4601F03EF9CBF80040C9F8007013
:10253000094A0023137001200DB0BDE8F08F00BFE1
:10254000FCB90220FA691E08076B1E0870C402203D
:10255000F5691E08F8691E0800B4022008B5024893
:10256000FFF7EEFB032008BDBCB8022010B5094BF5
:1025700001241C70FFF7D0FB002004F0E5F80020D8
:1025800002F060FC01F024F92046FFF739FD042039
:1025900010BD00BF00B40220014B1860704700BF9F
:1025A0007CC402202DE9F0436D4B85B000241C60F3
:1025B00006460F4600F026FE204601F0C3FF694B99
:1025C0001D789846002D5DD0674DADF80C402C600D
:1025D000326857F824309A42E1B201D1296002E012
:1025E0000134052CF5D1002002F02CFC012300243D
:1025F00001935E4B009420461A68C8214FF0FF33C8
:1026000000F0CEFF2B6803EB4303C3EBC30358007A
:10261000233000B2502102F0FBF90F2588F800406A
:1026200030240DF11008282240F60F7308F8044DED
:1026300028B250210093134601F0C0FE4C4B93F892
:10264000009000F0FDFD00FB09F04FF0020905F1DC
:10265000140390FBF9F0181A013400B28C214246A1
:102660000123E4B201F032F82A35352CADB2D8D1CD
:102670000F205021CB22212302F052F9484602F0CC
:10268000E1FB012502F0BAF9814604F067F8012860
:1026900004461ED104F078F8334B1B6857F82330FA
:1026A0003360FFF797FC01F087F801F091F82046BE
:1026B00002F0C8FB204604F047F802F087F92046F4
:1026C00000F0B8FD204601F03DFFFFF79FFC002021
:1026D00042E0284B1A68511C1960052192FBF1F168
:1026E00001EB81018A42984600D0A5B35FFA89F4D4
:1026F0001D4A2A230F3C94FBF3F413689C42914635
:1027000001D115B927E0002B0EDB03EB4303C3EB2C
:10271000C30358000F3040F60F732822009300B215
:102720005021134601F04AFE04EB4401C1EBC10104
:10273000480040F6117328220F30009300B2134670
:10274000502101F03BFE98F80430C9F8004013B165
:1027500057F824303360012005B0BDE8F08300BF96
:1027600088BD022000B40220FCB302207CC40220F9
:10277000FCB90220A4BD022037B50B4C0B4A2378CC
:102780000B4902A840F8043D0A4B1A600A4B00228C
:102790001A71FFF707FF05469DF804002070FEF749
:1027A00059FA284603B030BD34C40220FC691E0823
:1027B000C0E31C087CC40220A4BD0220044B054ACF
:1027C0001A60054B0548064901221A71FFF7EABE57
:1027D0007CC402200A6A1E08A4BD022084BA02201A
:1027E000D8E31C087047000013B5034C009403F0B5
:1027F0002DFB02B010BD00BFAEC4022073B506466B
:102800000D4614460093044831462A46234600F0FC
:1028100086FE02B070BD00BFAEC40220F8B52B4CDE
:102820002B492C4D4FF0FF3222602B4A00231268B7
:102830002B700A600E466FF0030159435158013165
:1028400002D1013B236002E001332A2BF3D10120A6
:10285000FEF7BAFA2168214B4A1C186001D0884261
:1028600001DD00221A601B6834685B4254F82320A3
:10287000531C1B4B17D01B4D881C2A6098601046B8
:1028800000228A4209DC6FF00300504303EB820709
:1028900020580668FE620132F3E703EB8203124A16
:1028A0002860DA6207E002229A60104ADA62104A6F
:1028B0001A6301232B700120FFF7A2FB00210848B7
:1028C0000A460123FEF7EAFE0420F8BD88C4022070
:1028D00080C402208CC4022004010008ACBD022088
:1028E00004B4022084C402203C6A1E08416A1E0807
:1028F0004C6A1E0838B51C4B1C4A1B6813602A28FA
:10290000C8BF0020404253F820305A1C27D0184A34
:102910001360184A1360013B033315461FD8164B4A
:1029200000241C70154B20461C6003F00DFF204650
:1029300002F088FA00F04CFF204601F003FE20462A
:1029400002F03CFBFFF762FBFEF75CFA022802D9BB
:10295000382001F091FE2B685B68984738BDE4F1A0
:1029600079FBC0B238BD00BF0401000880C402205A
:1029700084C402207CBD0220BFBD022088BD02208D
:1029800010B5FEF797FF431C044619D00D4B0022EB
:102990001A600D4B9B68013B98420BD00B4B1B7888
:1029A00043B90120A1B2FEF725FA2046BDE8104048
:1029B000FFF7A0BFFFF72AFBE4F14CFBC0B210BD4C
:1029C000012010BD58BD022004B402208CC4022096
:1029D00070470000044A00231370044A012111705B
:1029E000034A1370E4F136BBF6B30220F5B30220BC
:1029F000F4B30220044B01221A70044A002313701E
:102A0000034A1370E4F126BBF6B30220F5B30220AB
:102A1000F4B30220044A01231370044A1370044BD8
:102A200000221A70E4F116BBF6B30220F5B30220BF
:102A3000F4B30220044A00231370044A1370044BB9
:102A400001221A70E4F106BBF6B30220F5B30220AE
:102A5000F4B3022008B5044A00231360034A13604C
:102A600003F06EFB052008BDC4C00220C8C00220D0
:102A700008B50248FFF764F9032008BD34B5022009
:102A800008B50248FFF75CF9032008BDC8B502206D
:102A900008B50248FFF754F9032008BD5CB60220D0
:102AA00008B503480349FFF789FA032008BD00BFB2
:102AB000DA6A1E08A0BA022008B503480349FFF7E6
:102AC0007DFA032008BD00BFEB6A1E08F0B60220A5
:102AD00008B503480349FFF771FA032008BD00BF9A
:102AE000F56A1E08B0BD02200E4B0F48197800226F
:102AF00070B51346C0F8D011022B08DC0B4D00EB6B
:102B000082041C2606FB0355C4F8F0510132013340
:102B10008B42F1DD002106480A460123FEF7BEFD87
:102B2000042070BDF4E31C0830B5022004E41C0846
:102B3000F4B6022008B5FEF7BDFE431C05D0044BD9
:102B40001870BDE80840E4F185BA012008BD00BF57
:102B5000DCBD0220124B10B5124C1B682360012013
:102B6000FEF732F92A28C8BF00202368404253F8F4
:102B70002020531C0C4B0CD01168C3F8241351684F
:102B8000C3F828139168D268C3F82C13C3F8302314
:102B900010BD064AC3F82423054AC3F8282310BDF4
:102BA0000401000880C4022030B50220FF6A1E081C
:102BB000BD1C000837B50220012107F09BF8114D1C
:102BC00070230093002301248DF806308DF8073020
:102BD0002846022369468DF805308DF8044006F03A
:102BE00043FF28462246402106F084FF284622461D
:102BF000202106F07FFF28461021224606F07AFFAA
:102C000003B030BD000402402DE9FF47974D95F811
:102C100084338BB1964B97491A784A70964A10784C
:102C200088700124062105201C701170FEF712F82F
:102C3000002385F884332C70904A914F00230220A2
:102C40003B60137000F0F6FA2B7843B901F0B4FC46
:102C50008C4B1B78834202D0844B01221A702E7851
:102C6000824C002E4DD001F0A7FC864B187000203E
:102C700002F0E8F8002001F065FC002001F06EFC95
:102C80000120022103F004FF0020032103F000FFD4
:102C9000FFF790FF00F090FD7B4B7C4A1B78128879
:102CA000C3EBC33302EB43010126002009B2784A8B
:102CB00000964FF0FF33019600F072FC0023237062
:102CC0004EF2FF03009310205121C822262301F069
:102CD00075FB4FF4F85300930F205021CA2228238C
:102CE00001F0C4FB1F2310205121BF2201F018FE68
:102CF000304602F0A7F84FF0FF33C4F88833E6F10E
:102D000045FC03F02BFD01280446DFF8A48167D1C0
:102D100003F03AFDFFF75EF900F04EFD00F058FDBC
:102D2000204602F08FF8204603F00EFD01F04EFE23
:102D3000204600F07FFA002001F0E4FB204600214D
:102D400003F0A6FE0020014603F0A2FE51484021F8
:102D5000224606F0CFFE4F482021224606F0CAFE4A
:102D60004C481021224606F0C5FE4B4B00261E7033
:102D7000314603223346304688F8006004F01CFBDD
:102D80003C4B3B4A597811709A783B4B85F8844309
:102D90001A70424BD3F8008058F80640611C16D0D8
:102DA00020683F49FDF7B2F9054660B93D4E38202D
:102DB00001F062FC284634603D6003F0C5FC3368D6
:102DC0005B6898470FE1043E16F1A80FE4D101209B
:102DD00001F0B8FB2B4B187801F0C0FB002002E19A
:102DE000314B1A6802F500621A6098F800209A4682
:102DF000002A40F08880284B1C78002C40F083800B
:102E0000D5F88833194FDFF8AC900133012B53D834
:102E1000012001462346042204F0CEFA4FEA59016C
:102E20004FF00050A1F5FA7104F008FCD7F8883390
:102E3000013316D02046214603F02AFE0120014628
:102E40004FF0010903F024FE0094CDF804902046D1
:102E5000A021164A4FF0FF3300F0A2FBC7F8889379
:102E600051E00223C7F888334DE000BF30B502209F
:102E7000A0BA0220B0BD02204DC10220BFBD022079
:102E800088BD022073C40220FDB9022070C8022050
:102E90000A6B1E08000402405CC1022080C40220AC
:102EA000186B1E087CBD022084BA0220216B1E080C
:102EB00054C1022000B0020001210B46204604222A
:102EC00004F07AFA4FEA59014FF00050A1F5FA7177
:102ED00004F078FBD7F88833022B11D0204601216B
:102EE00003F0D6FD0120214603F0D2FD012301931A
:102EF00000942046A0213D4A4FF0FF3300F050FBE4
:102F00000023C5F88833D5F88833013315D0384B02
:102F10001B78012B06D1002004F0D4FB820701D5D9
:102F200004F0ACFB98F80030012B06D1002004F02F
:102F3000BFFB830701D504F055FADAF80030B3F58A
:102F4000704F03D92B4B4FF400521A602A4B1A686A
:102F5000511C19604FF4967192FBF1F001FB1022A5
:102F60001C46BAB9B6B9252314200C218DF80830B7
:102F70008DF8096000F0B2FB204B0DF109001978C3
:102F800003223346FDF75EFAAA200C2102AA04238D
:102F900000F09CFB22681E2392FBF3F603FB16262F
:102FA00006BB174D1748EC7840215CB1012206F0B2
:102FB000A1FD14482021324606F09CFD1148102145
:102FC00001220AE0224606F095FD0E48202101224A
:102FD00006F090FD0B481021224606F08BFDEB78A1
:102FE000DB43EB70012004B0BDE8F087316B1E08B5
:102FF0005CC1022084BA0220A4BD0220ECB10220F0
:10300000B0BD0220000402402DE9F7430646894680
:1030100090461F460025454517DA0D4C0D4817B15F
:103020002388008801E0038820886268009001926C
:1030300030462022494601F043FA074A6368127875
:1030400002FB036636B20135E5E703B0BDE8F08365
:10305000E4B90220B4BD0220FCB902202DE9F743F7
:10306000224F234E234D244CB7F90000B6F900102F
:103070004FF4F85918220823CDF800902A802380B5
:1030800001F09CF9388831882A8823884FF6FF7828
:1030900001300131023A023BCDF8008000B209B2A2
:1030A00012B21BB201F08AF938883188CDF800904D
:1030B000022211440238042300B209B22A8023807C
:1030C00001F07CF9388831882A882388CDF800807F
:1030D00001380331013A023B00B209B212B21BB20D
:1030E00001F06CF903B0BDE8F08300BF9EC402207C
:1030F0009CC40220A0C40220A2C402202DE9F74FE4
:103100000D46111A89B20446BDF8308069B99D4256
:1031100002DD2A461D46134601335B1BCDF8308085
:103120002046294601221BB20EE05B1B9BB283B9ED
:10313000904201DD144602460132121BCDF8308068
:103140002046294612B2012303B0BDE8F04F01F03A
:1031500035B90AB21BB282EAE27BABEBE27B83EACF
:10316000E379A9EBE3794FF6FF7A002AACBF01229D
:1031700052460FFA8BF7002B0FFA89F6A8BF4FF0D3
:10318000010AB742019203DAC6F34F07002332E087
:10319000C7F34F0600231AB2BA422FDA4E44B2B236
:1031A00096B231B2B94204DBCBEB02065544B6B25B
:1031B0002DB2019A0093144424B220462946424677
:1031C00002F010FC009B0133E5E75F44BAB297B20E
:1031D00039B2B14205DBC9EB0207019A1444BFB210
:1031E00024B255442DB2204629464246009302F0AF
:1031F000F9FB009B01331AB2B242E6DB03B0BDE833
:10320000F08F0000014B02225A607047E4B902209F
:1032100010B5435C084403F01C04C278407802F007
:10322000F80242EAC42200F0F80042EA401040EA04
:10323000531010BD014B5860704700BFE4B9022025
:10324000014B5868704700BFE4B90220014B188851
:10325000704700BFB4BD0220014B1880704700BF0B
:10326000B4BD0220014B1888704700BFE4B90220AA
:10327000014B1880704700BFE4B9022002F094BAF5
:103280002DE9F04F87B09846BDF940A0BDF84470D5
:10329000BDF848500646002800F03E81008803FB38
:1032A0000AF444F24D23984240F00D81B6F806C06E
:1032B000BCF1000F40F00781CDF808C003910192E6
:1032C00001F07AF97389834604305FFA83F9C0B25A
:1032D0005B0A03EBC91901F041F90399019A084609
:1032E000534611464246E5F161FF02F083FAF38B43
:1032F000B28BDDF808C003F47F4303EB1223102BDD
:1033000006EB49090ED006DC082B40F0D48006F10C
:10331000360A664624E0B3F5847F4BD0B3F5447F8C
:1033200040F0C9806C364FEA152A4FF000090FFAB9
:1033300089F8A04580F2BF8036F81800B84206D060
:10334000C0B2E5F1BBFC36F81800000A03E0E8B2B1
:10335000E5F1B4FC5046E5F1B1FC09F10109E6E7FD
:103360000FFA86F8B4EB480F40F3A58039F818102F
:10337000090A89005046FFF74BFFB84214BF0346C5
:103380002B46D8B20293E5F199FC029BC3F30720C8
:10339000E5F194FC19F8181050468900FFF738FF42
:1033A0008046C0B2E5F18AFCC8F30720E5F186FC4F
:1033B0000136D5E72B0A06F1360A04936646002C3F
:1033C00079DD33B239F813305FEA132C4DD1013671
:1033D0009BB2B6B26BB994FBF8F308FB1343002B16
:1033E000EDD0E8B2E5F16AFC0498013CE5F166FC39
:1033F000F1E71AB2012A5ED0A41A32B2504639F867
:1034000012100192090A89000293FFF701FF014699
:10341000C0B20391E5F152FC0399C1F30720E5F135
:103420004DFC029B019A9BB2012B17D019F8121088
:10343000029389005046FFF7EBFEB84214BF0246E4
:103440002A46D0B20192E5F139FC019AC2F3072075
:10345000E5F134FC029B023B9BB200E000231AB270
:103460000136002AB6B2C8DCA9E7D9B289005046B5
:10347000CDF808C0FFF7CCFEDDF808C0B84214BF95
:1034800002462A461FFA8CF3C2F30721E41A05917B
:1034900019B200290CDDD0B201920293E5F10EFCC5
:1034A0000598E5F10BFC029B019A013B9BB2EFE70B
:1034B0000136B6B283E702F097F9584607B0BDE887
:1034C000F04F01F04BB80846534611464246E5F12D
:1034D0006DFE02F08FF94FEA152A4FF000090FFA3E
:1034E00089F8A04513DA36F81800B84206D0C0B201
:1034F000E5F1E4FB36F81800000A03E0E8B2E5F174
:10350000DDFB5046E5F1DAFB09F10109E7E707B019
:10351000BDE8F04F02F068B907B0BDE8F08F1FB505
:10352000BDF9184000944FF6FF7401940294FFF720
:10353000A7FE04B010BD00002DE9F0411C46BDF906
:103540001830064608461146224604FB03F8E5F10A
:103550002DFE02F04FF9C8F3CF0800252AB20FFA6A
:1035600088F39A4214DA07242EB1735D2341DB07F6
:1035700001D5094F00E0094F3878E5F19FFB388805
:10358000000AE5F19BFB14F1FF34EDD20135E5E7CC
:10359000BDE8F04102F028B9B4BD0220E4B9022030
:1035A0002DE9F04F85B01C468946054617469DF823
:1035B00038A001F001F8C1074CBF3E4B3E4B1B88C1
:1035C0002CB938460393FDF77CFA039B0446621C32
:1035D000DFF8F480394A05D11478D8F804104C4348
:1035E00093FBF4F41678D8F804104E43F6B21FFAA1
:1035F00085FB04FB06B212B29A4209DDD31A93FB93
:10360000F6F206FB12330BB9A41A01E0D2431444BC
:103610002B4B1B780BB1032905DD28464946224672
:103620005346FFF7F1FC3846FDF74BFA0F9B012B91
:1036300002D0022B08D018E0251A7543022395FB0F
:10364000F3F55D442DB210E0A04209DD0023021B1A
:10365000934201DA0133FAE7002AA8BFBF1807E056
:10366000251A06FB05B52DB201E0A04200DC044698
:103670004FF0000BA34519DA17F80B201149BAF1E6
:10368000000F03D0B8F80030098802E00B88B8F8C2
:1036900000100091D8F8041001912846494635449D
:1036A00000F00EFF2DB20BF1010BE3E705B0BDE812
:1036B000F08F00BF70C80220ACC40220FCB9022009
:1036C0006EC80220B4BD0220E4B9022013B5002464
:1036D00000940194FFF764FF02B010BD30B587B0CD
:1036E0000C460546FDF74EFA42238DF8043041237F
:1036F0008DF80530542301468DF8063002A83D238D
:103700008DF80730E3F163FC2846214601AA0A231D
:10371000FFF7DCFF07B030BDF7B5204C0DF1070215
:1037200007460E460DF105000DF1060104F050FDAF
:103730009DF80510A27A8A4208D0194DA172012382
:10374000A81C0222FCF77EFE3A232B719DF806107E
:10375000E27A8A4209D0114A114DD1720123681DC3
:103760000222FCF76FFE3A23EB719DF80710227BD3
:103770008A4210D00A4C094A04F10800117301234F
:103780000222FCF75FFE0023A37238463146A21CDA
:103790000823FFF79BFF03B0F0BD00BFE4B9022090
:1037A000B4BD022013B54FF0000E01248DE8104087
:1037B000FFF7F6FE02B010BD034B4FF6FF721A8002
:1037C000024B00221A807047E4B90220B4BD0220E7
:1037D00073B501F099F80646002001F033FB00F0C4
:1037E000EBFE10F001001C4B1C491D4C07D0B3F937
:1037F0000020B1F9003021880091002005E0B1F9E6
:1038000000202188B3F900300091014600F0D6FD78
:10381000144B1B68CBB9144B1B68B3B902F08EFF75
:103820000128054611D1FFF7C7FF01F0BDFF0F4B7F
:1038300018880F4B198802F0D3FA0E4B0A221A800F
:103840004FF6FF7323810C4BDD72304602B0BDE8AA
:10385000704001F0F7BA00BF70C80220ACC402206B
:10386000E4B9022088BD02207CBD02209EC4022053
:103870009CC4022098C40220B4BD022030B585B09B
:10388000FDF780F9244A254C1080254A254D034632
:10389000B2F90000244AB2F900100095E5680195DC
:1038A000224D0295224DE27A039502F0F9F900F0DB
:1038B0004FFE58B3236901337F2B236126D104F1D6
:1038C000140003F075F9237D627D9A4218D0A07D23
:1038D000984215D1E37D834212D0E07500F03EFEA0
:1038E0001449154803F054F90F2001F09DFD01F033
:1038F000BDFDFFF76DFF114B186808B1FEF720FA08
:10390000A37D6375237DA3750023236105B0BDE806
:103910003040E5F11DBB00BF9AC40220B4BD0220B7
:103920009EC4022098C402209CC40220A0C402208D
:10393000A2C4022042C1022040C1022088BD022050
:1039400070B5154CBDF81060248820EAE07025B2EF
:10395000854222EAE272DCBF04F1FF3000B29542F8
:10396000D8BF04F1FF320D4C2488049621EAE1719E
:1039700025B2D8BF12B28D4223EAE373DCBF04F153
:10398000FF3109B29D42DCBF04F1FF331BB2BDE839
:103990007040FFF7B3BB00BFACC4022070C8022068
:1039A000F7B5164682B205460F46D01A1A441C4691
:1039B000BFB20B46009600B212B2FFF7C1FF391B2F
:1039C000E3190096284609B22A461BB2FFF7B8FF52
:1039D00003B0F0BD2DE9F0412A4B2B4D19786E68EC
:1039E0002A4C71430A2886B0024689B20AD1A38BB9
:1039F0006383238BB4F91E001AB290423FDC591A3C
:103A000021833CE02248B4F91A30077806FB0737D7
:103A1000B5F90E309F42804604DDA08B6083208B79
:103A2000411A2183B4F918C0B4F91E00DFF85CE034
:103A3000B4F91A102788844508DB2B8808468DE8DE
:103A4000480061463B4600F03BFD11E0BEF91CC05A
:103A5000CDF800C00290B5F910C028880390CDF8C9
:103A600004C01046049705960EF11802E4F13CFFDD
:103A7000628B6B6898F8001001FB0323638306B028
:103A8000BDE8F081FDB90220E4B90220B4BD0220F6
:103A9000FCB9022010B5441E14F8010F10B1FFF755
:103AA00099FFF9E710BD0000104AB2F91C309842A6
:103AB00030B505DB0E4BB3F90E309842B8BF034664
:103AC0005383B2F91E3099420DDB094C094B208A11
:103AD00065681B7804B26B43E41AA142C6BFC3EB0E
:103AE00000031BB20B46138330BD00BFB4BD0220E0
:103AF000E4B90220FDB90220034BB3F91800B3F971
:103B00001A3043EA00207047B4BD022010B5104CB3
:103B1000B4F90040A14220EAE07004DC884203DDF1
:103B2000481E00B200E021460A4CA0830A48C18129
:103B30000A49B1F900108A4223EAE37304DC934294
:103B400003DD531E1BB200E00A460282E38310BD70
:103B5000ACC40220B4BD0220E4B9022070C8022027
:103B600010B510B1074CA48B048011B10648C08970
:103B7000088012B10449098A118013B1014AD28B1D
:103B80001A8010BDB4BD0220E4B902202DE9F04F27
:103B90008FB017461D469DF868300D937B005B4241
:103BA0000B939C4B9DF864201B880C920C46C61B03
:103BB000BDF86010079130EA260628BF3E46C7F1DF
:103BC00001010991F21919B291420A9702DC5E1EB5
:103BD000F61B36B2E31B34EA230428BF3C468E4B67
:103BE0001B88E21919B2914202DC5C1EE41B24B26C
:103BF0000C9A0D9B002A00F00681002B00F0EB8050
:103C00000123079901930023009102933046214636
:103C10003A462B46FFF7BAFFBFB21FFA84F808EB0B
:103C20000701304609B22A4601F0DCFEC7EB080165
:103C3000304609B22A461FFA86F801F0D3FE08EB97
:103C4000070000B221462A4601F0CCFEC7EB08006F
:103C50002A4600B2214601F0C5FE00220C92002344
:103C6000089308990A9A914280F2D1800999002913
:103C700007DB0B9B0A9A0233013A19440A920B9311
:103C800009910899099A013102EB41030133099323
:103C90000C9B0891002B44D00A99089A079B00932B
:103CA0001FFA81F81FFA82F91FFA84FAB7B209EBFA
:103CB000070008EB0A0CC8EB0A0B0FFA8CFC00B2E9
:103CC0000FFA8BFB614602465B46CDF818C0FFF742
:103CD00037FEC9EB0700DDF818C00799009100B264
:103CE000614602465B46FFF72BFE09EB0A0B08EB29
:103CF0000700C9EB0A0900B2079A00920FFA8BFB82
:103D00000FFA89F9024659464B46C8EB0707FFF7F9
:103D100017FE079B009338B2594602464B46FFF701
:103D20000FFE0D9900299CD0089A0A9B1FFA86FA6B
:103D30001FFA83F997B21FFA84F807EB0A0C09EB14
:103D4000080B0FFA8CFC0FFA8BFB604659462A468B
:103D5000CDF818C001F046FEC7EB0A031BB21846A7
:103D600059462A460593C9EB080B01F03BFEDDF8E6
:103D700018C00FFA8BFB604659462A4601F032FE06
:103D8000059B594618462A4601F02CFE09EB0A0B02
:103D900007EB08031BB20FFA8BFB584619462A465D
:103DA0000593C9EB0A0901F01DFE059B0FFA89F97D
:103DB000C7EB0807194648462A463FB201F012FEF3
:103DC000584639462A4601F00DFE484639462A46ED
:103DD00001F008FE45E7BFB2B2B2079B0093D019CD
:103DE000D21B2146234600B212B2FFF7A9FDA3B2AF
:103DF000D91B079A00923B44304609B232461BB2A7
:103E0000FFF79EFD2BE7002B3FF429AF04E70FB02F
:103E1000BDE8F08FACC4022070C802202DE9F04F3D
:103E200097B01546BDF884200C921C4605FB05F2A0
:103E30009DF8883007911193BDF8801014925300BB
:103E4000012208910F939DF88C10139104FB04F349
:103E5000A2EB450259005A43431B30EA230028BF16
:103E60002846A44B0D921B88109105FB01F212927B
:103E7000024619B22A44914209950E940B9003DC34
:103E8000013B5B1B1BB20B9307990B1B31EA230110
:103E900028BF2146984B07911B88079A19B22244E4
:103EA000914203DC013B1B1B1BB20793119A82B1A9
:103EB000139B73B108990C9A00910123002601927B
:103EC000029303960B9807992A462346FFF7A6FF0D
:103ED0001196002637460A96129905FB0563B142F2
:103EE00015937ADB119B3BB30B99099A1FFA81F961
:103EF00093B203EB09080A990C9A0092C3EB0909E3
:103F0000079B1FFA81FA1FFA83FB0AEB0B0109B228
:103F10000FFA88F80FFA89F90B4640464A46CAEB71
:103F20000B0AFFF70DFD0C9B00930FFA8AF1484630
:103F300042460B46FFF704FD1399002935D00B9A32
:103F400009991FFA82FC8BB2079A0A9905931FFA06
:103F500082FA1FFA81F903EB0C0809EB0A0B0FFA3E
:103F600088F80FFA8BFB40465946089ACDF818C0DE
:103F700001F038FD059BDDF818C0089AC3EB0C036F
:103F80001BB2184659460593C9EB0A0901F02AFDF0
:103F9000059B089A0FFA89F91846494601F022FD57
:103FA00040464946089A01F01DFD0A9A15990F9B53
:103FB00001320A920D9A0F441E4402EB4703002B74
:103FC0008ADD0999129A013909911099521A1292AF
:103FD0000D9A0A44DF1B0D927EE70123149AA3EB8E
:103FE0004403534309930F9B002563430A932E46D2
:103FF0002F460A9904FB04538D420D9377DC1199E7
:1040000031B30B9A0E991FFA82F9BBB203EB090880
:10401000C3EB0909079B0C9A00921FFA83FB1FFA56
:1040200081FA0AEB0B0109B20FFA88F80FFA89F945
:104030000B4640464A46CAEB0B0AFFF781FC0C9B35
:1040400000930FFA8AF1484642460B46FFF778FC88
:104050001399002934D00B9A07991FFA82FC0E9A03
:10406000CDF818C0BBB21FFA81FA1FFA82F903EB30
:104070000C0809EB0A0B0FFA88F80FFA8BFB404685
:104080005946089A059301F0ADFC059BDDF818C070
:10409000089AC3EB0C031BB2184659460593C9EBAB
:1040A0000A0901F09FFC059B089A0FFA89F9184646
:1040B000494601F097FC40464946089A01F092FCB7
:1040C0000D99109B099A0E441D4402EB4603002BE8
:1040D00007F101078DDD0E990A9A01390E910F99AA
:1040E000521A0A92099A0A449E1B099281E717B054
:1040F000BDE8F08FACC4022070C80220F7B51646A8
:1041000098B14F08041D0125BD4204F104040CDAE6
:1041100034F9080C34F9061C34F9042C34F9023C47
:104120000096FFF70DFC0135EEE703B0F0BD00008F
:1041300010B5034C2080034862800180438010BD8D
:10414000D4BD0220F8B902202DE9F04F8DB00693BE
:10415000BDF85C300793934BBDF85820B3F900804D
:104160000292914AB3F90250189CB2F900C0177933
:10417000B2F9029052794045A8BF80461FFA88F8EC
:10418000A942A8BF0D460FFA88F6C6EB0C0CADB2DB
:104190006743BC45B8BF67460FFA85FCCCEB0909FD
:1041A00062439145A8BF91468C459F80A3F8069035
:1041B00003DD4A1B9144A3F80690864203DDC8EB59
:1041C000000217449F80B3F90420002A40F3E680E0
:1041D000744BDB881FB2002F40F3E080691A89B26C
:1041E000361A92FBF4F20B4496FBF4F692B288B2C4
:1041F0009BB2B6B2089203900493089832B203B20D
:104200009A4280F2CB80694B1B786BB1032C0BDC9C
:10421000644B674AB3F90630009206FB048000B293
:1042200029B222B201F012FE624B1B78012B09D198
:104230005C4B06FB048000B229B222B2B3F906300F
:10424000E4F1B4FF01F0D6FAB1B204FB01839BB2F2
:1042500036B2069A09937600069B059132440136E0
:1042600033440A920B930026A64280F29180514B70
:104270001B78012B09D009984A4B304400B229B26F
:104280000122B3F90630E4F191FF4FF0080B4FF033
:10429000800A00274FF0000909EB0703A1453A46C1
:1042A0009BB228DA03981BB202B2934220DB049936
:1042B0000AB293421CDA3D4A0A981178027809B191
:1042C000032C06DD079802991AEA020F18BF084668
:1042D0000CE01AEA020F01D0029807E0314AB2F965
:1042E000062006FB0233324A32F8130001F0F0FEDA
:1042F00009F10109D0E724EAE4791FFA89F909EB09
:104300000207BBF1010BBFB24FEA5A0AC2D14FF00C
:10431000800B254B5B79C3F110039B4536D94FF0D9
:10432000000A0AEB0703A2453A469BB228DA039833
:104330001BB202B2934220DB04990AB293421CDA08
:104340001A4A0B981178027809B1032C06DD0798F8
:1043500002991BEA020F18BF08460CE01BEA020F85
:1043600001D0029807E00F4AB2F9062006FB02339B
:104370000F4A32F8130001F0ABFE0AF1010AD0E750
:1043800009EB0207BFB24FEA5B0BC2E701366BE7EE
:1043900001F02AFA059A561CB6B22EE70DB0BDE818
:1043A000F08F00BFD4BD0220F8B902206EC80220F1
:1043B000AEC402206CBA022001F0E8B9F8B5144688
:1043C0001E46BDF81870E4F1F1FE01F013FA002C5E
:1043D0000BDD3546002D05DD3846013D01F078FE48
:1043E0002DB2F7E7013C24B2F1E7BDE8F84001F057
:1043F000FBB90000F0B51A4CBDF814702478194DC3
:10440000194E14F0010F0DD0B5F90040A042A8BF1D
:1044100020468518A542C4BFC0EB040212B2B6F90B
:1044200000400DE0B6F90040A042A8BF2046861823
:10443000A642C8BFC0EB0402B5F90040C8BF12B223
:10444000A142A8BF2146CD18A542C8BFC1EB0403B5
:104450000597C8BF1BB2BDE8F040FFF7AFBF00BF74
:10446000CBBD022070C80220ACC402202DE9F3416C
:10447000BDF8204000941D4601230E460746904695
:10448000FFF7B8FF691E314438464246009409B22E
:104490000123FFF7AFFF384631462B460094012237
:1044A000FFF7A8FF08F1FF3808EB070000B231461C
:1044B00001222B46089402B0BDE8F041FFF79ABFF5
:1044C000F0B50E4DAE683479A24285B013D376793B
:1044D000964210D3141B0A4A2D7917680B9E00933D
:1044E0004FEA450EBDF82830019302962A460EFB8E
:1044F0000473FFF729FE05B0F0BD00BFF8B9022034
:10450000A8C40220B0F5805F034B36BF4FF40042D1
:1045100018601A60704700BF84BA0220014B002265
:104520001A60704784BA0220024B4FF400421A60AE
:10453000704700BF84BA0220014B1868704700BF63
:1045400084BA0220014B1870704700BFF6B90220F0
:10455000014B1878704700BFF6B9022038B5094DF5
:10456000044621462878E3F1DDFE0F2000F05CFFD1
:1045700020462C7001F042FC0F20BDE8384000F0CE
:1045800053BF00BFCBBD022037B50A4B0546002004
:104590001C78FFF7E3FF002001460095F0224FF45E
:1045A000A073FFF70BFF204603B0BDE83040FFF7D4
:1045B000D5BF00BFCBBD0220014B1878704700BFAC
:1045C000CBBD0220014B1860704700BFA8C4022079
:1045D00010B5A8B10B4CA060437823718378C078E4
:1045E0006371FEF727FE6379DB0706D5FEF728FE29
:1045F00002280CBF0223012300E00223024A1370A9
:1046000010BD00BFF8B90220A5C40220014B986874
:10461000704700BFF8B90220114B1A78824210B5DA
:104620001CD91C2202FB003004300E4C437823714D
:104630000D4A8378A06063718368C0781360FEF7C9
:10464000F9FD6379DB0706D5FEF7FAFD02280CBFFA
:104650000223012300E00223044A137010BD00BFAF
:10466000F4E31C08F8B90220A8C40220A5C4022063
:104670000020FFF7D1BF0000382837B504461DD110
:104680004FF6FF75002001462246F0230095FFF704
:10469000B1FE00200146F02223460095FFF7AAFE56
:1046A0000020B821F02223460095FFF7A3FE0095D5
:1046B000B82000212246F023FFF79CFE134B144A3A
:1046C0001C70C4F178046400A4B2A3B21380114A30
:1046D00019B21380022291FBF2F2043A0E4992B20F
:1046E0000A804A8000228A80CA800C4948790B805F
:1046F000241A0B484B8004800A4803800A48038030
:104700000A480280428003B030BD00BFA4C402202A
:10471000ACC4022070C80220D6C80220F8B902201A
:10472000CCBD0220F2B90220F4B90220D4BD02208F
:10473000014BB3F900007047ACC40220014BB3F940
:104740000000704770C80220014B1870704700BF0E
:104750006EC80220014B1878704700BF6EC8022057
:1047600070B54C4D2B78002B4DD002F013F84A4B0E
:104770004A4A1870411E4A4B0C292ED8DFE801F036
:10478000110C1707212D262D2D2D152D1C00454907
:1047900000208880188812E042490020888018880C
:1047A00019E018883F49404203E0188811E03D496C
:1047B0001888888000200EE03A4918888880404296
:1047C00009E01888374944428C8004E01888404248
:1047D00080B234498880C88000E018B11188013166
:1047E000118000E010803048118800782F4A52F87C
:1047F0002000D26814246043B0FBF2F291422CBF37
:10480000052201221A802A4B1A781E46002A2DD032
:10481000284C2369022B02DC6369022B26DDFFF79B
:10482000CBFE032822D8DFE800F01A0214161B4B37
:10483000B3F902202369EF329A4217DB032000F01C
:10484000BDFB2269174B043A1A806269043A5A8008
:104850000CE0636900E02369002BEFDC06E0104BFD
:10486000B3F90220636902F23F12E5E7124B1B78AD
:1048700033B1124B1B681BB1074B93F900300BB1DE
:104880002B782BB93078D0F1010038BF002070BDF3
:10489000002070BDF6B3022072C80220E0BD0220E5
:1048A00004BA0220D6C8022034C402206C641D0859
:1048B000F4B30220ECBD0220F5B3022058B202206E
:1048C000014BB3F90400704704BA0220014B586051
:1048D000704700BF04BA0220014B1889704700BF1F
:1048E00004BA0220014B1881704700BF04BA0220AD
:1048F000034B044A002808BF1846D060704700BF29
:1049000073C8022004BA0220014B93F910007047CB
:1049100004BA0220014B93F91100704704BA022037
:1049200030B5124CB4F9005020818542B8BF2080C8
:10493000104480B2B4F90050618102B29542C8BF00
:104940000A4AA081C8BF1080B4F902208A42BCBFC5
:10495000064A5180194489B2B4F90220E1810BB2B0
:104960009A42C4BF014B598030BD00BFD6C8022057
:10497000124B2DE9F041002A14BF90469846104C86
:10498000104B65889A892A440F4D07460E461889B0
:104990005989B5F802E0DB897344121A5B1AD21BFD
:1049A0009B1B00B209B212B21BB2FFF7B9FF6780BE
:1049B0006E80C4F80480BDE8F08100BFECE31C0801
:1049C000E0BD0220D6C8022004BA0220074B1A8894
:1049D000074B5B88D21A074B1988074B5B8800206E
:1049E000CB1A12B201461BB2FFF79ABFACC4022029
:1049F000E0BD022070C8022004BA0220034BB3F9C4
:104A000002001B8843EA002080B27047D6C802200B
:104A1000014B188059807047D6C802202DE9F74F06
:104A20003C4C0C9ED4F80C8092469B46A146E4F187
:104A3000BDFB394C00F0DEFE0025002E08BF2646E7
:104A40000AFB0BFB2F462C465D455EDA99F91030C8
:104A5000042B324B4FF0080204EA03032CD094FBE2
:104A6000F2F23A44002B98F80000324403DA013B9A
:104A700063F0070301331178C3F107031941C90734
:104A800048BF99F8120001920093E4F117F9019AD6
:104A9000009B127898F8010042FA03F3DA0748BF46
:104AA000B9F8120008F1020148BF000A0191E4F1CF
:104AB00005F90199884620E001920093FEF7D2FBA8
:104AC000019A009B94FBF2F2F119002B8A5C03DA45
:104AD000013B63F007030133C3F1070342FA03F319
:104AE000DB074CBFB9F81230C3B2D8B20093E4F17F
:104AF000E5F8009B180AE4F1E1F80134544505F1AA
:104B0000010504BF013700249EE703B0BDE8F04F64
:104B100000F06ABE04BA0220ECE31C080700008023
:104B200037B5054C94F91050042D03D0E468009477
:104B300001F08CF903B030BD04BA02202DE9F04138
:104B4000114E5F005743F468E4F130FB00F052FE71
:104B5000BFB20025ABB2BB4211D296F91030042B84
:104B600005D1FEF77FFBC0B2E4F1A8F805E020789C
:104B7000E4F1A4F804F1010844460135EAE7BDE890
:104B8000F04100F031BE00BF04BA02202DE9F04F21
:104B9000A44D95F910300133012B85B04FF0000979
:104BA00040F23C81A04CDFF89882A048A04901F077
:104BB000EFFFB4F800B0B4F802A0B8F80070B8F88D
:104BC0001060A4F80690A4F80490FFF7C9FD4346CE
:104BD000002800F092800393FFF7EEFC0FFA87F8AD
:104BE0000FFA86F9039B03287BD8DFE800F0025E0A
:104BF0003E1E5F869E866B68984501DDFF1A03E0C6
:104C00005A42904501DA1F44A7808A4AD21A914538
:104C100001DA33441DE06FF4F9715A184A4560DC3B
:104C200006F5FA76F31AE3805BE0B6B272425A8672
:104C30009F866B68994501DD9E1B04E05A429145B1
:104C400002DA1E447642A6807A4AD21A904503DAE6
:104C50003B4403F5FA73E6E76FF4F9729A1842459C
:104C60003FDC07F5FA77FB1ADDE7BFB27A42B6B24E
:104C70005A8672429A866B68984501DDDF1B04E014
:104C80005A42904502DA1F447F42A78003F5FA7228
:104C9000914501DD961B06E0C3F5FA72914520DAD5
:104CA0001E44C6F5FA76E6801BE0BFB27A425E8605
:104CB0009A866B68994501DDF61A03E05A429145E0
:104CC00001DA1E44A68003F5FA72904501DDD71B78
:104CD00006E0C3F5FA72904503DA1F44C7F5FA7788
:104CE000E780B5F90830B4F9042092FBF3F2A28012
:104CF000B4F9062092FBF3F3E38095F91030032B0F
:104D00000AD14D4B9B68002B00F08880B4F9040059
:104D1000B4F90610984781E02288A088E188104401
:104D200062881144228980B2208016B200B2B0425B
:104D3000BCBF3D480280A289B4F9006010B286422F
:104D4000C4BF39480280628989B2618010B209B259
:104D50008142BCBF34494A80E289B4F9020011B2F1
:104D60008842C4BF30494A80022B27D0042B25D06B
:104D7000B4F900300FFA8BF083420FFA8AF104D1B4
:104D8000294BB3F902308B4218D007222B4BEB6032
:104D90001346FFF7D3FE07221346B4F90000B4F917
:104DA0000210FFF7BDFE244BB4F900005B68B4F9B4
:104DB0000210009307221346FFF730FE95F91030DA
:104DC000042B2BD1B4F900300FFA8BF083420FFA89
:104DD0008AF104D1144BB3F902308B421ED0164E27
:104DE000164BEB60B6F90220B5F90230FFF7A6FECC
:104DF000B4F90000B4F90210B6F90220B5F9023096
:104E0000FFF78EFEB4F90000B4F902107468B6F929
:104E10000220B5F902300094FFF700FE05B0BDE8AE
:104E2000F08F00BF04BA0220D6C80220E6C80220D4
:104E3000E8C802200CFEFFFFE0BD022073C802207C
:104E4000F4C00220F7B53B4C94F91030834206467B
:104E50006DD004286AD8DFE800F0512E5C031F00F3
:104E6000354DFEF7FFF96A886388002112FB03F7CE
:104E70001FFA81FEBE4505DADFF8C4E02EF8110006
:104E80000131F5E72D496D68B1F90000B1F9021063
:104E9000009512B21BB20BE0284B274DB3F900006E
:104EA000B3F90210B5F90220B4F902306D6800952B
:104EB000FFF7B4FD3AE0214D214B1F4FB5F900003B
:104EC000B5F90210E36007221346FFF729FEB4F993
:104ED00002E07B68B5F90000B5F90210B7F90220CD
:104EE00000937346FFF79AFDB5F90000B5F902107B
:104EF000B7F90220B4F902307D68D8E7114AB2F957
:104F000000100222073991FBF2F10C4A89B211809C
:104F10005180012B0AD10A4BE360084B0722B3F9F9
:104F20000000B3F902101346FFF708FE267403B021
:104F3000F0BD00BF04BA0220E0BD0220D6C80220A6
:104F400073C80220ACC40220014B9860704700BFB8
:104F5000E0BD0220014B5882704700BF04BA022016
:104F6000014B588A704700BF04BA022000487047BE
:104F7000D6C8022070B58AB00388ADF8003001238E
:104F800000A930F8335001EB4304194634F8026DA0
:104F9000B54201F1FF3203D8668012B11146F5E740
:104FA0000A460AA901EB42020133142B22F8285CBD
:104FB000E6D1BDF814000AB070BD0000032806D881
:104FC0000123834013F00B0F1CBF014B5876704731
:104FD000ECBD0220034B58691B6943EA002080B2F4
:104FE000704700BFECBD0220014B1869704700BF3D
:104FF000ECBD0220014B5869704700BFECBD022098
:10500000034BD8689B6843EA002080B2704700BF1A
:10501000ECBD0220014B187E704700BFECBD0220A2
:10502000014B587E704700BFECBD022040F6FE7376
:105030009842034B8ABF40F6FF7298839A83704769
:1050400018BA022008B5022002F0B0FB012008BD0A
:1050500008B5022002F096FB012008BD08B5084BF8
:105060001B78012053B1FBF7AFFEFDF743FC18B9E5
:10507000FDF774FAC0B208BD012008BD08BD00BF2D
:1050800008BD02202DE9F04F9A46AE4B1B688BB04D
:105090005D6806921A6805910544B5FBF2F102FBC2
:1050A00011556A1C044653F83230198844F24D22D7
:1050B000914206D1DA8822B95F8ADE8A3F0A360A2F
:1050C00001E03C2637460223C7F13C08C6F1500BED
:1050D00098FBF3F89BFBF3FBFFF72AFB0790FFF726
:1050E0002DFB994B99491A780992F0220A80984928
:1050F00008900A8000221A70FFF75EFA032800F277
:105100004B81DFE810F004004C009E00F300C4EB7C
:10511000041C4FEA8C0C1FFA8CF94FF6FF730093B6
:105120000FFA89F0F0213C225023FFF747F9DFF80E
:1051300014E23FB233B2681CDEF80060009709EB5E
:1051400008010BF1F002BAF1000F09D0059F019799
:10515000069F029756F8300009B2FEF791F804E076
:1051600056F8300009B2FEF7DAF93C20604300F14E
:105170003B06F02141F6C6070B4600973246FDF785
:10518000BDFF704B1B681B68013B9D4200F0048112
:1051900000973046F021324640F23F13FAE0DFF844
:1051A000A491D9F800301B681B1B013BC3EB031310
:1051B00099004FF6FF730093F02009B250223C2370
:1051C000FFF7FCF83BB2D9F800703A68121B013ABD
:1051D00036B2C2EB0212681C0BF1F00108EB82023E
:1051E0000096BAF1000F09D0059E0196069E029620
:1051F00057F8300012B2FEF743F804E057F83000D9
:1052000012B2FEF78CF9D9F800301968091B3C2757
:1052100001397943F02041F6C6060246CB190096C3
:10522000FDF76CFFD9F800301B685A1E954200F05C
:10523000B380191B0139794300964FF4A070F02216
:10524000A7E0DFF80091D9F800301B681B1B013B79
:10525000C3EB031398004FF6FF73009300B26FF097
:105260004F013C225023FFF7A9F833B2D9F8006070
:105270003168091B01393FB2C1EB0111681CABF168
:10528000500208EB81010097BAF1000F09D0059F89
:105290000197069F029756F8300009B2FDF7F0FF1C
:1052A00004E056F8300009B2FEF739F9D9F80030B9
:1052B0001868001B3C27013878434FF0FF3141F656
:1052C000C606C2190B460096FDF718FFD9F8003044
:1052D0001B685A1E95425FD0181B01387843009610
:1052E0006FF04F0102464FF0FF3353E0C4EB041C54
:1052F0004FEA8C0C1FFA8CFC4FF6FF730FFA8CF1FF
:1053000000936FF04F0050223C23CDF810C0FFF700
:1053100055F80C4ADDF810C012683FB2681C33B271
:10532000ABF15001E0440097BAF1000F12D0059E96
:10533000069F0196029752F830000FFA88F2FDF7A7
:105340009FFF0DE02CBE0220A4C40220ACC40220AA
:1053500070C8022052F830000FFA88F2FEF7DFF82A
:105360003C21614301F13B064FF0FF3041F6C60797
:10537000334600970246FDF7C1FE0D4B1B681B68C4
:10538000013B9D4208D000974FF0FF3031466FF04F
:105390004F020B46FDF7B2FE064B079E1E80064BE2
:1053A000089F1F80099E054B1E700BB0BDE8F08F53
:1053B0002CBE0220ACC4022070C80220A4C402206B
:1053C0004FF6FF710A460023FFF75CBE38B54FF673
:1053D000FF714EF2070201230446FFF753FE01F06E
:1053E000B7FA30B94FF4DC7002F08EFA022002F006
:1053F000CDFA0C4D2B685A68A0181A68B0FBF2F46D
:1054000002FB14040134E40023445B684BB1FAF757
:10541000DDFE2B681C4463689847BDE83840FAF706
:10542000DDBE38BD2CBE0220024B1A681043186046
:10543000704700BFECC80220024B18600F20FFF736
:10544000F3BF00BF2CBE02201020FFF7EDBF00000D
:10545000054B1B6803EBC0039960DA60012303FA74
:1054600000F0FFF7E1BF00BF2CBE0220F7B5424CB1
:105470002668FFF7D5FD02287CD0FFF7CBFDB8B139
:105480003E4B9A68DB68F02B63DD3C2392FBF3F222
:105490003B4B22601B681B689342DCBF03F1FF3368
:1054A00023602368002B57DA334B00221A6053E045
:1054B000344F334D3B68002B49D01B092ED0231DA0
:1054C0002B60314B31491B78314A83B1FFF7C0FF64
:1054D00001203049304AFFF7BBFF3049304A0220F3
:1054E000FFF7B6FF02F046F92E4B2F490FE0FFF70A
:1054F000AFFF01202D49284AFFF7AAFF2C49284A6F
:105500000220FFF7A5FF02F035F92A4B2A490028AF
:1055100018BF1946294A0320FFF79AFF3B6818076E
:1055200002D100233B6012E0002301932B68019A13
:105530001B689A42F5DA019A3B681341D90703D5F3
:10554000019880B2FFF73CFF019B0133EDE7AB68A8
:105550006B604FF0FF33236023689E420AD0721CB9
:1055600002D0B0B2FFF72CFF2068431C02D080B2FB
:10557000FFF72CFF03B0F0BD38BA0220ECBD0220CB
:105580002CBE0220ECC80220A0BA02208CC91D0843
:105590005D500008DA861D0845500008207B1D0874
:1055A000515000087A6F1D0884641D08AABB1D08AD
:1055B00098AD1D08809F1D0836921D08C155000832
:1055C00008B502F0D7F8D0F1010038BF002002F092
:1055D000B3F80A4B1B7823B102F0CCF8084B094909
:1055E00003E002F0C7F8084B0849002818BF194625
:1055F000074A0320FFF72CFF012008BDA0BA0220B4
:105600007A6F1D0884641D08809F1D0836921D084E
:10561000C155000870470846704700002DE9F34166
:10562000284C294E2020012104F064FB4023002552
:1056300000932046022369468DF804308DF805302A
:105640008DF806508DF8075004F00EFA032220461C
:10565000062104F054FA1D4C01214FF4003004F0EF
:105660006DFB3046E6F128FF04F10C082046E7F117
:105670001BF94046E7F10EF94FF6FF73304621461D
:105680006360258025816580E7F1C6F86023A381EA
:105690000F4B25831B686361012730464146E78134
:1056A000E6F1B4FF30462946E7F1A2F83046394624
:1056B000E7F1A6F830463946E7F1FFF802B0BDE859
:1056C000F08100BF001402400044014054BE02209B
:1056D00084BA02200C4B1B7813F0010F10B50B4B52
:1056E0000CD001221A624FF0C042002414701070D6
:1056F00002F580220C0A1470CCB2147083F82400D6
:1057000003EB4000C18410BD6CBA022054BE0220DD
:105710000C4B1B7803F0020202F0FF0122B10A4B8E
:1057200003EB4000C08C7047DB070AD54FF0C04345
:105730001970187003F5802318781B7843EA00204D
:10574000704770476CBA022054BE022008B5082189
:1057500000220C4804F0CEF94FF49670FBF7A6F93E
:1057600008480821012204F0C5F96420FBF79EF9DE
:105770000023054A002199520233B3F5007FF8D186
:1057800008BD00BF000C02407ABE0220034B044952
:105790001B684B6103480C31E6F138BF84BA022024
:1057A00054BE02200044014007B50C4B0C4AB3F92B
:1057B0000010B2F900200B480223AE3AB43991FB35
:1057C000F3F192FBF3F3AE22009209B21AB2B423C2
:1057D000FDF7A5FE03B05DF804FB00BFACC40220DA
:1057E00070C8022028051D08014B01221A6270476B
:1057F00054BE0220024B012222201A62E3F11CB99E
:1058000054BE0220024B012203201A62E3F114B9B4
:1058100054BE02202DE9F0430120A1B00146684D9D
:10582000684F04F073FA0820012104F063FA20AEF7
:1058300010200121002404F05DFA4FF002084CF220
:1058400003032846694646F8803D8DF804808DF8AC
:1058500006408DF807408DF8058004F005F94FF4F7
:10586000F06338466946009304F0FEF828460E219E
:105870000C2204F044F928460F210C2204F03FF9D1
:10588000284621460C2204F03AF9284601210C2230
:1058900004F035F9384607210C2204F030F9384677
:1058A00008210C2204F02BF9384609210C2204F0BF
:1058B00026F90C2238460A2104F021F9082001219A
:1058C00004F018FA42F2300328466946009304F0C7
:1058D000CBF8284604210C2204F011F928460521B2
:1058E0000C2204F00CF90C2228460D2104F007F9D3
:1058F0000820012104F0FEF9802328466946009320
:1059000004F0B2F80C222846072104F0F8F8082029
:10591000012104F0EFF901274FF0080928466946F4
:10592000CDF800908DF804708DF806408DF8074092
:105930008DF8058004F098F83A462846494604F068
:10594000D9F83946384604F0E1F90923029703945F
:1059500004930323059406940794089409940A94E5
:105960000B9305230C94CDF834800E934FF04053E5
:105970000F934FF480531094119412941394149431
:105980001B9415941694179418934FF4804319940C
:105990001A934FF480131C941D930DEB09031E936F
:1059A00010A809AB1F9303F04BFF3946204603F0C4
:1059B000B9FF02F0F9FEE3F15BF821B0BDE8F08336
:1059C000000C02400010024010B50C46E3F176F9DD
:1059D0002046E3F173F9024B01221A6210BD00BFA9
:1059E00054BE022010B5144601221346E3F1DEFB3B
:1059F0002220E3F121F8E0B2E3F160F9200ABDE8EA
:105A00001040E3F15BB908B510200021FFF762FEFA
:105A100011200721FFF75EFE12200021FFF75AFE3A
:105A200000211320FFF756FEC820FBF73FF8102097
:105A300041F29061FFF74EFE40F221211120FFF765
:105A400049FE3220FBF732F818211220FFF742FE00
:105A50003220FBF72BF813204FF4C051FFF73AFE2A
:105A600029202A21FFF736FE2B200B21FFF732FEDB
:105A70003220BDE80840FBF719B808B530200421F2
:105A8000FFF728FE31200721FFF724FE32200621F0
:105A9000FFF720FE352040F20621FFF71BFE3620DF
:105AA0004FF48161FFF716FE372040F20751FFF7F0
:105AB00011FE38204FF40071FFF70CFE392040F240
:105AC0000771FFF707FE3C2040F20451FFF702FE8A
:105AD0003D2040F60271BDE80840FFF7FBBD08B568
