:020000040800F2
:10C0000070DA0008E5C7000819CB0008030000003B
:10C0100081F0004102E000BF83F0004330B54FEAF9
:10C0200041044FEA430594EA050F08BF90EA020F66
:10C030001FBF54EA000C55EA020C7FEA645C7FEAF9
:10C04000655C00F0E2804FEA5454D4EB5555B8BF1C
:10C050006D420CDD2C4480EA020281EA030382EA8D
:10C06000000083EA010180EA020281EA0303362D1F
:10C0700088BF30BD11F0004F4FEA01314FF4801CF2
:10C080004CEA113102D0404261EB410113F0004F04
:10C090004FEA03334CEA133302D0524263EB4303BB
:10C0A00094EA050F00F0A780A4F10104D5F1200E59
:10C0B0000DDB02FA0EFC22FA05F2801841F10001B4
:10C0C00003FA0EF2801843FA05F359410EE0A5F188
:10C0D00020050EF1200E012A03FA0EFC28BF4CF0B9
:10C0E000020C43FA05F3C01851EBE37101F000456F
:10C0F00007D54FF0000EDCF1000C7EEB00006EEB7C
:10C100000101B1F5801F1BD3B1F5001F0CD3490805
:10C110005FEA30004FEA3C0C04F101044FEA44525C
:10C1200012F5800F80F09A80BCF1004F08BF5FEAE3
:10C13000500C50F1000041EB045141EA050130BDC3
:10C140005FEA4C0C404141EB010111F4801FA4F166
:10C150000104E9D191F0000F04BF01460020B1FABB
:10C1600081F308BF2033A3F10B03B3F120020CDAF3
:10C170000C3208DD02F1140CC2F10C0201FA0CF0D1
:10C1800021FA02F10CE002F11402D8BFC2F1200C36
:10C1900001FA02F120FA0CFCDCBF41EA0C019040EC
:10C1A000E41AA2BF01EB0451294330BD6FEA040435
:10C1B0001F3C1CDA0C340EDC04F11404C4F1200220
:10C1C00020FA04F001FA02F340EA030021FA04F332
:10C1D00045EA030130BDC4F10C04C4F1200220FA89
:10C1E00002F001FA04F340EA0300294630BD21FAC7
:10C1F00004F0294630BD94F0000F83F4801306BF8D
:10C2000081F480110134013D4EE77FEA645C18BF80
:10C210007FEA655C29D094EA050F08BF90EA020F17
:10C2200005D054EA000C04BF1946104630BD91EA0F
:10C23000030F1EBF0021002030BD5FEA545C05D112
:10C240004000494128BF41F0004130BD14F5800451
:10C250003CBF01F5801130BD01F0004545F0FE41C5
:10C2600041F470014FF0000030BD7FEA645C1ABFFA
:10C27000194610467FEA655C1CBF0B46024650EA31
:10C28000013406BF52EA033591EA030F41F400215D
:10C2900030BD00BF90F0000F04BF0021704730B5E3
:10C2A0004FF4806404F132044FF000054FF00001B8
:10C2B00050E700BF90F0000F04BF0021704730B579
:10C2C0004FF4806404F1320410F0004548BF40424E
:10C2D0004FF000013EE700BF42004FEAE2014FEAA3
:10C2E00031014FEA02701FBF12F07F4393F07F4F7E
:10C2F00081F06051704792F0000F14BF93F07F4FB0
:10C30000704730B54FF4607401F0004521F00041F2
:10C3100020E700BF50EA010208BF704730B54FF078
:10C3200000050AE050EA010208BF704730B511F07D
:10C33000004502D5404261EB41014FF4806404F1B5
:10C3400032045FEA915C3FF4DCAE4FF003025FEA37
:10C35000DC0C18BF03325FEADC0C18BF033202EBBF
:10C36000DC02C2F1200300FA03FC20FA02F001FA19
:10C3700003FE40EA0E0021FA02F11444C1E600BFB8
:10C3800070B54FF0FF0C4CF4E06C1CEA11541DBF6B
:10C390001CEA135594EA0C0F95EA0C0F00F0DEF836
:10C3A0002C4481EA030621EA4C5123EA4C5350EA1B
:10C3B000013518BF52EA033541F4801143F480136C
:10C3C00038D0A0FB02CE4FF00005E1FB02E506F0FD
:10C3D0000042E0FB03E54FF00006E1FB03569CF052
:10C3E000000F18BF4EF0010EA4F1FF04B6F5007F58
:10C3F00064F5407404D25FEA4E0E6D4146EB0606CA
:10C4000042EAC62141EA55514FEAC52040EA5E5052
:10C410004FEACE2EB4F1FD0C88BFBCF5E06F1ED8FC
:10C42000BEF1004F08BF5FEA500E50F1000041EB33
:10C43000045170BD06F0004646EA010140EA0200E0
:10C4400081EA0301B4EB5C04C2BFD4EB0C0541EA02
:10C45000045170BD41F480114FF0000E013C00F317
:10C46000AB8014F1360FDEBF002001F0004170BD3B
:10C47000C4F10004203C35DA0C341BDC04F1140454
:10C48000C4F1200500FA05F320FA04F001FA05F2E0
:10C4900040EA020001F0004221F0004110EBD370AD
:10C4A00021FA04F642EB06015EEA430E08BF20EAD9
:10C4B000D37070BDC4F10C04C4F1200500FA04F37C
:10C4C00020FA05F001FA04F240EA020001F000410E
:10C4D00010EBD37041F100015EEA430E08BF20EA81
:10C4E000D37070BDC4F1200500FA05F24EEA020EC9
:10C4F00020FA04F301FA05F243EA020321FA04F0F8
:10C5000001F0004121FA04F220EA020000EBD370AE
:10C510005EEA430E08BF20EAD37070BD94F0000FAE
:10C520000FD101F00046400041EB010111F4801FE2
:10C5300008BF013CF7D041EA060195F0000F18BF93
:10C54000704703F00046520043EB030313F4801FCF
:10C5500008BF013DF7D043EA0603704794EA0C0F89
:10C560000CEA135518BF95EA0C0F0CD050EA41069F
:10C5700018BF52EA4306D1D181EA030101F000411C
:10C580004FF0000070BD50EA410606BF1046194644
:10C5900052EA430619D094EA0C0F02D150EA013650
:10C5A00013D195EA0C0F05D152EA03361CBF104691
:10C5B00019460AD181EA030101F0004141F0FE4130
:10C5C00041F470014FF0000070BD41F0FE4141F4B4
:10C5D000780170BD70B54FF0FF0C4CF4E06C1CEAB4
:10C5E00011541DBF1CEA135594EA0C0F95EA0C0F69
:10C5F00000F0A7F8A4EB050481EA030E52EA033524
:10C600004FEA013100F088804FEA03334FF0805544
:10C6100045EA131343EA12634FEA022245EA111571
:10C6200045EA10654FEA00260EF000419D4208BF22
:10C63000964244F1FD0404F5407402D25B084FEACF
:10C640003202B61A65EB03055B084FEA32024FF47B
:10C6500080104FF4002CB6EB020E75EB030E22BFD8
:10C66000B61A754640EA0C005B084FEA3202B6EB98
:10C67000020E75EB030E22BFB61A754640EA5C0047
:10C680005B084FEA3202B6EB020E75EB030E22BFD7
:10C69000B61A754640EA9C005B084FEA3202B6EBD8
:10C6A000020E75EB030E22BFB61A754640EADC0097
:10C6B00055EA060E18D04FEA051545EA16754FEAF9
:10C6C00006164FEAC30343EA52734FEAC2025FEA17
:10C6D0001C1CC0D111F4801F0BD141EA00014FF0A6
:10C6E00000004FF0004CB6E711F4801F04BF014377
:10C6F0000020B4F1FD0C88BFBCF5E06F3FF6AFAE93
:10C70000B5EB030C04BFB6EB020C5FEA500C50F122
:10C71000000041EB045170BD0EF0004E4EEA1131A5
:10C7200014EB5C04C2BFD4EB0C0541EA045170BDAC
:10C7300041F480114FF0000E013C90E645EA060EF0
:10C740008DE60CEA135594EA0C0F08BF95EA0C0F1E
:10C750003FF43BAF94EA0C0F0AD150EA01347FF466
:10C7600034AF95EA0C0F7FF425AF104619462CE73D
:10C7700095EA0C0F06D152EA03353FF4FDAE1046A0
:10C78000194622E750EA410618BF52EA43067FF4F1
:10C79000C5AE50EA41047FF40DAF52EA43057FF481
:10C7A000EBAE12E74A0011D212F5001211D20DD5EC
:10C7B0006FF47873B3EB62520ED44FEAC12343F0A7
:10C7C000004343EA505323FA02F070474FF0000051
:10C7D000704750EA013002D14FF0FF3070474FF000
:10C7E0000000704710B5002103E00C4BCB580B50F4
:10C7F00004310B480B4B0A189A42F6D30A4A02E05E
:10C80000002342F8043B094B9A42F9D34FF480735A
:10C810001A68074B1A6000F0C1F810BDE0DB000891
:10C82000000000203803002038030020B40400205A
:10C83000B004002080B582B000AF504B1B68591C7B
:10C840004E4A11604E4A9288B3FBF2F102FB01F2AC
:10C850009B1A002B00D08EE0494B9B79002B02D015
:10C86000012B03D010E000F06BFC0DE000F068FC41
:10C87000434BDB897B6000BF7B685A1E7A60002BCC
:10C88000FAD100F05DFC00BF3E4B1B78032B72D841
:10C8900001A252F823F000BFA9C80008E1C80008AF
:10C8A00049C9000819C90008374B1B68D3F8803103
:10C8B000012001219847344B1B68D3F880310020B8
:10C8C00000219847314B1A68314B1B889A4206D396
:10C8D0002C4B02221A702F4B00221A604BE04AE0C8
:10C8E000294B1B68D3F88031012000219847264B43
:10C8F0001B68D3F88031002001219847234B1A6828
:10C90000254B1B889A4206D81E4B03221A70214BD6
:10C9100000221A602FE02EE01C4B1A681E4B1B8869
:10C920009A4203D9174B01221A700CE0194B1B686D
:10C930005A1C184B1A60174B1B680A2B03D1114B5A
:10C9400000221A7017E016E0104B1A68104B1B8873
:10C950009A4203D20B4B00221A700BE00D4B1B685E
:10C960005A1C0C4B1A600B4B1B680A2B02D1054B4F
:10C9700001221A7000BF0837BD4680BD9C0400200C
:10C980003C0300206C030020B0040020640300205E
:10C990006E030020A00400207003002080B586B044
:10C9A00000AF534B1B68D3F8503100209847504BD1
:10C9B0001B68D3F8343304200A2198474C4B1B687A
:10C9C000D3F8B8320A209847494B1B68D3F8EC32A9
:10C9D000484A0D2011469847454B1B68D3F834331D
:10C9E0000D2001219847424B1B68D3F8C032052027
:10C9F00098473F4B1B68D3F830310120984700F02F
:10CA0000B3FE00F0DBFE00F063FA0020002100F02E
:10CA1000A7FC394B00221A70384B00221A70384B91
:10CA200096221A80374BAA221A80314B1B68D3F802
:10CA3000DC32984703469AB2334B1A802C4B1B6862
:10CA4000D3F800330020002100229847284B1B68B0
:10CA5000D3F840320220984704233B7000237B70B8
:10CA60000123BB700023FB7000233B7100237B710B
:10CA70000023BB71254BBB608023FB60244B3B61D3
:10CA800080237B611A4B1B68D3F820323A46212061
:10CA9000114600229847164B1B68D3F82032082015
:10CAA000042100229847124B1B68D3F82432082037
:10CAB0000121002298470E4B1B68D3F82032232017
:10CAC0000021002298470C4B02221A7003200021FB
:10CAD00000F046FC064B1B68D3F828330D4A4FF490
:10CAE000FA6011469847042318461837BD4680BDA2
:10CAF000B004002035C80008380300206C03002073
:10CB00006E030020700300207203002074030020D5
:10CB1000F4030020BDCB000880B500AF224B1B788A
:10CB2000012B03D0022B0FD0002B0FE01F4B1B68F3
:10CB3000D3F80432002098471B4B00221A700220C1
:10CB4000002100F00DFC01E001232AE0012000217A
:10CB500000F006FC154B1B68D3F8DC3298470346FF
:10CB60009AB2134B1A80134B1B685A1C114B1A6054
:10CB70000E4B1B68D3F8003298470346DBB25BB21A
:10CB8000012B0DD1094B1B68D3F80C329847074B8A
:10CB90001B68D3F88032084A10469847032300E008
:10CBA0000123184680BD00BF38030020B0040020D8
:10CBB00072030020A40400200000002080B500AF14
:10CBC000034B00221A700020002100F0C9FB80BD39
:10CBD0003803002080B500AF044B1B68D3F88032C7
:10CBE000034A104698470323184680BDB00400202E
:10CBF000A400002080B500AF044B1B68D3F880323E
:10CC0000034A104698470323184680BDB00400200D
:10CC10004801002080B500AF0B4B1A8840F63B73EB
:10CC20009A4207D9094B1B68D3F88032084A10464C
:10CC3000984706E0054B1B68D3F88032054A10463A
:10CC400098470323184680BD72030020B0040020DB
:10CC5000EC0100209002002080B500AF054B0122BE
:10CC60001A7000F035F9044B01221A70042318469B
:10CC700080BD00BF3C0300203803002080B500AF1A
:10CC8000054B02221A7000F023F9044B01221A709E
:10CC90000423184680BD00BF3C0300203803002059
:10CCA00080B500AF054B03221A7000F011F9044B58
:10CCB00001221A700423184680BD00BF3C030020E7
:10CCC0003803002080B500AF054B01225A7000F0F8
:10CCD000FFF8044B01221A700423184680BD00BFE0
:10CCE0003C0300203803002080B500AF054B022232
:10CCF0005A7000F0EDF8044B01221A700423184614
:10CD000080BD00BF3C0300203803002080B500AF89
:10CD1000054B03225A7000F0DBF8044B01221A7015
:10CD20000423184680BD00BF3C03002038030020C8
:10CD300080B500AF054B04225A7000F0C9F8044BCF
:10CD400001221A700423184680BD00BF3C03002056
:10CD50003803002080B500AF054B01229A7000F027
:10CD6000B7F8044B01221A700423184680BD00BF97
:10CD70003C0300203803002080B500AF054B0222A1
:10CD80009A7000F0A5F8044B01221A70042318468B
:10CD900080BD00BF3C0300203803002080B500AFF9
:10CDA000054B03229A7000F093F8044B01221A708D
:10CDB0000423184680BD00BF3C0300203803002038
:10CDC00080B500AF00F0D6FC034B1B68D3F84033AE
:10CDD0009847184680BD00BFB004002080B500AF62
:10CDE0002B4B01221A702B4B1B68D3F80C3298473F
:10CDF000284B1B68D3F8043201209847254B1B6849
:10CE0000D3F844319847234B1B68D3F830310120C5
:10CE10009847204B1B68D3F8903298471D4B1B68EE
:10CE2000D3F8803098471B4B1B68D3F8A8300120FB
:10CE30009847184B1B68D3F884309847154B1B68EC
:10CE40009B6901209847134B1B68D3F8C03203201D
:10CE50009847104B1B68D3F8EC320D2000219847FF
:10CE60000C4B1B68D3F88031002000219847094BF8
:10CE70001B68D3F8803101200021984700F07AFC2C
:10CE8000044B1B68D3F8A83298470346184680BD68
:10CE900038030020B004002080B400AF044B01220E
:10CEA0001A7006231846BD465DF8047B704700BF24
:10CEB0003803002080B400AF044B01221A70042311
:10CEC0001846BD465DF8047B704700BF380300205C
:10CED00080B500AF964B5B78013B032B41D801A294
:10CEE00052F823F0F5CE00080FCF00082BCF000832
:10CEF00047CF00088E4BC822DA828D4B32229A83AC
:10CF00008B4B00225A848A4BC8229A8129E0884B95
:10CF10000022DA82864B32229A83854B32225A844F
:10CF2000834B4FF4C8729A811BE0814B3222DA8224
:10CF30007F4B32229A837E4B32225A847C4B4FF4B1
:10CF4000C8729A810DE07A4B4FF4C872DA82784B3E
:10CF500000229A83764B00225A84754B64229A8170
:10CF600000BF734B1B8A06EE903AF8EE667A17EE16
:10CF7000900AFFF7B1F902460B46104619464FF0EA
:10CF800000026C4BFFF7FCF902460B4610461946AF
:10CF9000FFF708FC03469AB2654B5A82644BDB8A62
:10CFA00007EE103AF8EE477A17EE900AFFF794F979
:10CFB00002460B46104619464FF000025D4BFFF744
:10CFC000DFF902460B4610461946FFF7EBFB034616
:10CFD0009AB2574B1A83564B9B8B06EE903AF8EE5B
:10CFE000667A17EE900AFFF777F902460B4610466D
:10CFF00019464FF000024F4BFFF7C2F902460B46AD
:10D0000010461946FFF7CEFB03469AB2484BDA8327
:10D01000474B5B8C07EE103AF8EE477A17EE900A12
:10D02000FFF75AF902460B46104619464FF0000228
:10D03000404BFFF7A5F902460B4610461946FFF78D
:10D04000B1FB03469AB23A4B9A84394B9B8906EE60
:10D05000903AF8EE667A17EE900AFFF73DF902462D
:10D060000B46104619464FF00002324BFFF788F985
:10D0700002460B4610461946FFF794FB03469AB248
:10D080002B4BDA812A4B1B78022B0AD0032B0FD0B3
:10D09000012B14D1264B03229A80254B00229A7132
:10D0A0000DE0234B03229A80214B01229A7106E066
:10D0B0001F4B01229A801E4B00229A7100BF1C4B0D
:10D0C0009B78022B08D0032B0BD0012B0ED1184BD1
:10D0D0004FF07E529A6009E0154B4FF07D529A60F6
:10D0E00004E0134B4FF07C529A6000BF104B93ED5D
:10D0F000027A114B1B8806EE903AF8EE667ADFED65
:10D100000F6AC6EEA77A67EE277A094BC3ED027A5B
:10D11000074B93ED027AF7EE007AB4EEE77AF1EE80
:10D1200010FA03DD024B4FF07E529A6080BD00BFC3
:10D130003C03002000002E407203002000407B458D
:10D1400080B584B000AF40F2DC53BB6003237B604A
:10D150003B4B9B680220194600F078F8384B5B8AFD
:10D16000FB6000BFFB685A1EFA60002BFAD1344BFB
:10D170001B8B002B39D0324B9B680020194600F0E6
:10D1800065F8304B1B68D3F828323A462320114605
:10D19000002298473A68BB689A4206D22A4B00227E
:10D1A0001A60294B00221A7116E03A6840F6FF73A4
:10D1B0009A4206D1244B00221A60234B01221A7195
:10D1C0000AE03A68BB68D21A7B68B2FBF3F21E4BE6
:10D1D0001A601D4B00221A71194B1B8BFB6000BF9C
:10D1E000FB685A1EFA60002BFAD1154B9B6802208F
:10D1F000194600F02BF8124BDB8BFB6000BFFB687D
:10D200005A1EFA60002BFAD10D4B9B8C002B0ED0CE
:10D210000B4B9B680420194600F018F8084B9B8CB8
:10D22000FB6000BFFB685A1EFA60002BFAD1044B6A
:10D230009B680220194600F009F81037BD4680BDF2
:10D240003C030020B00400206403002080B584B0BB
:10D2500000AF03463960FB710123FB60FB79042BAF
:10D2600058D801A252F823F07DD20008A1D20008BC
:10D27000C5D20008CDD20008F1D2000897ED007A9F
:10D28000DFED327A27EE277ADFED317A77EE277AF3
:10D29000FCEEE77A17EE903ADAB22E4B1A7039E0CC
:10D2A00097ED007ADFED2C7A27EE277ADFED287AEA
:10D2B00077EE277AFCEEE77A17EE903ADAB2254B52
:10D2C0001A7027E0234B3F221A7023E097ED007A73
:10D2D000DFED217A67EE277A9FED1D7A77EE677A88
:10D2E000FCEEE77A17EE903ADAB21A4B1A7011E0B8
:10D2F00097ED007ADFED167A67EE277A9FED147AC4
:10D3000077EE677AFCEEE77A17EE903ADAB2114BD5
:10D310001A7000BF114B1B68D3F82432082000217B
:10D32000002298470D4B1B68D3F82432094907F1B6
:10D330000C0221209847094B1B68D3F8243208209F
:10D340000121002298471037BD4680BD0000804271
:10D3500000007C42A804002000000042B00400202D
:10D3600090B58FB002AF02460B46FA71BB8008231E
:10D37000FB85984BBB62FB79032B00F2E58101A290
:10D3800052F823F095D3000813D4000895D3000871
:10D390009FD60008904B01221A70904B00221A80F1
:10D3A0008F4B1B68D3F8A830012098478C4B1B6823
:10D3B000D3F8B0304FF6FF709847894B1B68D3F80D
:10D3C000B83048F201009847854B1B68D3F81841E4
:10D3D00048F20103009300200021F0221E23A04701
:10D3E0007F4B1B68D3F8184146F2081300930020C6
:10D3F0001E21F0229623A047794B1B68D3F81841D1
:10D400004FF4885300930020B421F0223C23A0471E
:10D410009AE1744B1B79002B03D0734B01221A70D5
:10D420000EE0724B1B78002B03D0704B1B78022B45
:10D4300003D16D4B02221A7002E06B4B03221A706B
:10D44000694B1A786A4B1B789A4204D1664B1B7859
:10D45000032B00D078E1644B1A78654B1A70604B4F
:10D460001B68D3F84032002098475D4B1B68D3F807
:10D4700018414FF4885300930020B421F0223C233C
:10D48000A047594B1B78012B13D107F10802594BC8
:10D4900014460FCB07C42370514B1B68D3F840329E
:10D4A000012098474E4B1B68D3F8A83002209847BC
:10D4B00027E04D4B1B78022B10D107F108024E4B91
:10D4C00014460FCB07C4238002341B0C2370444B3B
:10D4D0001B68D3F8A8300220984712E0404B1B6825
:10D4E000D3F8CC4207F108023E4B1B6810461946A0
:10D4F00004220023A0473A4B1B68D3F8A83004202D
:10D500009847374B1B68D3F8B0304EF2FF0098476E
:10D51000334B1B68D3F8B8304FF488509847304BE2
:10D520001B68D3F8DC4007F10803002200920022B8
:10D5300001920020B4211A460023A047284B1B6803
:10D54000D3F8A83001209847254B1B68D3F8B0309A
:10D550004FF6FF709847224B1B68D3F8B83048F25B
:10D5600001009847214B1B78032B00F2878001A212
:10D5700052F823F085D50008ADD5000885D5000800
:10D58000ADD50008144B1B78002B0BD0144B1B6837
:10D59000D3F8184146F20813009300201E21F02210
:10D5A0009623A0470C4B00221A7067E00A4B1B78A9
:10D5B000012B23D00A4B1B68D3F8184146F20813FD
:10D5C000009300201E21F0229623A047034B002247
:10D5D0001A8047E09A99193E34030020AA040020DB
:10D5E000B004002064030020AC0400206C03002081
:10D5F000AD0400204CDB00085CDB0008544B1B68CA
:10D6000007EE903AB8EE677AD7ED0A7A67EE277A96
:10D61000FCEEE77A17EE903AFB844E4B1B68D3F88A
:10D6200018414D4B1B881A46FB8D4FF6FF71009138
:10D6300010461E211A469623A047464B1B68D3F876
:10D640001841454B1B881946FA8DFB8CF820009039
:10D6500008461E21A047404B1A88FB8D13449AB2FE
:10D660003D4B1A803D4B01221A703B4B1B88F02B1F
:10D6700003D93A4B00221A70FFE700BF354B1B68F5
:10D68000D3F8DC4000F0DCF80346002200920222CE
:10D69000019208200A211A460023A04754E02D4B8E
:10D6A0001B68D3F8A830022098472A4B1B68D3F890
:10D6B000B0304EF207009847264B1B68D3F818414C
:10D6C00040F6FC03009300200021F022F023A04745
:10D6D000204B1B68D3F8DC40214B01220092012231
:10D6E00001920020B4211A464FF0FF33A047194B96
:10D6F0001B68D3F8A83001209847164B1B68D3F855
:10D70000DC40184B01220092012201920020A0214E
:10D710001A464FF0FF33A0470E4B1B68D3F8A830D2
:10D72000012098470B4B1B68D3F8DC4000F05AF9F6
:10D7300003460022009201220192002064211A4631
:10D740004FF0FF33A04700BF3437BD4690BD00BF48
:10D7500064030020B0040020AA0400203403002049
:10D760006CDB000874DB000880B400AFBD465DF8D8
:10D77000047B704780B500AF0E4B1B68D3F8D832DE
:10D780000D4A12780720114698470A4B1B68D3F8B8
:10D79000D832094A5278082011469847054B1B6831
:10D7A000D3F8D832044A927809201146984700BF2E
:10D7B00080BD00BFB00400203C03002080B584B0D1
:10D7C00000AF1D4B1B68D3F8D43207209847F86090
:10D7D000194B1B68D3F8D43208209847B860164B11
:10D7E0001B68D3F8D432092098477860FB68002B77
:10D7F00004D0FB68DAB2114B1A7002E00F4B012221
:10D800001A70BB68002B04D0BB68DAB20B4B5A709D
:10D8100002E00A4B01225A707B68002B04D07B681F
:10D82000DAB2064B9A7002E0044B01229A7000BFF4
:10D830001037BD4680BD00BFB00400203C0300206F
:10D8400090B58BB000AF584B1B78022B06D0032B42
:10D8500007D0012B08D1554B7B6205E0544B7B620E
:10D8600002E0544B7B6200BF4F4B5B78013B032BC4
:10D8700016D801A252F823F089D800088FD80008E2
:10D8800095D800089BD800084B4B3B6208E04B4BF7
:10D890003B6205E04A4B3B6202E04A4B3B6200BF01
:10D8A000414B9B78022B06D0032B07D0012B08D1CC
:10D8B000454BFB6105E0454BFB6102E0444BFB61DE
:10D8C00000BF444B1B68D3F8043307F1100007F185
:10D8D0000C0107F1080298473E4B1B68D3F8CC4275
:10D8E0003A1DFB681046194602220123A047394B16
:10D8F0001B68D3F8CC423A46BB6810461946022250
:10D900000123A04707F114023B1D013310461946BD
:10D9100000F09DF807F11403184600F0A0F8034644
:10D9200007F1140213442C4A12881A8007F11402DA
:10D930003B4601331046194600F07CF82748796AC7
:10D9400000F085F8254800F08AF803461A46234B74
:10D950001344234A106818602048396A00F06AF8B6
:10D960001E4800F07CF803461A461C4B13441C4A20
:10D97000106818601948F96900F05CF8174800F061
:10D980006EF803461A46154B1344154A1068186082
:10D9900007F114031148194600F04CF80F4B1846D4
:10D9A0002C37BD4690BD00BF3C0300207CDB000847
:10D9B00084DB00088CDB000894DB00089CDB00089B
:10D9C000A4DB0008ACDB0008B4DB0008B8DB00080F
:10D9D000BCDB0008B0040020C0DB00087C04002091
:10D9E000C4DB000880B582B000AF0E4B1B68D3F8D3
:10D9F000DC3298470346FB800B4B0C4A07CA03C333
:10DA00001A800233120C1A70FB88B3F57A6F04D2B5
:10DA1000054B074A07CA83E80700034B1846083737
:10DA2000BD4680BDB004002074040020C8DB00089F
:10DA3000D4DB000810B50446224601341378002BCD
:10DA4000FAD1CC5CD4540133002CFAD110BD03467A
:10DA500011F8012B03F8012B002AF9D17047034676
:10DA600013F8012B002AFBD1181A01387047000067
:10DA70005354694D33320000000000005354694D87
:10DA80003332204D61696E204D656E7500000000D7
:10DA9000536574204672657175656E637900000088
:10DAA0005365742050756C73652053657175656E90
:10DAB000636500005365742050756C736520566F64
:10DAC0006C7461676500000043616E63656C000003
:10DAD00053687574646F776E000000005175697447
:10DAE00020746F204F5300002031206B487A2000B3
:10DAF0002032206B487A20002033206B487A2000A7
:10DB00005053657120310000505365712032000080
:10DB1000505365712033000050536571203400006C
:10DB2000536574205065616B20566F6C7461676536
:10DB3000000000002038205620000000203620562B
:10DB4000200000002034205620000000202020204B
:10DB50004F5645524C4F41440000000020202020E9
:10DB600057616974696E672E2E2E00005354694DFB
:10DB7000333200003135303231326100316B487A56
:10DB800000000000326B487A00000000336B487AD6
:10DB900000000000536571310000000053657132D0
:10DBA00000000000536571330000000053657134BC
:10DBB00000000000385600003656000034560000C1
:10DBC0003A000000202020004261747465727920C0
:10DBD0004F4B000042617474657279204C4F5700BE
:10DBE000010000007CDA00080600000000000000D0
:10DBF0000000000000000000000000000000000025
:10DC00000000000090DA0008D5CB000819CB00080E
:10DC100000000000A0DA0008F5CB000819CB0008CE
:10DC200000000000B4DA000815CC000819CB000889
:10DC300000000000C8DA0008B5CE000899CE000840
:10DC400000000000D0DA0008C1CD0008000000008C
:10DC500001000000DCDA0008DDCD00080000000053
:10DC600001000000000000000000000000000000B3
:10DC700000000000000000000000000000000000A4
:10DC8000000000000100000090DA0008040000001D
:10DC90000000000000000000000000000000000084
:10DCA0000000000000000000E8DA000859CC00087D
:10DCB00019CB000800000000F0DA00087DCC000855
:10DCC00019CB000800000000F8DA0008A1CC000819
:10DCD00019CB000800000000C8DA0008B5CE000823
:10DCE00019CB000800000000000000000000000048
:10DCF0000000000000000000000000000000000024
:10DD00000000000000000000000000000000000013
:10DD10000000000000000000000000000000000003
:10DD2000000000000000000001000000A0DA000870
:10DD300005000000000000000000000000000000DE
:10DD400000000000000000000000000000DB0008F0
:10DD5000C5CC000819CB00080000000008DB000853
:10DD6000E9CC000819CB00080000000010DB000817
:10DD70000DCD000819CB00080000000018DB0008DA
:10DD800031CD000819CB000800000000C8DA0008F7
:10DD9000B5CE000819CB000800000000000000000C
:10DDA0000000000000000000000000000000000073
:10DDB0000000000000000000000000000000000063
:10DDC0000000000000000000000000000100000052
:10DDD00020DB00080400000000000000000000003C
:10DDE0000000000000000000000000000000000033
:10DDF00034DB000855CD000819CB000800000000F6
:10DE00003CDB000879CD000819CB000800000000B9
:10DE100044DB00089DCD000819CB0008000000007D
:10DE2000C8DA0008B5CE000819CB000800000000D1
:10DE300000000000000000000000000000000000E2
:10DE400000000000000000000000000000000000D2
:10DE500000000000000000000000000000000000C2
:10DE600000000000000000000000000000000000B2
:10DE70000100000020DB000803000000000000009B
:10DE80000000000000000000000000000000000092
:10DE9000000000003CDB000879CD000819CB000829
:10DEA0000000000044DB00089DCD000819CB0008ED
:10DEB00000000000C8DA0008B5CE000819CB000841
:10DEC0000000000000000000000000000000000052
:10DED0000000000000000000000000000000000042
:10DEE0000000000000000000000000000000000032
:10DEF0000000000000000000000000000000000022
:10DF00000000000000000000000000000000000011
:08DF1000000000000100000008
:040000050800C0101F
:00000001FF
