:020000040800F2
:10C00000BCD30008E5C70008DDCA00080300000033
:10C0100081F0004102E000BF83F0004330B54FEAF9
:10C0200041044FEA430594EA050F08BF90EA020F66
:10C030001FBF54EA000C55EA020C7FEA645C7FEAF9
:10C04000655C00F0E2804FEA5454D4EB5555B8BF1C
:10C050006D420CDD2C4480EA020281EA030382EA8D
:10C06000000083EA010180EA020281EA0303362D1F
:10C0700088BF30BD11F0004F4FEA01314FF4801CF2
:10C080004CEA113102D0404261EB410113F0004F04
:10C090004FEA03334CEA133302D0524263EB4303BB
:10C0A00094EA050F00F0A780A4F10104D5F1200E59
:10C0B0000DDB02FA0EFC22FA05F2801841F10001B4
:10C0C00003FA0EF2801843FA05F359410EE0A5F188
:10C0D00020050EF1200E012A03FA0EFC28BF4CF0B9
:10C0E000020C43FA05F3C01851EBE37101F000456F
:10C0F00007D54FF0000EDCF1000C7EEB00006EEB7C
:10C100000101B1F5801F1BD3B1F5001F0CD3490805
:10C110005FEA30004FEA3C0C04F101044FEA44525C
:10C1200012F5800F80F09A80BCF1004F08BF5FEAE3
:10C13000500C50F1000041EB045141EA050130BDC3
:10C140005FEA4C0C404141EB010111F4801FA4F166
:10C150000104E9D191F0000F04BF01460020B1FABB
:10C1600081F308BF2033A3F10B03B3F120020CDAF3
:10C170000C3208DD02F1140CC2F10C0201FA0CF0D1
:10C1800021FA02F10CE002F11402D8BFC2F1200C36
:10C1900001FA02F120FA0CFCDCBF41EA0C019040EC
:10C1A000E41AA2BF01EB0451294330BD6FEA040435
:10C1B0001F3C1CDA0C340EDC04F11404C4F1200220
:10C1C00020FA04F001FA02F340EA030021FA04F332
:10C1D00045EA030130BDC4F10C04C4F1200220FA89
:10C1E00002F001FA04F340EA0300294630BD21FAC7
:10C1F00004F0294630BD94F0000F83F4801306BF8D
:10C2000081F480110134013D4EE77FEA645C18BF80
:10C210007FEA655C29D094EA050F08BF90EA020F17
:10C2200005D054EA000C04BF1946104630BD91EA0F
:10C23000030F1EBF0021002030BD5FEA545C05D112
:10C240004000494128BF41F0004130BD14F5800451
:10C250003CBF01F5801130BD01F0004545F0FE41C5
:10C2600041F470014FF0000030BD7FEA645C1ABFFA
:10C27000194610467FEA655C1CBF0B46024650EA31
:10C28000013406BF52EA033591EA030F41F400215D
:10C2900030BD00BF90F0000F04BF0021704730B5E3
:10C2A0004FF4806404F132044FF000054FF00001B8
:10C2B00050E700BF90F0000F04BF0021704730B579
:10C2C0004FF4806404F1320410F0004548BF40424E
:10C2D0004FF000013EE700BF42004FEAE2014FEAA3
:10C2E00031014FEA02701FBF12F07F4393F07F4F7E
:10C2F00081F06051704792F0000F14BF93F07F4FB0
:10C30000704730B54FF4607401F0004521F00041F2
:10C3100020E700BF50EA010208BF704730B54FF078
:10C3200000050AE050EA010208BF704730B511F07D
:10C33000004502D5404261EB41014FF4806404F1B5
:10C3400032045FEA915C3FF4DCAE4FF003025FEA37
:10C35000DC0C18BF03325FEADC0C18BF033202EBBF
:10C36000DC02C2F1200300FA03FC20FA02F001FA19
:10C3700003FE40EA0E0021FA02F11444C1E600BFB8
:10C3800070B54FF0FF0C4CF4E06C1CEA11541DBF6B
:10C390001CEA135594EA0C0F95EA0C0F00F0DEF836
:10C3A0002C4481EA030621EA4C5123EA4C5350EA1B
:10C3B000013518BF52EA033541F4801143F480136C
:10C3C00038D0A0FB02CE4FF00005E1FB02E506F0FD
:10C3D0000042E0FB03E54FF00006E1FB03569CF052
:10C3E000000F18BF4EF0010EA4F1FF04B6F5007F58
:10C3F00064F5407404D25FEA4E0E6D4146EB0606CA
:10C4000042EAC62141EA55514FEAC52040EA5E5052
:10C410004FEACE2EB4F1FD0C88BFBCF5E06F1ED8FC
:10C42000BEF1004F08BF5FEA500E50F1000041EB33
:10C43000045170BD06F0004646EA010140EA0200E0
:10C4400081EA0301B4EB5C04C2BFD4EB0C0541EA02
:10C45000045170BD41F480114FF0000E013C00F317
:10C46000AB8014F1360FDEBF002001F0004170BD3B
:10C47000C4F10004203C35DA0C341BDC04F1140454
:10C48000C4F1200500FA05F320FA04F001FA05F2E0
:10C4900040EA020001F0004221F0004110EBD370AD
:10C4A00021FA04F642EB06015EEA430E08BF20EAD9
:10C4B000D37070BDC4F10C04C4F1200500FA04F37C
:10C4C00020FA05F001FA04F240EA020001F000410E
:10C4D00010EBD37041F100015EEA430E08BF20EA81
:10C4E000D37070BDC4F1200500FA05F24EEA020EC9
:10C4F00020FA04F301FA05F243EA020321FA04F0F8
:10C5000001F0004121FA04F220EA020000EBD370AE
:10C510005EEA430E08BF20EAD37070BD94F0000FAE
:10C520000FD101F00046400041EB010111F4801FE2
:10C5300008BF013CF7D041EA060195F0000F18BF93
:10C54000704703F00046520043EB030313F4801FCF
:10C5500008BF013DF7D043EA0603704794EA0C0F89
:10C560000CEA135518BF95EA0C0F0CD050EA41069F
:10C5700018BF52EA4306D1D181EA030101F000411C
:10C580004FF0000070BD50EA410606BF1046194644
:10C5900052EA430619D094EA0C0F02D150EA013650
:10C5A00013D195EA0C0F05D152EA03361CBF104691
:10C5B00019460AD181EA030101F0004141F0FE4130
:10C5C00041F470014FF0000070BD41F0FE4141F4B4
:10C5D000780170BD70B54FF0FF0C4CF4E06C1CEAB4
:10C5E00011541DBF1CEA135594EA0C0F95EA0C0F69
:10C5F00000F0A7F8A4EB050481EA030E52EA033524
:10C600004FEA013100F088804FEA03334FF0805544
:10C6100045EA131343EA12634FEA022245EA111571
:10C6200045EA10654FEA00260EF000419D4208BF22
:10C63000964244F1FD0404F5407402D25B084FEACF
:10C640003202B61A65EB03055B084FEA32024FF47B
:10C6500080104FF4002CB6EB020E75EB030E22BFD8
:10C66000B61A754640EA0C005B084FEA3202B6EB98
:10C67000020E75EB030E22BFB61A754640EA5C0047
:10C680005B084FEA3202B6EB020E75EB030E22BFD7
:10C69000B61A754640EA9C005B084FEA3202B6EBD8
:10C6A000020E75EB030E22BFB61A754640EADC0097
:10C6B00055EA060E18D04FEA051545EA16754FEAF9
:10C6C00006164FEAC30343EA52734FEAC2025FEA17
:10C6D0001C1CC0D111F4801F0BD141EA00014FF0A6
:10C6E00000004FF0004CB6E711F4801F04BF014377
:10C6F0000020B4F1FD0C88BFBCF5E06F3FF6AFAE93
:10C70000B5EB030C04BFB6EB020C5FEA500C50F122
:10C71000000041EB045170BD0EF0004E4EEA1131A5
:10C7200014EB5C04C2BFD4EB0C0541EA045170BDAC
:10C7300041F480114FF0000E013C90E645EA060EF0
:10C740008DE60CEA135594EA0C0F08BF95EA0C0F1E
:10C750003FF43BAF94EA0C0F0AD150EA01347FF466
:10C7600034AF95EA0C0F7FF425AF104619462CE73D
:10C7700095EA0C0F06D152EA03353FF4FDAE1046A0
:10C78000194622E750EA410618BF52EA43067FF4F1
:10C79000C5AE50EA41047FF40DAF52EA43057FF481
:10C7A000EBAE12E74A0011D212F5001211D20DD5EC
:10C7B0006FF47873B3EB62520ED44FEAC12343F0A7
:10C7C000004343EA505323FA02F070474FF0000051
:10C7D000704750EA013002D14FF0FF3070474FF000
:10C7E0000000704710B5002103E00C4BCB580B50F4
:10C7F00004310B480B4B0A189A42F6D30A4A02E05E
:10C80000002342F8043B094B9A42F9D34FF480735A
:10C810001A68074B1A6000F0C1F810BD64D4000814
:10C8200000000020F0010020F00100203C03002067
:10C830003803002080B582B000AF504B1B68591CF4
:10C840004E4A11604E4A5288B3FBF2F102FB01F2EC
:10C850009B1A002B00D08EE0494B1B79002B02D095
:10C86000012B03D010E000F07DFB0DE000F07AFB1F
:10C87000434B1B897B6000BF7B685A1E7A60002B8C
:10C88000FAD100F06FFB00BF3E4B1B78032B72D830
:10C8900001A252F823F000BFA9C80008E1C80008AF
:10C8A00049C9000819C90008374B1B68D3F8803103
:10C8B000012001219847344B1B68D3F880310020B8
:10C8C00000219847314B1A68314B1B889A4206D396
:10C8D0002C4B02221A702F4B00221A604BE04AE0C8
:10C8E000294B1B68D3F88031012000219847264B43
:10C8F0001B68D3F88031002001219847234B1A6828
:10C90000254B1B889A4206D81E4B03221A70214BD6
:10C9100000221A602FE02EE01C4B1A681E4B1B8869
:10C920009A4203D9174B01221A700CE0194B1B686D
:10C930005A1C184B1A60174B1B680A2B03D1114B5A
:10C9400000221A7017E016E0104B1A68104B1B8873
:10C950009A4203D20B4B00221A700BE00D4B1B685E
:10C960005A1C0C4B1A600B4B1B680A2B02D1054B4F
:10C9700001221A7000BF0837BD4680BD2803002081
:10C98000F40100201C0200203803002018020020BF
:10C990001E0200202C0300202002002080B586B05B
:10C9A00000AF454B1B68D3F8503100209847424BED
:10C9B0001B68D3F8343304200A2198473E4B1B6888
:10C9C000D3F8B8320A2098473B4B1B68D3F8EC32B7
:10C9D0003A4A0D2011469847374B1B68D3F8343339
:10C9E0000D2001219847344B1B68D3F8C032052035
:10C9F000984700F0DDFC00F0E3F800F017F90020A4
:10CA0000002100F04FFB2E4B00221A702D4B00220C
:10CA10001A702D4B0A221A802C4B0A221A800423EA
:10CA20003B7000237B700123BB700023FB7000234D
:10CA30003B7100237B710023BB71254BBB608023BE
:10CA4000FB60244B3B6180237B611B4B1B68D3F84D
:10CA500020323A462120114600229847164B1B6887
:10CA6000D3F820320820042100229847124B1B687B
:10CA7000D3F8243208200121002298470E4B1B686E
:10CA8000D3F8203223200021002298470C4B0222A9
:10CA90001A700320002100F005FB074B1B68D3F838
:10CAA00028330D4A4FF4FA6011469847042318467C
:10CAB0001837BD4680BD00BF3803002035C80008C8
:10CAC000F00100201C0200201E0200202002002095
:10CAD00024020020A402002069CB000880B500AF2A
:10CAE0001D4B1B78012B03D0022B0FD0002B0FE026
:10CAF0001A4B1B68D3F8043200209847164B0022CB
:10CB00001A700220002100F0CDFA01E0012321E09B
:10CB10000120002100F0C6FA114B1B685A1C104B73
:10CB20001A600E4B1B68D3F8003298470346DBB2FD
:10CB30005BB2012B0DD1094B1B68D3F80C3298471F
:10CB4000064B1B68D3F88032064A104698470323E9
:10CB500000E00123184680BDF001002038030020CA
:10CB6000300300200000002080B500AF034B0022FE
:10CB70001A700020002100F095FA80BDF00100201D
:10CB800080B500AF044B1B68D3F88032034A1046CF
:10CB900098470323184680BD38030020A4000020D6
:10CBA00080B500AF044B1B68D3F88032034A1046AF
:10CBB00098470323184680BD380300204801002011
:10CBC00080B500AF054B01221A7000F015F9044B37
:10CBD00001221A700423184680BD00BFF401002012
:10CBE000F001002080B500AF054B02221A7000F062
:10CBF00003F9044B01221A700423184680BD00BFBC
:10CC0000F4010020F001002080B500AF054B0322A5
:10CC10001A7000F0F1F8044B01221A700423184630
:10CC200080BD00BFF4010020F001002080B500AFFE
:10CC3000094BC8221A82084B3222DA82064B0022A4
:10CC40009A83054BC822DA8000F0D6F8034B012204
:10CC50001A700423184680BDF4010020F001002062
:10CC600080B500AF0A4B00221A82094B3222DA82C9
:10CC7000074B32229A83064B4FF4C872DA8000F0D9
:10CC8000BBF8044B01221A700423184680BD00BF74
:10CC9000F4010020F001002080B500AF0A4B3222E1
:10CCA0001A82094B3222DA82074B32229A83064BD0
:10CCB0004FF4C872DA8000F09FF8044B01221A701A
:10CCC0000423184680BD00BFF4010020F0010020BD
:10CCD00080B500AF0A4B4FF4C8721A82084B00228D
:10CCE000DA82074B00229A83054B6422DA8000F037
:10CCF00083F8044B01221A700423184680BD00BF3C
:10CD0000F4010020F001002080B500AF2A4B012281
:10CD10001A702A4B1B68D3F80C329847274B1B68B4
:10CD2000D3F8043201209847244B1B68D3F84431D0
:10CD30009847224B1B68D3F83031012098471F4B8E
:10CD40001B68D3F8903298471C4B1B68D3F880308F
:10CD500098471A4B1B68D3F8A83001209847174B07
:10CD60001B68D3F884309847144B1B689B690120DB
:10CD70009847124B1B68D3F8C032032098470F4BDB
:10CD80001B68D3F8EC320D20002198470B4B1B6831
:10CD9000D3F88031002000219847084B1B68D3F856
:10CDA0008031012000219847044B1B68D3F8A8323A
:10CDB00098470346184680BDF00100203803002044
:10CDC00080B400AF044B01221A7006231846BD46FA
:10CDD0005DF8047B704700BFF001002080B400AF15
:10CDE000044B01221A7004231846BD465DF8047BEB
:10CDF000704700BFF001002080B500AF574B5B8942
:10CE000007EE103AF8EE477A17EE900AFFF764FA49
:10CE100002460B46104619464FF00002504BFFF7F2
:10CE2000AFFA02460B4610461946FFF7BBFC034615
:10CE30009AB24A4B9A81494B1B8A07EE103AF8EE98
:10CE4000477A17EE900AFFF747FA02460B4610465C
:10CE500019464FF00002424BFFF792FA02460B468A
:10CE600010461946FFF79EFC03469AB23B4B5A8286
:10CE70003A4BDB8A07EE103AF8EE477A17EE900A43
:10CE8000FFF72AFA02460B46104619464FF00002F9
:10CE9000334BFFF775FA02460B4610461946FFF76B
:10CEA00081FC03469AB22D4B1A832C4B9B8B07EEC9
:10CEB000103AF8EE477A17EE900AFFF70DFA02469D
:10CEC0000B46104619464FF00002254BFFF758FA63
:10CED00002460B4610461946FFF764FC03469AB219
:10CEE0001E4BDA831D4BDB8807EE103AF8EE477ACB
:10CEF00017EE900AFFF7F0F902460B461046194666
:10CF00004FF00002164BFFF73BFA02460B46104665
:10CF10001946FFF747FC03469AB2104B1A810F4B94
:10CF20001B78022B0AD0032B0FD0012B14D10B4BF3
:10CF300003225A80094B00221A710DE0074B03228D
:10CF40005A80064B01221A7106E0044B01225A80D6
:10CF5000024B00221A7100BF80BD00BFF401002007
:10CF600000002E4080B582B000AF022000F04EF8E5
:10CF7000234B9B897B6000BF7B685A1E7A60002B25
:10CF8000FAD11F4B5B8A002B17D0002000F03EF82F
:10CF90001C4B1B68D3F828323A4623201146002246
:10CFA00098473A68184B1A60154B5B8A7B6000BF44
:10CFB0007B685A1E7A60002BFAD1022000F026F816
:10CFC0000F4B1B8B7B6000BF7B685A1E7A60002B67
:10CFD000FAD10B4BDB8B002B0BD0042000F016F8A2
:10CFE000074BDB8B7B6000BF7B685A1E7A60002B8F
:10CFF000FAD1022000F00AF80837BD4680BD00BF14
:10D00000F4010020380300201802002080B584B00D
:10D0100000AF0346FB710123FB60FB79042B21D891
:10D0200001A252F823F000BF3DD0000845D000080F
:10D030004DD0000855D000085DD00008174B7F2266
:10D040001A700FE0154B5F221A700BE0134B3F2252
:10D050001A7007E0114B1F221A7003E00F4B0022D9
:10D060001A7000BF0E4B1B68D3F824320820002131
:10D07000002298470A4B1B68D3F82432074907F16E
:10D080000C0221209847064B1B68D3F82432082055
:10D090000121002298471037BD4680BD340300208F
:10D0A0003803002090B58FB002AF02460B46FA71EC
:10D0B000BB800823FB85894BBB62FB79032B00F205
:10D0C0006C8101A252F823F0D9D0000857D1000892
:10D0D000D9D00008F5D20008814B01221A70814B8B
:10D0E00000221A80804B1B68D3F8A8300120984793
:10D0F0007D4B1B68D3F8B0304FF6FF7098477A4BE2
:10D100001B68D3F8B83048F201009847764B1B688B
:10D11000D3F8184148F20103009300200021F022C7
:10D120001E23A047704B1B68D3F8184146F2081322
:10D13000009300201E21F0229623A0476A4B1B6813
:10D14000D3F818414FF4885300930020B421F02203
:10D150003C23A04721E1644B1B68D3F8CC4207F184
:10D160000802624B1B681046194604220023A047A0
:10D170005D4B1B68D3F8A830042098475A4B1B68B6
:10D18000D3F8B0304EF2FF009847574B1B68D3F8E6
:10D19000B8304FF488509847534B1B68D3F8DC40A5
:10D1A00007F1080300220092002201920020B4211E
:10D1B0001A460023A0474C4B1B68D3F8A830012027
:10D1C0009847494B1B68D3F8B0304FF6FF7098472B
:10D1D000454B1B68D3F8B83048F201009847444BE0
:10D1E0001B78032B72D801A252F823F0FDD100085E
:10D1F00025D20008FDD1000825D20008384B1B7845
:10D20000002B0BD0384B1B68D3F8184146F208139B
:10D21000009300201E21F0229623A047304B0022CD
:10D220001A7053E02E4B1B78012B0FD02E4B1B682E
:10D23000D3F8184146F20813009300201E21F02273
:10D240009623A047274B00221A8033E0274B1B6808
:10D2500007EE903AB8EE677AD7ED0A7A67EE277A4A
:10D26000FCEEE77A17EE903AFB841F4B1B68D3F86D
:10D2700018411C4B1B881A46FB8D4FF6FF7100911D
:10D2800010461E211A469623A047174B1B68D3F859
:10D290001841144B1B881946FA8DFB8CF82000901E
:10D2A00008461E21A0470F4B1A88FB8D13449AB2E3
:10D2B0000C4B1A800A4B01221A700A4B1B88F02B68
:10D2C00003D9074B00221A70FFE700BF064B1B680B
:10D2D000D3F898300A200A2198475EE0CDCCCC3DA7
:10D2E000EC01002036030020380300201802002043
:10D2F0001C0200202A4B1B68D3F8A8300220984754
:10D30000274B1B68D3F8B0304EF207009847244BE8
:10D310001B68D3F8184140F6FC030093002000215D
:10D32000F022F023A0471E4B1B68D3F8DC401D4BB6
:10D3300001220092012201920020B4211A464FF0EE
:10D34000FF33A047164B1B68D3F8A830012098473D
:10D35000134B1B68D3F8DC40134B012200920122CF
:10D3600001920020A0211A464FF0FF33A0470C4B3A
:10D370001B68D3F8A83001209847094B1B68D3F8E5
:10D38000DC400A4B0022009201220192002064211D
:10D390001A464FF0FF33A04700BF3437BD4690BD5B
:10D3A0003803002048D4000850D4000858D400089E
:10D3B00080B400AFBD465DF8047B70475354694D9F
:10D3C00033320000000000005354694D3332204DC9
:10D3D00061696E204D656E75000000005365742014
:10D3E0004672657175656E6379000000536574203F
:10D3F00050756C73652053657175656E63650000CB
:10D4000043616E63656C0000517569740000000033
:10D410002031206B487A20002032206B487A20008F
:10D420002033206B487A2000505365712031000072
:10D430005053657120320000505365712033000055
:10D4400050536571203400005354694D333200004D
:10D450003135303130370000426174746572793A89
:04D46000204F4B000E
:10D4640001000000C8D30008040000000000000010
:10D4740000000000000000000000000000000000A8
:10D4840000000000DCD3000881CB0008DDCA0008DE
:10D4940000000000ECD30008A1CB0008DDCA00089E
:10D4A4000000000000D40008DDCD0008C1CD000854
:10D4B4000000000008D4000809CD000800000000A6
:10D4C4000100000000000000000000000000000057
:10D4D4000000000000000000000000000000000048
:10D4E4000000000000000000000000000000000038
:10D4F4000000000000000000000000000000000028
:10D504000000000001000000DCD30008040000005B
:10D514000000000000000000000000000000000007
:10D52400000000000000000010D40008C1CB000877
:10D53400DDCA00080000000018D40008E5CB00088C
:10D54400DDCA00080000000020D4000809CC00084F
:10D55400DDCA00080000000000D40008DDCD00088A
:10D56400DDCA000800000000000000000000000008
:10D5740000000000000000000000000000000000A7
:10D584000000000000000000000000000000000097
:10D594000000000000000000000000000000000087
:10D5A400000000000000000001000000ECD30008AF
:10D5B4000500000000000000000000000000000062
:10D5C40000000000000000000000000028D4000853
:10D5D4002DCC0008DDCA00080000000030D400088B
:10D5E40061CC0008DDCA00080000000038D400083F
:10D5F40099CC0008DDCA00080000000040D40008EF
:10D60400D1CC0008DDCA00080000000000D40008E6
:10D61400DDCD0008DDCA00080000000000000000A5
:10D6240000000000000000000000000000000000F6
:10D6340000000000000000000000000000000000E6
:10D6440000000000000000000000000001000000D5
:040000050800C0101F
:00000001FF
