:020000040800F2
:10C0000030D50008E5C70008EDCA000803000000AD
:10C0100081F0004102E000BF83F0004330B54FEAF9
:10C0200041044FEA430594EA050F08BF90EA020F66
:10C030001FBF54EA000C55EA020C7FEA645C7FEAF9
:10C04000655C00F0E2804FEA5454D4EB5555B8BF1C
:10C050006D420CDD2C4480EA020281EA030382EA8D
:10C06000000083EA010180EA020281EA0303362D1F
:10C0700088BF30BD11F0004F4FEA01314FF4801CF2
:10C080004CEA113102D0404261EB410113F0004F04
:10C090004FEA03334CEA133302D0524263EB4303BB
:10C0A00094EA050F00F0A780A4F10104D5F1200E59
:10C0B0000DDB02FA0EFC22FA05F2801841F10001B4
:10C0C00003FA0EF2801843FA05F359410EE0A5F188
:10C0D00020050EF1200E012A03FA0EFC28BF4CF0B9
:10C0E000020C43FA05F3C01851EBE37101F000456F
:10C0F00007D54FF0000EDCF1000C7EEB00006EEB7C
:10C100000101B1F5801F1BD3B1F5001F0CD3490805
:10C110005FEA30004FEA3C0C04F101044FEA44525C
:10C1200012F5800F80F09A80BCF1004F08BF5FEAE3
:10C13000500C50F1000041EB045141EA050130BDC3
:10C140005FEA4C0C404141EB010111F4801FA4F166
:10C150000104E9D191F0000F04BF01460020B1FABB
:10C1600081F308BF2033A3F10B03B3F120020CDAF3
:10C170000C3208DD02F1140CC2F10C0201FA0CF0D1
:10C1800021FA02F10CE002F11402D8BFC2F1200C36
:10C1900001FA02F120FA0CFCDCBF41EA0C019040EC
:10C1A000E41AA2BF01EB0451294330BD6FEA040435
:10C1B0001F3C1CDA0C340EDC04F11404C4F1200220
:10C1C00020FA04F001FA02F340EA030021FA04F332
:10C1D00045EA030130BDC4F10C04C4F1200220FA89
:10C1E00002F001FA04F340EA0300294630BD21FAC7
:10C1F00004F0294630BD94F0000F83F4801306BF8D
:10C2000081F480110134013D4EE77FEA645C18BF80
:10C210007FEA655C29D094EA050F08BF90EA020F17
:10C2200005D054EA000C04BF1946104630BD91EA0F
:10C23000030F1EBF0021002030BD5FEA545C05D112
:10C240004000494128BF41F0004130BD14F5800451
:10C250003CBF01F5801130BD01F0004545F0FE41C5
:10C2600041F470014FF0000030BD7FEA645C1ABFFA
:10C27000194610467FEA655C1CBF0B46024650EA31
:10C28000013406BF52EA033591EA030F41F400215D
:10C2900030BD00BF90F0000F04BF0021704730B5E3
:10C2A0004FF4806404F132044FF000054FF00001B8
:10C2B00050E700BF90F0000F04BF0021704730B579
:10C2C0004FF4806404F1320410F0004548BF40424E
:10C2D0004FF000013EE700BF42004FEAE2014FEAA3
:10C2E00031014FEA02701FBF12F07F4393F07F4F7E
:10C2F00081F06051704792F0000F14BF93F07F4FB0
:10C30000704730B54FF4607401F0004521F00041F2
:10C3100020E700BF50EA010208BF704730B54FF078
:10C3200000050AE050EA010208BF704730B511F07D
:10C33000004502D5404261EB41014FF4806404F1B5
:10C3400032045FEA915C3FF4DCAE4FF003025FEA37
:10C35000DC0C18BF03325FEADC0C18BF033202EBBF
:10C36000DC02C2F1200300FA03FC20FA02F001FA19
:10C3700003FE40EA0E0021FA02F11444C1E600BFB8
:10C3800070B54FF0FF0C4CF4E06C1CEA11541DBF6B
:10C390001CEA135594EA0C0F95EA0C0F00F0DEF836
:10C3A0002C4481EA030621EA4C5123EA4C5350EA1B
:10C3B000013518BF52EA033541F4801143F480136C
:10C3C00038D0A0FB02CE4FF00005E1FB02E506F0FD
:10C3D0000042E0FB03E54FF00006E1FB03569CF052
:10C3E000000F18BF4EF0010EA4F1FF04B6F5007F58
:10C3F00064F5407404D25FEA4E0E6D4146EB0606CA
:10C4000042EAC62141EA55514FEAC52040EA5E5052
:10C410004FEACE2EB4F1FD0C88BFBCF5E06F1ED8FC
:10C42000BEF1004F08BF5FEA500E50F1000041EB33
:10C43000045170BD06F0004646EA010140EA0200E0
:10C4400081EA0301B4EB5C04C2BFD4EB0C0541EA02
:10C45000045170BD41F480114FF0000E013C00F317
:10C46000AB8014F1360FDEBF002001F0004170BD3B
:10C47000C4F10004203C35DA0C341BDC04F1140454
:10C48000C4F1200500FA05F320FA04F001FA05F2E0
:10C4900040EA020001F0004221F0004110EBD370AD
:10C4A00021FA04F642EB06015EEA430E08BF20EAD9
:10C4B000D37070BDC4F10C04C4F1200500FA04F37C
:10C4C00020FA05F001FA04F240EA020001F000410E
:10C4D00010EBD37041F100015EEA430E08BF20EA81
:10C4E000D37070BDC4F1200500FA05F24EEA020EC9
:10C4F00020FA04F301FA05F243EA020321FA04F0F8
:10C5000001F0004121FA04F220EA020000EBD370AE
:10C510005EEA430E08BF20EAD37070BD94F0000FAE
:10C520000FD101F00046400041EB010111F4801FE2
:10C5300008BF013CF7D041EA060195F0000F18BF93
:10C54000704703F00046520043EB030313F4801FCF
:10C5500008BF013DF7D043EA0603704794EA0C0F89
:10C560000CEA135518BF95EA0C0F0CD050EA41069F
:10C5700018BF52EA4306D1D181EA030101F000411C
:10C580004FF0000070BD50EA410606BF1046194644
:10C5900052EA430619D094EA0C0F02D150EA013650
:10C5A00013D195EA0C0F05D152EA03361CBF104691
:10C5B00019460AD181EA030101F0004141F0FE4130
:10C5C00041F470014FF0000070BD41F0FE4141F4B4
:10C5D000780170BD70B54FF0FF0C4CF4E06C1CEAB4
:10C5E00011541DBF1CEA135594EA0C0F95EA0C0F69
:10C5F00000F0A7F8A4EB050481EA030E52EA033524
:10C600004FEA013100F088804FEA03334FF0805544
:10C6100045EA131343EA12634FEA022245EA111571
:10C6200045EA10654FEA00260EF000419D4208BF22
:10C63000964244F1FD0404F5407402D25B084FEACF
:10C640003202B61A65EB03055B084FEA32024FF47B
:10C6500080104FF4002CB6EB020E75EB030E22BFD8
:10C66000B61A754640EA0C005B084FEA3202B6EB98
:10C67000020E75EB030E22BFB61A754640EA5C0047
:10C680005B084FEA3202B6EB020E75EB030E22BFD7
:10C69000B61A754640EA9C005B084FEA3202B6EBD8
:10C6A000020E75EB030E22BFB61A754640EADC0097
:10C6B00055EA060E18D04FEA051545EA16754FEAF9
:10C6C00006164FEAC30343EA52734FEAC2025FEA17
:10C6D0001C1CC0D111F4801F0BD141EA00014FF0A6
:10C6E00000004FF0004CB6E711F4801F04BF014377
:10C6F0000020B4F1FD0C88BFBCF5E06F3FF6AFAE93
:10C70000B5EB030C04BFB6EB020C5FEA500C50F122
:10C71000000041EB045170BD0EF0004E4EEA1131A5
:10C7200014EB5C04C2BFD4EB0C0541EA045170BDAC
:10C7300041F480114FF0000E013C90E645EA060EF0
:10C740008DE60CEA135594EA0C0F08BF95EA0C0F1E
:10C750003FF43BAF94EA0C0F0AD150EA01347FF466
:10C7600034AF95EA0C0F7FF425AF104619462CE73D
:10C7700095EA0C0F06D152EA03353FF4FDAE1046A0
:10C78000194622E750EA410618BF52EA43067FF4F1
:10C79000C5AE50EA41047FF40DAF52EA43057FF481
:10C7A000EBAE12E74A0011D212F5001211D20DD5EC
:10C7B0006FF47873B3EB62520ED44FEAC12343F0A7
:10C7C000004343EA505323FA02F070474FF0000051
:10C7D000704750EA013002D14FF0FF3070474FF000
:10C7E0000000704710B5002103E00C4BCB580B50F4
:10C7F00004310B480B4B0A189A42F6D30A4A02E05E
:10C80000002342F8043B094B9A42F9D34FF480735A
:10C810001A68074B1A6000F0C1F810BD24D6000852
:10C8200000000020F0010020F00100205003002053
:10C830004C03002080B582B000AF504B1B68591CE0
:10C840004E4A11604E4A5288B3FBF2F102FB01F2EC
:10C850009B1A002B00D08EE0494B1B79002B02D095
:10C86000012B03D010E000F057FB0DE000F054FB6B
:10C87000434B1B897B6000BF7B685A1E7A60002B8C
:10C88000FAD100F049FB00BF3E4B1B78032B72D856
:10C8900001A252F823F000BFA9C80008E1C80008AF
:10C8A00049C9000819C90008374B1B68D3F8803103
:10C8B000012001219847344B1B68D3F880310020B8
:10C8C00000219847314B1A68314B1B889A4206D396
:10C8D0002C4B02221A702F4B00221A604BE04AE0C8
:10C8E000294B1B68D3F88031012000219847264B43
:10C8F0001B68D3F88031002001219847234B1A6828
:10C90000254B1B889A4206D81E4B03221A70214BD6
:10C9100000221A602FE02EE01C4B1A681E4B1B8869
:10C920009A4203D9174B01221A700CE0194B1B686D
:10C930005A1C184B1A60174B1B680A2B03D1114B5A
:10C9400000221A7017E016E0104B1A68104B1B8873
:10C950009A4203D20B4B00221A700BE00D4B1B685E
:10C960005A1C0C4B1A600B4B1B680A2B02D1054B4F
:10C9700001221A7000BF0837BD4680BD3C0300206D
:10C98000F40100201C0200204C03002018020020AB
:10C990001E020020400300202002002080B586B047
:10C9A00000AF494B1B68D3F8503100209847464BE5
:10C9B0001B68D3F8343304200A219847424B1B6884
:10C9C000D3F8B8320A2098473F4B1B68D3F8EC32B3
:10C9D0003E4A0D20114698473B4B1B68D3F8343331
:10C9E0000D2001219847384B1B68D3F8C032052031
:10C9F000984700F0DBFC00F0EBF800F01FF9002096
:10CA0000002100F03BFB324B00221A70314B002218
:10CA10001A70314B0A221A80304B0A221A802A4B94
:10CA20001B68D3F80033002000210022984704231C
:10CA30003B7000237B700123BB700023FB7000233D
:10CA40003B7100237B710023BB71254BBB608023AE
:10CA5000FB60244B3B6180237B611B4B1B68D3F83D
:10CA600020323A462120114600229847164B1B6877
:10CA7000D3F820320820042100229847124B1B686B
:10CA8000D3F8243208200121002298470E4B1B685E
:10CA9000D3F8203223200021002298470C4B022299
:10CAA0001A700320002100F0E9FA074B1B68D3F845
:10CAB00028330D4A4FF4FA6011469847042318466C
:10CAC0001837BD4680BD00BF4C03002035C80008A4
:10CAD000F00100201C0200201E0200202002002085
:10CAE00024020020A402002079CB000880B500AF0A
:10CAF0001D4B1B78012B03D0022B0FD0002B0FE016
:10CB00001A4B1B68D3F8043200209847164B0022BA
:10CB10001A700220002100F0B1FA01E0012321E0A7
:10CB20000120002100F0AAFA114B1B685A1C104B7F
:10CB30001A600E4B1B68D3F8003298470346DBB2ED
:10CB40005BB2012B0DD1094B1B68D3F80C3298470F
:10CB5000064B1B68D3F88032064A104698470323D9
:10CB600000E00123184680BDF00100204C030020A6
:10CB7000440300200000002080B500AF034B0022DA
:10CB80001A700020002100F079FA80BDF001002029
:10CB900080B500AF044B1B68D3F88032034A1046BF
:10CBA00098470323184680BD4C030020A4000020B2
:10CBB00080B500AF044B1B68D3F88032034A10469F
:10CBC00098470323184680BD4C03002048010020ED
:10CBD00080B500AF054B01221A7000F0A1F8044B9C
:10CBE00001221A700423184680BD00BFF401002002
:10CBF000F001002080B500AF054B02221A7000F052
:10CC00008FF8044B01221A700423184680BD00BF20
:10CC1000F4010020F001002080B500AF054B032295
:10CC20001A7000F07DF8044B01221A700423184694
:10CC300080BD00BFF4010020F001002080B500AFEE
:10CC4000054B01225A7000F06BF8044B01221A7058
:10CC50000423184680BD00BFF4010020F00100202D
:10CC600080B500AF054B02225A7000F059F8044B12
:10CC700001221A700423184680BD00BFF401002071
:10CC8000F001002080B500AF054B03225A7000F080
:10CC900047F8044B01221A700423184680BD00BFD8
:10CCA000F4010020F001002080B500AF054B042204
:10CCB0005A7000F035F8044B01221A70042318460C
:10CCC00080BD00BFF4010020F001002080B500AF5E
:10CCD00000F072FB034B1B68D3F8403398471846AB
:10CCE00080BD00BF4C03002080B400AF044B012284
:10CCF0001A7006231846BD465DF8047B704700BFD6
:10CD0000F001002080B400AF044B01221A7004230C
:10CD10001846BD465DF8047B704700BFF001002057
:10CD200080B500AF7A4B5B78013B032B41D801A261
:10CD300052F823F045CD00085FCD00087BCD0008F8
:10CD400097CD0008724BC8221A82714B3222DA82C8
:10CD50006F4B00229A836E4BC822DA8029E06C4B1D
:10CD600000221A826A4B3222DA82694B32229A837B
:10CD7000674B4FF4C872DA801BE0654B32221A828F
:10CD8000634B3222DA82624B32229A83604B4FF439
:10CD9000C872DA800DE05E4B4FF4C8721A825C4BA9
:10CDA0000022DA825A4B00229A83594B6422DA809D
:10CDB00000BF574B5B8907EE103AF8EE477A17EE43
:10CDC000900AFFF789FA02460B46104619464FF0C3
:10CDD0000002504BFFF7D4FA02460B4610461946A4
:10CDE000FFF7E0FC03469AB2494B9A81484B1B8AF5
:10CDF00007EE103AF8EE477A17EE900AFFF76CFA52
:10CE000002460B46104619464FF00002414BFFF711
:10CE1000B7FA02460B4610461946FFF7C3FC034615
:10CE20009AB23B4B5A823A4BDB8A07EE103AF8EE45
:10CE3000477A17EE900AFFF74FFA02460B46104664
:10CE400019464FF00002334BFFF79AFA02460B46A1
:10CE500010461946FFF7A6FC03469AB22C4B1A83DC
:10CE60002B4B9B8B07EE103AF8EE477A17EE900AA1
:10CE7000FFF732FA02460B46104619464FF0000201
:10CE8000244BFFF77DFA02460B4610461946FFF782
:10CE900089FC03469AB21E4BDA831D4BDB8807EEF2
:10CEA000103AF8EE477A17EE900AFFF715FA0246A5
:10CEB0000B46104619464FF00002164BFFF760FA7A
:10CEC00002460B4610461946FFF76CFC03469AB221
:10CED0000F4B1A810E4B1B78022B0AD0032B0FD05D
:10CEE000012B14D10A4B03225A80094B00221A71DC
:10CEF0000DE0074B03225A80054B01221A7106E010
:10CF0000034B01225A80024B00221A7100BF80BDE0
:10CF1000F401002000002E4080B584B000AF40F244
:10CF2000DC53BB6003237B60022000F05BF82A4BDC
:10CF30009B89FB6000BFFB685A1EFA60002BFAD188
:10CF4000254B5B8A002B24D0002000F04BF8234BAC
:10CF50001B68D3F828323A4623201146002298470E
:10CF60003A68BB689A4203D21D4B00221A6007E060
:10CF70003A68BB68D21A7B68B2FBF3F2184B1A60AE
:10CF8000154B5B8AFB6000BFFB685A1EFA60002BE2
:10CF9000FAD1022000F026F80F4B1B8BFB6000BF7C
:10CFA000FB685A1EFA60002BFAD10B4BDB8B002B6F
:10CFB0000BD0042000F016F8074BDB8BFB6000BFA2
:10CFC000FB685A1EFA60002BFAD1022000F00AF822
:10CFD0001037BD4680BD00BFF40100204C03002087
:10CFE0001802002080B584B000AF0346FB71012316
:10CFF000FB60FB79042B21D801A252F823F000BF7B
:10D0000015D000081DD0000825D000082DD000083C
:10D0100035D00008174B7F221A700FE0154B5F22A6
:10D020001A700BE0134B3F221A7007E0114B1F22BE
:10D030001A7003E00F4B00221A7000BF0E4B1B68E2
:10D04000D3F8243208200021002298470A4B1B689D
:10D05000D3F82432074907F10C0221209847064BE8
:10D060001B68D3F82432082001210022984710378A
:10D07000BD4680BD480300204C03002090B58FB012
:10D0800002AF02460B46FA71BB800823FB85924B28
:10D09000BB62FB79032B00F2808101A252F823F0DE
:10D0A000B1D000082FD10008B1D00008F1D200089B
:10D0B0008A4B01221A708A4B00221A80894B1B6806
:10D0C000D3F8A83001209847864B1B68D3F8B030BE
:10D0D0004FF6FF709847834B1B68D3F8B83048F27F
:10D0E000010098477F4B1B68D3F8184148F20103B1
:10D0F000009300200021F0221E23A047794B1B68DB
:10D10000D3F8184146F20813009300201E21F022A4
:10D110009623A047734B1B68D3F818414FF48853EC
:10D1200000930020B421F0223C23A04735E16D4B51
:10D130001B68D3F8CC4207F108026B4B1B68104602
:10D14000194604220023A047664B1B68D3F8A83079
:10D1500004209847634B1B68D3F8B0304EF2FF00B1
:10D160009847604B1B68D3F8B8304FF48850984705
:10D170005C4B1B68D3F8DC4007F1080300220092E7
:10D18000002201920020B4211A460023A047554BEB
:10D190001B68D3F8A83001209847524B1B68D3F87E
:10D1A000B0304FF6FF7098474E4B1B68D3F8B8303D
:10D1B00048F2010098474D4B1B78032B72D801A20F
:10D1C00052F823F0D5D10008FDD10008D5D10008D0
:10D1D000FDD10008414B1B78002B0BD0414B1B6845
:10D1E000D3F8184146F20813009300201E21F022C4
:10D1F0009623A047394B00221A7053E0374B1B7817
:10D20000012B0FD0374B1B68D3F8184146F2081397
:10D21000009300201E21F0229623A047304B0022CD
:10D220001A8033E0304B1B6807EE903AB8EE677A0D
:10D23000D7ED0A7A67EE277AFCEEE77A17EE903A96
:10D24000FB84284B1B68D3F81841254B1B881A46D2
:10D25000FB8D4FF6FF71009110461E211A46962352
:10D26000A047204B1B68D3F818411D4B1B8819465B
:10D27000FA8DFB8CF820009008461E21A047184B21
:10D280001A88FB8D13449AB2154B1A80134B012256
:10D290001A70134B1B88F02B03D9104B00221A7005
:10D2A000FFE700BF0F4B1B68D3F898300A200A2114
:10D2B00098470C4B1B68D3F8DC4000F097F8034606
:10D2C000002200920122019200200A211A464FF00A
:10D2D000FF33A04761E000BFCDCCCC3DEC01002086
:10D2E0004A0300204C030020180200201C020020EA
:10D2F0002B4B1B68D3F8A83002209847284B1B689B
:10D30000D3F8B0304EF207009847254B1B68D3F88E
:10D31000184140F6FC03009300200021F022F02386
:10D32000A0471F4B1B68D3F8DC401E4B0122009224
:10D33000012201920020B4211A464FF0FF33A0478A
:10D34000174B1B68D3F8A83001209847144B1B6873
:10D35000D3F8DC40144B01220092012201920020FC
:10D36000A0211A464FF0FF33A0470D4B1B68D3F89E
:10D37000A830012098470A4B1B68D3F8DC4000F026
:10D3800091F80346002200920122019200206421BC
:10D390001A464FF0FF33A04700BF3437BD4690BD5B
:10D3A0004C030020C0D50008C8D5000880B400AFE9
:10D3B000BD465DF8047B704780B500AF094B1B6824
:10D3C000D3F8D832084A1278072011469847054BFF
:10D3D0001B68D3F8D832044A52780820114698477F
:10D3E00000BF80BD4C030020F401002080B582B056
:10D3F00000AF224B1B78022B06D0032B07D0012B4A
:10D4000008D11F4B7B6005E01E4B7B6002E01E4B8A
:10D410007B6000BF194B5B78013B032B16D801A240
:10D4200052F823F035D400083BD4000841D400085A
:10D4300047D40008154B3B6008E0154B3B6005E006
:10D44000144B3B6002E0144B3B6000BF134879680B
:10D4500000F05DF8114800F062F803461A460F4BE1
:10D4600013440F4A106818600C48396800F042F8FD
:10D470000A4B18460837BD4680BD00BFF4010020A6
:10D48000D0D50008D8D50008E0D50008E8D50008B8
:10D49000F0D50008F8D5000800D600082C030020BD
:10D4A00008D6000880B582B000AF0E4B1B68D3F8D9
:10D4B000DC3298470346FB800B4B0C4A07CA03C378
:10D4C0001A800233120C1A70FB88B3F57A6F04D2FB
:10D4D000054B074A07CA83E80700034B184608377D
:10D4E000BD4680BD4C030020240300200CD600085C
:10D4F00018D6000810B50446224601341378002BD4
:10D50000FAD1CC5CD4540133002CFAD110BD0346BF
:10D5100011F8012B03F8012B002AF9D170470346BB
:10D5200013F8012B002AFBD1181A013870470000AC
:10D530005354694D33320000000000005354694DCC
:10D540003332204D61696E204D656E75000000001C
:10D55000536574204672657175656E6379000000CD
:10D560005365742050756C73652053657175656ED5
:10D570006365000043616E63656C000053687574F9
:10D58000646F776E000000002031206B487A200025
:10D590002032206B487A20002033206B487A20000C
:10D5A00050536571203100005053657120320000E6
:10D5B00050536571203300005053657120340000D2
:10D5C0005354694D3332000031353031323600006A
:10D5D000316B487A00000000326B487A000000008E
:10D5E000336B487A00000000536571310000000081
:10D5F0005365713200000000536571330000000074
:10D6000053657134000000002020200042617474D2
:10D61000657279204F4B0000426174746572792005
:04D620004C4F570014
:10D62400010000003CD500080400000000000000D8
:10D6340000000000000000000000000000000000E6
:10D644000000000050D5000891CB0008EDCA000886
:10D654000000000060D50008B1CB0008EDCA000846
:10D664000000000074D5000805CD0008E9CC0008CE
:10D67400000000007CD50008CDCC000800000000AC
:10D684000100000000000000000000000000000095
:10D694000000000000000000000000000000000086
:10D6A4000000000000000000000000000000000076
:10D6B4000000000000000000000000000000000066
:10D6C400000000000100000050D500080400000024
:10D6D4000000000000000000000000000000000046
:10D6E400000000000000000088D50008D1CB00082D
:10D6F400EDCA00080000000090D50008F5CB000832
:10D70400EDCA00080000000098D5000819CC0008F4
:10D71400EDCA00080000000074D5000805CD00081B
:10D72400EDCA000800000000000000000000000036
:10D7340000000000000000000000000000000000E5
:10D7440000000000000000000000000000000000D5
:10D7540000000000000000000000000000000000C5
:10D7640000000000000000000100000060D5000877
:10D7740005000000000000000000000000000000A0
:10D78400000000000000000000000000A0D5000818
:10D794003DCC0008EDCA000800000000A8D5000830
:10D7A40061CC0008EDCA000800000000B0D50008F4
:10D7B40085CC0008EDCA000800000000B8D50008B8
:10D7C400A9CC0008EDCA00080000000074D50008C8
:10D7D40005CD0008EDCA00080000000000000000AC
:10D7E4000000000000000000000000000000000035
:10D7F4000000000000000000000000000000000025
:10D804000000000000000000000000000100000013
:040000050800C0101F
:00000001FF
