:020000040800F2
:10C0000040D40008E5C7000839CC00080300000050
:10C0100081F0004102E000BF83F0004330B54FEAF9
:10C0200041044FEA430594EA050F08BF90EA020F66
:10C030001FBF54EA000C55EA020C7FEA645C7FEAF9
:10C04000655C00F0E2804FEA5454D4EB5555B8BF1C
:10C050006D420CDD2C4480EA020281EA030382EA8D
:10C06000000083EA010180EA020281EA0303362D1F
:10C0700088BF30BD11F0004F4FEA01314FF4801CF2
:10C080004CEA113102D0404261EB410113F0004F04
:10C090004FEA03334CEA133302D0524263EB4303BB
:10C0A00094EA050F00F0A780A4F10104D5F1200E59
:10C0B0000DDB02FA0EFC22FA05F2801841F10001B4
:10C0C00003FA0EF2801843FA05F359410EE0A5F188
:10C0D00020050EF1200E012A03FA0EFC28BF4CF0B9
:10C0E000020C43FA05F3C01851EBE37101F000456F
:10C0F00007D54FF0000EDCF1000C7EEB00006EEB7C
:10C100000101B1F5801F1BD3B1F5001F0CD3490805
:10C110005FEA30004FEA3C0C04F101044FEA44525C
:10C1200012F5800F80F09A80BCF1004F08BF5FEAE3
:10C13000500C50F1000041EB045141EA050130BDC3
:10C140005FEA4C0C404141EB010111F4801FA4F166
:10C150000104E9D191F0000F04BF01460020B1FABB
:10C1600081F308BF2033A3F10B03B3F120020CDAF3
:10C170000C3208DD02F1140CC2F10C0201FA0CF0D1
:10C1800021FA02F10CE002F11402D8BFC2F1200C36
:10C1900001FA02F120FA0CFCDCBF41EA0C019040EC
:10C1A000E41AA2BF01EB0451294330BD6FEA040435
:10C1B0001F3C1CDA0C340EDC04F11404C4F1200220
:10C1C00020FA04F001FA02F340EA030021FA04F332
:10C1D00045EA030130BDC4F10C04C4F1200220FA89
:10C1E00002F001FA04F340EA0300294630BD21FAC7
:10C1F00004F0294630BD94F0000F83F4801306BF8D
:10C2000081F480110134013D4EE77FEA645C18BF80
:10C210007FEA655C29D094EA050F08BF90EA020F17
:10C2200005D054EA000C04BF1946104630BD91EA0F
:10C23000030F1EBF0021002030BD5FEA545C05D112
:10C240004000494128BF41F0004130BD14F5800451
:10C250003CBF01F5801130BD01F0004545F0FE41C5
:10C2600041F470014FF0000030BD7FEA645C1ABFFA
:10C27000194610467FEA655C1CBF0B46024650EA31
:10C28000013406BF52EA033591EA030F41F400215D
:10C2900030BD00BF90F0000F04BF0021704730B5E3
:10C2A0004FF4806404F132044FF000054FF00001B8
:10C2B00050E700BF90F0000F04BF0021704730B579
:10C2C0004FF4806404F1320410F0004548BF40424E
:10C2D0004FF000013EE700BF42004FEAE2014FEAA3
:10C2E00031014FEA02701FBF12F07F4393F07F4F7E
:10C2F00081F06051704792F0000F14BF93F07F4FB0
:10C30000704730B54FF4607401F0004521F00041F2
:10C3100020E700BF50EA010208BF704730B54FF078
:10C3200000050AE050EA010208BF704730B511F07D
:10C33000004502D5404261EB41014FF4806404F1B5
:10C3400032045FEA915C3FF4DCAE4FF003025FEA37
:10C35000DC0C18BF03325FEADC0C18BF033202EBBF
:10C36000DC02C2F1200300FA03FC20FA02F001FA19
:10C3700003FE40EA0E0021FA02F11444C1E600BFB8
:10C3800070B54FF0FF0C4CF4E06C1CEA11541DBF6B
:10C390001CEA135594EA0C0F95EA0C0F00F0DEF836
:10C3A0002C4481EA030621EA4C5123EA4C5350EA1B
:10C3B000013518BF52EA033541F4801143F480136C
:10C3C00038D0A0FB02CE4FF00005E1FB02E506F0FD
:10C3D0000042E0FB03E54FF00006E1FB03569CF052
:10C3E000000F18BF4EF0010EA4F1FF04B6F5007F58
:10C3F00064F5407404D25FEA4E0E6D4146EB0606CA
:10C4000042EAC62141EA55514FEAC52040EA5E5052
:10C410004FEACE2EB4F1FD0C88BFBCF5E06F1ED8FC
:10C42000BEF1004F08BF5FEA500E50F1000041EB33
:10C43000045170BD06F0004646EA010140EA0200E0
:10C4400081EA0301B4EB5C04C2BFD4EB0C0541EA02
:10C45000045170BD41F480114FF0000E013C00F317
:10C46000AB8014F1360FDEBF002001F0004170BD3B
:10C47000C4F10004203C35DA0C341BDC04F1140454
:10C48000C4F1200500FA05F320FA04F001FA05F2E0
:10C4900040EA020001F0004221F0004110EBD370AD
:10C4A00021FA04F642EB06015EEA430E08BF20EAD9
:10C4B000D37070BDC4F10C04C4F1200500FA04F37C
:10C4C00020FA05F001FA04F240EA020001F000410E
:10C4D00010EBD37041F100015EEA430E08BF20EA81
:10C4E000D37070BDC4F1200500FA05F24EEA020EC9
:10C4F00020FA04F301FA05F243EA020321FA04F0F8
:10C5000001F0004121FA04F220EA020000EBD370AE
:10C510005EEA430E08BF20EAD37070BD94F0000FAE
:10C520000FD101F00046400041EB010111F4801FE2
:10C5300008BF013CF7D041EA060195F0000F18BF93
:10C54000704703F00046520043EB030313F4801FCF
:10C5500008BF013DF7D043EA0603704794EA0C0F89
:10C560000CEA135518BF95EA0C0F0CD050EA41069F
:10C5700018BF52EA4306D1D181EA030101F000411C
:10C580004FF0000070BD50EA410606BF1046194644
:10C5900052EA430619D094EA0C0F02D150EA013650
:10C5A00013D195EA0C0F05D152EA03361CBF104691
:10C5B00019460AD181EA030101F0004141F0FE4130
:10C5C00041F470014FF0000070BD41F0FE4141F4B4
:10C5D000780170BD70B54FF0FF0C4CF4E06C1CEAB4
:10C5E00011541DBF1CEA135594EA0C0F95EA0C0F69
:10C5F00000F0A7F8A4EB050481EA030E52EA033524
:10C600004FEA013100F088804FEA03334FF0805544
:10C6100045EA131343EA12634FEA022245EA111571
:10C6200045EA10654FEA00260EF000419D4208BF22
:10C63000964244F1FD0404F5407402D25B084FEACF
:10C640003202B61A65EB03055B084FEA32024FF47B
:10C6500080104FF4002CB6EB020E75EB030E22BFD8
:10C66000B61A754640EA0C005B084FEA3202B6EB98
:10C67000020E75EB030E22BFB61A754640EA5C0047
:10C680005B084FEA3202B6EB020E75EB030E22BFD7
:10C69000B61A754640EA9C005B084FEA3202B6EBD8
:10C6A000020E75EB030E22BFB61A754640EADC0097
:10C6B00055EA060E18D04FEA051545EA16754FEAF9
:10C6C00006164FEAC30343EA52734FEAC2025FEA17
:10C6D0001C1CC0D111F4801F0BD141EA00014FF0A6
:10C6E00000004FF0004CB6E711F4801F04BF014377
:10C6F0000020B4F1FD0C88BFBCF5E06F3FF6AFAE93
:10C70000B5EB030C04BFB6EB020C5FEA500C50F122
:10C71000000041EB045170BD0EF0004E4EEA1131A5
:10C7200014EB5C04C2BFD4EB0C0541EA045170BDAC
:10C7300041F480114FF0000E013C90E645EA060EF0
:10C740008DE60CEA135594EA0C0F08BF95EA0C0F1E
:10C750003FF43BAF94EA0C0F0AD150EA01347FF466
:10C7600034AF95EA0C0F7FF425AF104619462CE73D
:10C7700095EA0C0F06D152EA03353FF4FDAE1046A0
:10C78000194622E750EA410618BF52EA43067FF4F1
:10C79000C5AE50EA41047FF40DAF52EA43057FF481
:10C7A000EBAE12E74A0011D212F5001211D20DD5EC
:10C7B0006FF47873B3EB62520ED44FEAC12343F0A7
:10C7C000004343EA505323FA02F070474FF0000051
:10C7D000704750EA013002D14FF0FF3070474FF000
:10C7E0000000704710B5002103E00C4BCB580B50F4
:10C7F00004310B480B4B0A189A42F6D30A4A02E05E
:10C80000002342F8043B094B9A42F9D34FF480735A
:10C810001A68074B1A6000F055F910BDE8D40008FB
:10C8200000000020F0010020F00100203C03002067
:10C8300038030020B0B584B000AF0023BB600023F4
:10C840007B60944B1B68591C924A1160924A528833
:10C85000B3FBF2F102FB01F29B1A002B00D016E1B0
:10C860008E4B1B88B3F57A7F06D28D4B1B88013B1C
:10C870001A468C4B1A604CE0884B1A8840F6B73346
:10C880009A423BD8864B1B881846FFF713FD044697
:10C890000D46824B1B8807EE103AF8EE477A17EEEA
:10C8A000900AFFF719FD02460B46104619464FF055
:10C8B00000027D4BFFF7B0FB02460B4610461946BF
:10C8C0004FF00002794BFFF785FE02460B461046FB
:10C8D00019464FF00002764BFFF752FD02460B4619
:10C8E00020462946FFF79AFB02460B46104619469A
:10C8F000FFF758FF02466B4B1A600AE0674B1B8834
:10C90000B3F57A6F05D2664B1B8864331A46654BC4
:10C910001A60624B1B885A1C91B2604A1180B3F5B1
:10C920007A6F02D15D4B00221A80022000F09CFB3E
:10C93000594BDB88FB6000BFFB685A1EFA60002B76
:10C94000FAD1554B9B89002B0BD0002000F08CFBBB
:10C95000514B9B89FB6000BFFB685A1EFA60002B9D
:10C96000FAD1022000F080FB4B4B5B8AFB6000BFDA
:10C97000FB685A1EFA60002BFAD1474B1B8B002B29
:10C980000BD0042000F070FB434B1B8BFB6000BFFF
:10C99000FB685A1EFA60002BFAD1022000F064FBFB
:10C9A000444B1B78032B72D801A252F823F000BF2E
:10C9B000C1C90008F9C9000861CA000831CA0008E5
:10C9C0003D4B1B68D3F880310120012198473A4B39
:10C9D0001B68D3F88031002000219847314B1A683A
:10C9E0002F4B1B889A4206D3324B02221A70334BCC
:10C9F00000221A604BE04AE02F4B1B68D3F88031CD
:10CA00000120002198472C4B1B68D3F8803100206F
:10CA100001219847234B1A68294B1B889A4206D854
:10CA2000244B03221A70254B00221A602FE02EE0BF
:10CA30001C4B1A68224B1B889A4203D91D4B0122BA
:10CA40001A700CE01D4B1B685A1C1C4B1A601B4BC8
:10CA50001B680A2B03D1174B00221A7017E016E04F
:10CA6000104B1A680E4B1B889A4203D2114B0022BE
:10CA70001A700BE0114B1B685A1C104B1A600F4BBD
:10CA80001B680A2B02D10B4B01221A7000BF103712
:10CA9000BD46B0BD24030020F4010020280300207F
:10CAA0001A0200201002002000408F4000409F40EA
:10CAB0000000594018020020380300202C030020F9
:10CAC0001C02002080B586B000AF514B1B68D3F824
:10CAD0005031002098474E4B1B68D3F83433042064
:10CAE0000A2198474A4B1B68D3F8B8320A20984766
:10CAF000474B1B68D3F8EC32464A0D201146984745
:10CB0000434B1B68D3F834330D2001219847404B29
:10CB10001B68D3F8C032052098473F4B03221A7098
:10CB20003D4B00229A803C4B0A221A813A4B4FF42B
:10CB3000FA725A81384B0A22DA81374B0A221A825A
:10CB4000354B0A229A82344B3222DA82324B0A2245
:10CB50005A8300F0F5F90020002100F0DDFA2F4B98
:10CB600000221A702E4B00221A702E4B0A221A80B5
:10CB70002D4B0A221A8004233B7000237B70012373
:10CB8000BB700023FB7000233B7100237B710023EB
:10CB9000BB71264BBB608023FB60254B3B61802330
:10CBA0007B611B4B1B68D3F820323A46212011468B
:10CBB00000229847164B1B68D3F820320820042126
:10CBC00000229847124B1B68D3F824320820012119
:10CBD000002298470E4B1B68D3F8203223200021F7
:10CBE000002298470D4B02221A700320002100F00A
:10CBF00093FA074B1B68D3F828330E4A4FF4FA60B8
:10CC000011469847042318461837BD4680BD00BF1B
:10CC10003803002035C80008F4010020F00100208E
:10CC2000180200201A0200201C020020200200200E
:10CC3000A0020020C5CC000880B500AF1D4B1B78BA
:10CC4000012B03D0022B0FD0002B0FE01A4B1B68D7
:10CC5000D3F8043200209847164B00221A700220A5
:10CC6000002100F059FA01E0012321E00120002118
:10CC700000F052FA114B1B685A1C104B1A600E4BF5
:10CC80001B68D3F8003298470346DBB25BB2012B36
:10CC90000DD1094B1B68D3F80C329847064B1B6823
:10CCA000D3F88032064A10469847032300E0012358
:10CCB000184680BDF001002038030020300300201A
:10CCC0000000002080B500AF034B00221A70002046
:10CCD000002100F021FA80BDF001002080B500AFF6
:10CCE000044B1B68D3F88032034A1046984703234D
:10CCF000184680BD38030020A400002080B500AF96
:10CD0000044B1B68D3F88032034A1046984703232C
:10CD1000184680BD380300204801002080B500AFD0
:10CD2000054B01221A7000F00BF9044B01221A7016
:10CD30000423184680BD00BFF4010020F00100204C
:10CD400080B500AF054B02221A7000F0F9F8044BD1
:10CD500001221A700423184680BD00BFF401002090
:10CD6000F001002080B500AF054B03221A7000F0DF
:10CD7000E7F8044B01221A700423184680BD00BF57
:10CD8000F4010020F001002080B500AF084B3222F2
:10CD90005A81074B32221A82054B0022DA8200F0B8
:10CDA000CFF8044B01221A700423184680BD00BF3F
:10CDB000F4010020F001002080B500AF084B0022F4
:10CDC0005A81074B32221A82054B3222DA8200F056
:10CDD000B7F8044B01221A700423184680BD00BF27
:10CDE000F4010020F001002080B400AF084B322293
:10CDF0005A81074B32221A82054B3222DA82054BC6
:10CE000001221A7004231846BD465DF8047B704762
:10CE1000F4010020F001002080B400AF094B4FF472
:10CE2000C8725A81074B00221A82064B0022DA820E
:10CE3000054B01221A7004231846BD465DF8047B99
:10CE4000704700BFF4010020F001002080B500AF62
:10CE50002A4B01221A702A4B1B68D3F80C329847D0
:10CE6000274B1B68D3F8043201209847244B1B68DA
:10CE7000D3F844319847224B1B68D3F83031012056
:10CE800098471F4B1B68D3F8903298471C4B1B6880
:10CE9000D3F8803098471A4B1B68D3F8A83001208C
:10CEA0009847174B1B68D3F884309847144B1B687E
:10CEB0009B6901209847124B1B68D3F8C0320320AE
:10CEC00098470F4B1B68D3F8EC320D200021984790
:10CED0000B4B1B68D3F88031002000219847084B8A
:10CEE0001B68D3F88031012000219847044B1B6850
:10CEF000D3F8A83298470346184680BDF0010020B9
:10CF00003803002080B400AF044B01221A700623BE
:10CF10001846BD465DF8047B704700BFF001002055
:10CF200080B400AF044B01221A7004231846BD469A
:10CF30005DF8047B704700BFF00100200000000096
:10CF400080B500AF464B9B8807EE103AF8EE477A63
:10CF500017EE900AFFF7C0F902460B461046194635
:10CF60003DA3D3E90023FFF70BFA02460B46104618
:10CF70001946FFF717FC03469AB2394BDA80384B53
:10CF80005B8907EE103AF8EE477A17EE900AFFF742
:10CF9000A3F902460B46104619462FA3D3E90023F6
:10CFA000FFF7EEF902460B4610461946FFF7FAFB6B
:10CFB00003469AB22A4B9A81294B1B8A07EE103AF4
:10CFC000F8EE477A17EE900AFFF786F902460B460D
:10CFD0001046194620A3D3E90023FFF7D1F90246F2
:10CFE0000B4610461946FFF7DDFB03469AB21C4B71
:10CFF0005A821B4BDB8A07EE103AF8EE477A17EE9F
:10D00000900AFFF769F902460B461046194612A32B
:10D01000D3E90023FFF7B4F902460B461046194640
:10D02000FFF7C0FB03469AB20D4B1A830C4B1B78DB
:10D03000022B07D0032B09D0012B0BD1084B032265
:10D040005A8007E0064B01225A8003E0044B01227C
:10D050005A8000BF80BD00BF1F85EB51B81E1F4026
:10D06000F4010020AFF3008080B586B000AF034626
:10D07000FB7101233B610123FB60FB79042B21D869
:10D0800001A252F823F000BF9DD00008A5D00008EF
:10D09000ADD00008B5D00008BDD000081C4B7F22E1
:10D0A0001A700FE01A4B5F221A700BE0184B3F22E8
:10D0B0001A7007E0164B1F221A7003E0144B00226F
:10D0C0001A7000BF134B1B68D3F8243208200021CC
:10D0D000002298474FF4C8737B6100BF7B695A1EDA
:10D0E0007A61002BFAD10B4B1B68D3F82432084924
:10D0F00007F1100221209847064B1B68D3F8243211
:10D1000008200121002298471837BD4680BD00BF86
:10D11000340300203803002090B58FB002AF0246E0
:10D120000B46FA71BB800823FB85904BBB62FB79F1
:10D13000032B00F27A8101A252F823F04DD10008AE
:10D14000CBD100084DD1000885D30008884B0122BF
:10D150001A70884B00221A80874B1B68D3F8A830BE
:10D1600001209847844B1B68D3F8B0304FF6FF700E
:10D170009847814B1B68D3F8B83048F201009847B4
:10D180007D4B1B68D3F8184148F20103009300203F
:10D190000021F0221E23A047774B1B68D3F81841CB
:10D1A00046F20813009300201E21F0229623A04788
:10D1B000714B1B68D3F818414FF48853009300203B
:10D1C000B421F0223C23A0472FE16B4B1B68D3F81E
:10D1D000CC4207F10802694B1B681046194604222D
:10D1E0000023A047644B1B68D3F8CC4207F1080228
:10D1F000624B5B681046194604220023A0475E4B31
:10D200001B68D3F8A830042098475B4B1B68D3F801
:10D21000B0304EF2FF009847574B1B68D3F8B83038
:10D220004FF488509847544B1B68D3F8DC4007F103
:10D23000080300220092002201920020B4211A4625
:10D240000023A0474C4B1B68D3F8A8300120984717
:10D25000494B1B68D3F8B0304FF6FF709847464BE8
:10D260001B68D3F8B83048F201009847444B1B784C
:10D27000032B73D801A252F823F000BF8DD200080F
:10D28000B5D200088DD20008B5D20008384B1B7803
:10D29000002B0BD0384B1B68D3F8184146F208130B
:10D2A000009300201E21F0229623A047304B00223D
:10D2B0001A7053E02E4B1B78012B0FD02E4B1B689E
:10D2C000D3F8184146F20813009300201E21F022E3
:10D2D0009623A047274B00221A8033E0274B1B6878
:10D2E00007EE903AB8EE677AD7ED0A7A67EE277ABA
:10D2F000FCEEE77A17EE903AFB841F4B1B68D3F8DD
:10D3000018411C4B1B881A46FB8D4FF6FF7100918C
:10D3100010461E211A469623A047174B1B68D3F8C8
:10D320001841144B1B881946FA8DFB8CF82000908D
:10D3300008461E21A0470F4B1A88FB8D13449AB252
:10D340000C4B1A800A4B01221A700A4B1B88F02BD7
:10D3500003D9074B00221A70FFE700BF064B1B687A
:10D36000D3F898300A200A2198475EE0CDCCCC3D16
:10D37000EC010020360300203803002010020020BA
:10D38000180200202A4B1B68D3F8A83002209847C7
:10D39000274B1B68D3F8B0304EF207009847244B58
:10D3A0001B68D3F8184140F6FC03009300200021CD
:10D3B000F022F023A0471E4B1B68D3F8DC401D4B26
:10D3C00001220092012201920020B4211A464FF05E
:10D3D000FF33A047164B1B68D3F8A83001209847AD
:10D3E000134B1B68D3F8DC40134B0122009201223F
:10D3F00001920020A0211A464FF0FF33A0470C4BAA
:10D400001B68D3F8A83001209847094B1B68D3F854
:10D41000DC400A4B0022009201220192002064218C
:10D420001A464FF0FF33A04700BF3437BD4690BDCA
:10D4300038030020CCD40008D4D40008DCD4000881
:10D440005354694D33320000000000005354694DBD
:10D450003332204D61696E204D656E75000000000D
:10D46000536574204672657175656E6379000000BE
:10D470005365742050756C736520447572617469CE
:10D480006F6E000043616E63656C000051756974D6
:10D49000000000002031206B487A20002032206BF1
:10D4A000487A20002033206B487A2000504475725F
:10D4B00020310000504475722032000050447572D3
:10D4C0002033000050447572203400005354694DDD
:10D4D0003332000031343132333000004261747431
:08D4E0006572793A204F4B0000
:10D4E800010000004CD40008040000000000000007
:10D4F8000000000000000000000000000000000024
:10D508000000000060D40008DDCC000839CC000819
:10D518000000000070D40008FDCC000839CC0008D9
:10D528000000000084D4000821CF000805CF0008BF
:10D53800000000008CD400084DCE00080000000058
:10D5480001000000000000000000000000000000D2
:10D5580000000000000000000000000000000000C3
:10D5680000000000000000000000000000000000B3
:10D5780000000000000000000000000000000000A3
:10D58800000000000100000060D400080400000052
:10D598000000000000000000000000000000000083
:10D5A800000000000000000094D400081DCD000811
:10D5B80039CC0008000000009CD4000841CD0008C8
:10D5C80039CC000800000000A4D4000865CD00088C
:10D5D80039CC00080000000084D4000821CF0008DE
:10D5E80039CC000800000000000000000000000026
:10D5F8000000000000000000000000000000000023
:10D608000000000000000000000000000000000012
:10D618000000000000000000000000000000000002
:10D6280000000000000000000100000070D40008A5
:10D6380005000000000000000000000000000000DD
:10D64800000000000000000000000000ACD400084A
:10D6580089CD000839CC000800000000B4D40008C7
:10D66800B9CD000839CC000800000000BCD400087F
:10D67800E9CD000839CC000800000000C4D4000837
:10D6880019CE000839CC00080000000084D4000836
:10D6980021CF000839CC000800000000000000007D
:10D6A8000000000000000000000000000000000072
:10D6B8000000000000000000000000000000000062
:10D6C8000000000000000000000000000100000051
:040000050800C0101F
:00000001FF
