:020000040800F2
:10C0000078DC000831CE0008C1D100080300000030
:10C01000032A2DE9F00109D82AB10023CC5CC454CD
:10C0200001339342FAD1BDE8F00170470B46821804
:10C03000014603E02478013301F8014B11F0030FAE
:10C040001C46F7D113F003055DD06E42C5F1040C18
:10C05000ED009B594FEACC0C08E00434A7593B464D
:10C0600007FA0CF748EA070741F8047B571A23FA46
:10C0700005F8032FF1DC03E014F8013B01F8013B64
:10C080008A42F9D8CFE753F8404C41F8404C53F876
:10C090003C4C41F83C4C53F8384C41F8384C53F880
:10C0A000344C41F8344C53F8304C41F8304C53F890
:10C0B0002C4C41F82C4C53F8284C41F8284C53F8A0
:10C0C000244C41F8244C53F8204C41F8204C53F8B0
:10C0D0001C4C41F81C4C53F8184C41F8184C53F8C0
:10C0E000144C41F8144C53F8104C41F8104C53F8D0
:10C0F0000C4C41F80C4C53F8084C41F8084C53F8E0
:10C10000044C41F8044C561A1D460C46403340314D
:10C110003F2EB8DC2B460FE053F8101C44F8101CDF
:10C1200053F80C1C44F80C1C53F8081C44F8081C69
:10C1300053F8041C44F8041C161B21461D461034F9
:10C1400010330F2EE8DC2B4602E0246841F8044B44
:10C15000551A1C46032D03F10403F6DC90E700BFDB
:10C1600081F0004102E000BF83F0004330B54FEAA8
:10C1700041044FEA430594EA050F08BF90EA020F15
:10C180001FBF54EA000C55EA020C7FEA645C7FEAA8
:10C19000655C00F0E2804FEA5454D4EB5555B8BFCB
:10C1A0006D420CDD2C4480EA020281EA030382EA3C
:10C1B000000083EA010180EA020281EA0303362DCE
:10C1C00088BF30BD11F0004F4FEA01314FF4801CA1
:10C1D0004CEA113102D0404261EB410113F0004FB3
:10C1E0004FEA03334CEA133302D0524263EB43036A
:10C1F00094EA050F00F0A780A4F10104D5F1200E08
:10C200000DDB02FA0EFC22FA05F2801841F1000162
:10C2100003FA0EF2801843FA05F359410EE0A5F136
:10C2200020050EF1200E012A03FA0EFC28BF4CF067
:10C23000020C43FA05F3C01851EBE37101F000451D
:10C2400007D54FF0000EDCF1000C7EEB00006EEB2A
:10C250000101B1F5801F1BD3B1F5001F0CD34908B4
:10C260005FEA30004FEA3C0C04F101044FEA44520B
:10C2700012F5800F80F09A80BCF1004F08BF5FEA92
:10C28000500C50F1000041EB045141EA050130BD72
:10C290005FEA4C0C404141EB010111F4801FA4F115
:10C2A0000104E9D191F0000F04BF01460020B1FA6A
:10C2B00081F308BF2033A3F10B03B3F120020CDAA2
:10C2C0000C3208DD02F1140CC2F10C0201FA0CF080
:10C2D00021FA02F10CE002F11402D8BFC2F1200CE5
:10C2E00001FA02F120FA0CFCDCBF41EA0C0190409B
:10C2F000E41AA2BF01EB0451294330BD6FEA0404E4
:10C300001F3C1CDA0C340EDC04F11404C4F12002CE
:10C3100020FA04F001FA02F340EA030021FA04F3E0
:10C3200045EA030130BDC4F10C04C4F1200220FA37
:10C3300002F001FA04F340EA0300294630BD21FA75
:10C3400004F0294630BD94F0000F83F4801306BF3B
:10C3500081F480110134013D4EE77FEA645C18BF2F
:10C360007FEA655C29D094EA050F08BF90EA020FC6
:10C3700005D054EA000C04BF1946104630BD91EABE
:10C38000030F1EBF0021002030BD5FEA545C05D1C1
:10C390004000494128BF41F0004130BD14F5800400
:10C3A0003CBF01F5801130BD01F0004545F0FE4174
:10C3B00041F470014FF0000030BD7FEA645C1ABFA9
:10C3C000194610467FEA655C1CBF0B46024650EAE0
:10C3D000013406BF52EA033591EA030F41F400210C
:10C3E00030BD00BF90F0000F04BF0021704730B592
:10C3F0004FF4806404F132044FF000054FF0000167
:10C4000050E700BF90F0000F04BF0021704730B527
:10C410004FF4806404F1320410F0004548BF4042FC
:10C420004FF000013EE700BF42004FEAE2014FEA51
:10C4300031014FEA02701FBF12F07F4393F07F4F2C
:10C4400081F06051704792F0000F14BF93F07F4F5E
:10C45000704730B54FF4607401F0004521F00041A1
:10C4600020E700BF50EA010208BF704730B54FF027
:10C4700000050AE050EA010208BF704730B511F02C
:10C48000004502D5404261EB41014FF4806404F164
:10C4900032045FEA915C3FF4DCAE4FF003025FEAE6
:10C4A000DC0C18BF03325FEADC0C18BF033202EB6E
:10C4B000DC02C2F1200300FA03FC20FA02F001FAC8
:10C4C00003FE40EA0E0021FA02F11444C1E600BF67
:10C4D00070B54FF0FF0C4CF4E06C1CEA11541DBF1A
:10C4E0001CEA135594EA0C0F95EA0C0F00F0DEF8E5
:10C4F0002C4481EA030621EA4C5123EA4C5350EACA
:10C50000013518BF52EA033541F4801143F480131A
:10C5100038D0A0FB02CE4FF00005E1FB02E506F0AB
:10C520000042E0FB03E54FF00006E1FB03569CF000
:10C53000000F18BF4EF0010EA4F1FF04B6F5007F06
:10C5400064F5407404D25FEA4E0E6D4146EB060678
:10C5500042EAC62141EA55514FEAC52040EA5E5001
:10C560004FEACE2EB4F1FD0C88BFBCF5E06F1ED8AB
:10C57000BEF1004F08BF5FEA500E50F1000041EBE2
:10C58000045170BD06F0004646EA010140EA02008F
:10C5900081EA0301B4EB5C04C2BFD4EB0C0541EAB1
:10C5A000045170BD41F480114FF0000E013C00F3C6
:10C5B000AB8014F1360FDEBF002001F0004170BDEA
:10C5C000C4F10004203C35DA0C341BDC04F1140403
:10C5D000C4F1200500FA05F320FA04F001FA05F28F
:10C5E00040EA020001F0004221F0004110EBD3705C
:10C5F00021FA04F642EB06015EEA430E08BF20EA88
:10C60000D37070BDC4F10C04C4F1200500FA04F32A
:10C6100020FA05F001FA04F240EA020001F00041BC
:10C6200010EBD37041F100015EEA430E08BF20EA2F
:10C63000D37070BDC4F1200500FA05F24EEA020E77
:10C6400020FA04F301FA05F243EA020321FA04F0A6
:10C6500001F0004121FA04F220EA020000EBD3705D
:10C660005EEA430E08BF20EAD37070BD94F0000F5D
:10C670000FD101F00046400041EB010111F4801F91
:10C6800008BF013CF7D041EA060195F0000F18BF42
:10C69000704703F00046520043EB030313F4801F7E
:10C6A00008BF013DF7D043EA0603704794EA0C0F38
:10C6B0000CEA135518BF95EA0C0F0CD050EA41064E
:10C6C00018BF52EA4306D1D181EA030101F00041CB
:10C6D0004FF0000070BD50EA410606BF10461946F3
:10C6E00052EA430619D094EA0C0F02D150EA0136FF
:10C6F00013D195EA0C0F05D152EA03361CBF104640
:10C7000019460AD181EA030101F0004141F0FE41DE
:10C7100041F470014FF0000070BD41F0FE4141F462
:10C72000780170BD70B54FF0FF0C4CF4E06C1CEA62
:10C7300011541DBF1CEA135594EA0C0F95EA0C0F17
:10C7400000F0A7F8A4EB050481EA030E52EA0335D2
:10C750004FEA013100F088804FEA03334FF08055F3
:10C7600045EA131343EA12634FEA022245EA111520
:10C7700045EA10654FEA00260EF000419D4208BFD1
:10C78000964244F1FD0404F5407402D25B084FEA7E
:10C790003202B61A65EB03055B084FEA32024FF42A
:10C7A00080104FF4002CB6EB020E75EB030E22BF87
:10C7B000B61A754640EA0C005B084FEA3202B6EB47
:10C7C000020E75EB030E22BFB61A754640EA5C00F6
:10C7D0005B084FEA3202B6EB020E75EB030E22BF86
:10C7E000B61A754640EA9C005B084FEA3202B6EB87
:10C7F000020E75EB030E22BFB61A754640EADC0046
:10C8000055EA060E18D04FEA051545EA16754FEAA7
:10C8100006164FEAC30343EA52734FEAC2025FEAC5
:10C820001C1CC0D111F4801F0BD141EA00014FF054
:10C8300000004FF0004CB6E711F4801F04BF014325
:10C840000020B4F1FD0C88BFBCF5E06F3FF6AFAE41
:10C85000B5EB030C04BFB6EB020C5FEA500C50F1D1
:10C86000000041EB045170BD0EF0004E4EEA113154
:10C8700014EB5C04C2BFD4EB0C0541EA045170BD5B
:10C8800041F480114FF0000E013C90E645EA060E9F
:10C890008DE60CEA135594EA0C0F08BF95EA0C0FCD
:10C8A0003FF43BAF94EA0C0F0AD150EA01347FF415
:10C8B00034AF95EA0C0F7FF425AF104619462CE7EC
:10C8C00095EA0C0F06D152EA03353FF4FDAE10464F
:10C8D000194622E750EA410618BF52EA43067FF4A0
:10C8E000C5AE50EA41047FF40DAF52EA43057FF430
:10C8F000EBAE12E74A0011D212F5001211D20DD59B
:10C900006FF47873B3EB62520ED44FEAC12343F055
:10C91000004343EA505323FA02F070474FF00000FF
:10C92000704750EA013002D14FF0FF3070474FF0AE
:10C930000000704780F0004002E000BF81F000413D
:10C9400042001FBF5FEA410392EA030F7FEA226CB5
:10C950007FEA236C6AD04FEA1262D2EB1363C1BF45
:10C96000D218414048404140B8BF5B42192B88BFB4
:10C97000704710F0004F40F4000020F07F4018BFD7
:10C98000404211F0004F41F4000121F07F4118BFF7
:10C99000494292EA030F3FD0A2F1010241FA03FC9F
:10C9A00010EB0C00C3F1200301FA03F100F0004387
:10C9B00002D5494260EB4000B0F5000F13D3B0F14F
:10C9C000807F06D340084FEA310102F10102FE2ABE
:10C9D00051D2B1F1004F40EBC25008BF20F001002E
:10C9E00040EA03007047490040EB000010F4000FDC
:10C9F000A2F10102EDD1B0FA80FCACF1080CB2EB6F
:10CA00000C0200FA0CF0AABF00EBC25052421843CD
:10CA1000BCBFD0401843704792F0000F81F4000172
:10CA200006BF80F400000132013BB5E74FEA410345
:10CA30007FEA226C18BF7FEA236C21D092EA030FB1
:10CA400004D092F0000F08BF0846704790EA010F2B
:10CA50001CBF0020704712F07F4F04D1400028BF58
:10CA600040F00040704712F100723CBF00F500003A
:10CA7000704700F0004343F0FE4040F40000704770
:10CA80007FEA226216BF08467FEA2363014642021C
:10CA900006BF5FEA412390EA010F40F4800070472F
:10CAA0004FF0000304E000BF10F0004348BF4042D5
:10CAB0005FEA000C08BF704743F0964301464FF011
:10CAC00000001CE050EA010208BF70474FF000036D
:10CAD0000AE000BF50EA010208BF704711F00043AE
:10CAE00002D5404261EB41015FEA010C02BF84467E
:10CAF0000146002043F0B64308BFA3F18053A3F5DD
:10CB00000003BCFA8CF2083AA3EBC25310DB01FA23
:10CB100002FC634400FA02FCC2F12002BCF1004FA7
:10CB200020FA02F243EB020008BF20F00100704738
:10CB300002F1200201FA02FCC2F1200250EA4C008C
:10CB400021FA02F243EB020008BF20EADC707047D2
:10CB50004FF0FF0C1CEAD0521EBF1CEAD15392EAE0
:10CB60000C0F93EA0C0F6FD01A4480EA010C4002BC
:10CB700018BF5FEA41211ED04FF0006343EA501016
:10CB800043EA5111A0FB01310CF00040B1F5000F58
:10CB90003EBF490041EAD3715B0040EA010062F107
:10CBA0007F02FD2A1DD8B3F1004F40EBC25008BFF1
:10CBB00020F00100704790F0000F0CF0004C08BF0F
:10CBC00049024CEA502040EA51207F3AC2BFD2F1DC
:10CBD000FF0340EAC250704740F400004FF00003EA
:10CBE000013A5DDC12F1190FDCBF00F00040704724
:10CBF000C2F10002410021FA02F1C2F1200200FA62
:10CC000002FC5FEA310040F1000053EA4C0308BF28
:10CC100020EADC70704792F0000F00F0004C02BF79
:10CC2000400010F4000F013AF9D040EA0C0093F0F4
:10CC3000000F01F0004C02BF490011F4000F013B4E
:10CC4000F9D041EA0C018FE70CEAD15392EA0C0FBC
:10CC500018BF93EA0C0F0AD030F0004C18BF31F027
:10CC6000004CD8D180EA010000F00040704790F0FD
:10CC7000000F17BF90F0004F084691F0000F91F0A1
:10CC8000004F14D092EA0C0F01D142020FD193EA67
:10CC90000C0F03D14B0218BF084608D180EA0100EF
:10CCA00000F0004040F0FE4040F40000704740F0CB
:10CCB000FE4040F4400070474FF0FF0C1CEAD05299
:10CCC0001EBF1CEAD15392EA0C0F93EA0C0F69D0F5
:10CCD000A2EB030280EA010C49024FEA402037D060
:10CCE0004FF0805343EA111143EA10130CF0004057
:10CCF0008B4238BF5B0042F17D024FF4000C8B4247
:10CD000024BF5B1A40EA0C00B3EB510F24BFA3EB26
:10CD1000510340EA5C00B3EB910F24BFA3EB9103F6
:10CD200040EA9C00B3EBD10F24BFA3EBD10340EA50
:10CD3000DC001B0118BF5FEA1C1CE0D1FD2A3FF696
:10CD400050AF8B4240EBC25008BF20F0010070474B
:10CD50000CF0004C4CEA50207F32C2BFD2F1FF03EE
:10CD600040EAC250704740F400004FF00003013A1F
:10CD700037E792F0000F00F0004C02BF400010F4C3
:10CD8000000F013AF9D040EA0C0093F0000F01F0D7
:10CD9000004C02BF490011F4000F013BF9D041EAF9
:10CDA0000C0195E70CEAD15392EA0C0F08D142022C
:10CDB0007FF47DAF93EA0C0F7FF470AF084676E7FF
:10CDC00093EA0C0F04D14B023FF44CAF08466EE7D8
:10CDD00030F0004C18BF31F0004CCAD130F00042A6
:10CDE0007FF45CAF31F000437FF43CAF5FE700BFFE
:10CDF00042000ED2B2F1FE4F0BD34FF09E03B3EBC5
:10CE0000126209D44FEA002343F0004323FA02F0F0
:10CE100070474FF00000704712F1610F01D14202DC
:10CE200002D14FF0FF3070474FF00000704700BF55
:10CE300010B5002103E00C4BCB580B5004310B48CC
:10CE40000B4B0A189A42F6D30A4A02E0002342F832
:10CE5000043B094B9A42F9D34FF480731A68074B8D
:10CE60001A6000F0E7F810BD2CDD0008000000207B
:10CE7000F0010020F00100204403002040030020C6
:10CE800080B582B000AF634B1B68634A5288B3FB26
:10CE9000F2F102FB01F29A1A002A0CBF00220122D1
:10CEA000D2B203F101015B4B1960002A40F0A4806B
:10CEB000594B1B79002B02D0012B03D016E000F058
:10CEC00007FC13E000F004FC534B1B897B607B687C
:10CED000002B0CBF00230123DBB27A6802F1FF3282
:10CEE0007A60002BF3D100F0F3FB00BF4B4B1B78B3
:10CEF000032B00F28A8001A252F823F00DCF000824
:10CF00004FCF0008C5CF000891CF0008444B1B68E5
:10CF1000D3F880314FF001004FF001019847404BAA
:10CF20001B68D3F880314FF000004FF000019847A4
:10CF30003C4B1A683C4B1B889A425FD3374B4FF0EF
:10CF400002021A70394B4FF000021A605DE0344B58
:10CF50001B68D3F880314FF001004FF00001984773
:10CF60002F4B1B68D3F880314FF000004FF00101C8
:10CF700098472C4B1A682E4B1B889A4240D8274B57
:10CF80004FF003021A70294B4FF000021A603CE088
:10CF9000244B1A68264B1B889A4204D91F4B4FF02A
:10CFA00001021A7031E0214B1B6803F101021F4B93
:10CFB0001A601E4B1B680A2B24D1184B4FF000023D
:10CFC0001A7022E0174B1A68174B1B889A4204D23A
:10CFD000124B4FF000021A7017E0144B1B6803F15C
:10CFE0000102124B1A60114B1B680A2B0CD10B4B20
:10CFF0004FF001021A7008E000BF06E000BF04E035
:10D0000000BF02E000BF00E000BF07F10807BD4617
:10D0100080BD00BF38030020F40100201C02002066
:10D0200040030020180200201E0200203C030020C4
:10D030002002002080B586B000AF584B1B68D3F8A3
:10D0400050314FF000009847544B1B68D3F83433ED
:10D050004FF004004FF00A019847504B1B68D3F87B
:10D06000B8324FF00A0098474C4B1B68D3F8EC32AB
:10D070004B4A4FF00D0011469847484B1B68D3F8B8
:10D0800034334FF00D004FF001019847434B1B68BC
:10D09000D3F8C0324FF00500984700F0BDFD00F016
:10D0A00013F900F04DF94FF000004FF0000100F0CF
:10D0B000DDFB3C4B4FF000021A703B4B4FF000027F
:10D0C0001A703A4B4FF00A021A80394B4FF00A029D
:10D0D0001A804FF004033B704FF000037B704FF059
:10D0E0000103BB704FF00003FB704FF000033B7176
:10D0F0004FF000037B714FF00003BB712D4BBB6001
:10D100004FF08003FB602C4B3B614FF080037B6151
:10D11000224B1B68D3F820323A464FF021001146CB
:10D120004FF0000298471D4B1B68D3F820324FF098
:10D1300008004FF004014FF000029847174B1B689E
:10D14000D3F824324FF008004FF001014FF00002F5
:10D150009847124B1B68D3F820324FF023004FF052
:10D1600000014FF0000298470E4B4FF002021A7078
:10D170004FF003004FF0000100F078FB074B1B68F5
:10D18000D3F828330D4A4FF4FA60114698474FF010
:10D190000403184607F11807BD4680BD4003002070
:10D1A00081CE0008F00100201C0200201E02002099
:10D1B0002002002024020020A402002061D20008E6
:10D1C00080B500AF224B1B78012B03D0022B13D06C
:10D1D000002B14E01F4B1B68D3F804324FF0000003
:10D1E00098471B4B4FF000021A704FF002004FF0AF
:10D1F000000100F03BFB02E04FF0010326E04FF09E
:10D2000001004FF0000100F031FB134B1B6803F1EC
:10D210000102114B1A600F4B1B68D3F8003298477C
:10D220000346DBB25BB2012B0ED10A4B1B68D3F86D
:10D230000C329847074B1B68D3F88032074A1046D8
:10D2400098474FF0030301E04FF00103184680BDFB
:10D25000F0010020400300203403002000000020E3
:10D2600080B500AF054B4FF000021A704FF0000080
:10D270004FF0000100F0FAFA80BD00BFF00100207D
:10D2800080B500AF054B1B68D3F88032044A1046C6
:10D2900098474FF00303184680BD00BF40030020AD
:10D2A000A400002080B500AF054B1B68D3F8803286
:10D2B000044A104698474FF00303184680BD00BF4C
:10D2C000400300204801002080B500AF064B4FF01E
:10D2D00001021A7000F038F9044B4FF001021A7085
:10D2E0004FF00403184680BDF4010020F001002037
:10D2F00080B500AF064B4FF002021A7000F024F91F
:10D30000044B4FF001021A704FF00403184680BD21
:10D31000F4010020F001002080B500AF064B4FF073
:10D3200003021A7000F010F9044B4FF001021A705A
:10D330004FF00403184680BDF4010020F0010020E6
:10D3400080B500AF0C4B4FF0C8021A820A4B4FF069
:10D350003202DA82084B4FF000029A83064B4FF0FC
:10D36000C802DA8000F0F0F8044B4FF001021A70A6
:10D370004FF00403184680BDF4010020F0010020A6
:10D3800080B500AF0C4B4FF000021A820A4B4FF0F1
:10D390003202DA82084B4FF032029A83064B4FF486
:10D3A000C872DA8000F0D0F8044B4FF001021A7016
:10D3B0004FF00403184680BDF4010020F001002066
:10D3C00080B500AF0C4B4FF032021A820A4B4FF07F
:10D3D0003202DA82084B4FF032029A83064B4FF446
:10D3E000C872DA8000F0B0F8044B4FF001021A70F6
:10D3F0004FF00403184680BDF4010020F001002026
:10D4000080B500AF0C4B4FF4C8721A820A4B4FF034
:10D410000002DA82084B4FF000029A83064B4FF06D
:10D420006402DA8000F090F8044B4FF001021A70A9
:10D430004FF00403184680BDF4010020F0010020E5
:10D4400080B500AF304B4FF001021A702F4B1B68B4
:10D45000D3F80C3298472D4B1B68D3F804324FF0A9
:10D4600001009847294B1B68D3F844319847274B54
:10D470001B68D3F830314FF001009847234B1B68ED
:10D48000D3F890329847214B1B68D3F880309847E7
:10D490001E4B1B68D3F8A8304FF0010098471B4B78
:10D4A0001B68D3F884309847184B1B689B694FF072
:10D4B00001009847154B1B68D3F8C0324FF00300AA
:10D4C0009847124B1B68D3F8EC324FF00D004FF029
:10D4D000000198470D4B1B68D3F880314FF00000D6
:10D4E0004FF000019847094B1B68D3F880314FF08B
:10D4F00001004FF000019847044B1B68D3F8A83295
:10D5000098470346184680BDF001002040030020E4
:10D5100080B400AF044B4FF001021A704FF00603C5
:10D520001846BD4680BC7047F001002080B400AFB3
:10D53000044B4FF001021A704FF004031846BD4629
:10D5400080BC7047F001002080B500AF5F4B5B8965
:10D550001846FFF7A5FA03461846FEF765FF024690
:10D560000B46104619464FF000024FF0804303F57A
:10D570003813FEF7ADFF02460B4610461946FFF77B
:10D58000B9F903469AB2514B9A81504B1B8A1846FF
:10D59000FFF786FA03461846FEF746FF02460B469B
:10D5A000104619464FF000024FF0804303F5381340
:10D5B000FEF78EFF02460B4610461946FFF79AF912
:10D5C00003469AB2414B5A82404BDB8A1846FFF71A
:10D5D00067FA03461846FEF727FF02460B46104639
:10D5E00019464FF000024FF0804303F53813FEF761
:10D5F0006FFF02460B4610461946FFF77BF90346BC
:10D600009AB2324B1A83314B9B8B1846FFF748FA7C
:10D6100003461846FEF708FF02460B461046194619
:10D620004FF000024FF0804303F53813FEF750FF30
:10D6300002460B4610461946FFF75CF903469AB2BC
:10D64000224BDA83214BDB881846FFF729FA034681
:10D650001846FEF7E9FE02460B46104619464FF003
:10D6600000024FF0804303F53813FEF731FF024606
:10D670000B4610461946FFF73DF903469AB2134B85
:10D680001A81124B1B78022B0CD0032B13D0012BC9
:10D690001AD10E4B4FF003025A800C4B4FF0000290
:10D6A0001A7111E0094B4FF003025A80074B4FF0FB
:10D6B00001021A7108E0054B4FF001025A80034B3A
:10D6C0004FF000021A7100BF80BD00BFF4010020BE
:10D6D00080B582B000AF4FF0020000F06DF8334B20
:10D6E0009B897B607B68002B0CBF00230123DBB28E
:10D6F0007A6802F1FF327A60002BF3D12B4B5B8A00
:10D70000002B20D04FF0000000F056F8284B1B688B
:10D71000D3F828323A464FF0230011464FF000026A
:10D7200098473A68234B1A60204B5B8A7B607B6882
:10D73000002B0CBF00230123DBB27A6802F1FF3219
:10D740007A60002BF3D14FF0020000F035F8174B50
:10D750001B8B7B607B68002B0CBF00230123DBB29B
:10D760007A6802F1FF327A60002BF3D10F4BDB8B2A
:10D77000002B12D04FF0040000F01EF80B4BDB8B97
:10D780007B607B68002B0CBF00230123DBB27A682F
:10D7900002F1FF327A60002BF3D14FF0020000F06B
:10D7A0000BF807F10807BD4680BD00BFF40100205B
:10D7B000400300201802002080B584B000AF03466B
:10D7C000FB714FF00103FB60FB79042B25D801A20C
:10D7D00052F823F0E9D70008F3D70008FDD7000876
:10D7E00007D8000811D800081E4B4FF07F021A70AE
:10D7F00013E01C4B4FF05F021A700EE0194B4FF014
:10D800003F021A7009E0174B4FF01F021A7004E034
:10D81000144B4FF000021A7000BF134B1B68D3F873
:10D8200024324FF008004FF000014FF000029847FB
:10D830000D4B1B68D3F824320A4907F10C024FF054
:10D8400021009847084B1B68D3F824324FF008009A
:10D850004FF001014FF00002984707F11007BD4655
:10D8600080BD00BF300300204003002090B58FB082
:10D8700002AF02460B46FA71BB804FF00803FB85EE
:10D88000A94BBB62FB79032B00F2BC8101A252F8C9
:10D8900023F000BFA5D8000847D90008A5D8000884
:10D8A0002DDB00089B4B4FF001021A709A4B4FF092
:10D8B00000021A80994B1B68D3F8A8304FF0010082
:10D8C0009847964B1B68D3F8B0304FF6FF709847D7
:10D8D000924B1B68D3F8B83048F2010098478F4B41
:10D8E0001B68D3F818311C4648F2010300934FF02F
:10D8F00000004FF000014FF0F0024FF01E03A04770
:10D90000864B1B68D3F818311C4646F20813009367
:10D910004FF000004FF01E014FF0F0024FF0960361
:10D92000A0477E4B1B68D3F818311C464FF4885330
:10D9300000934FF000004FF0B4014FF0F0024FF0B1
:10D940003C03A0475EE1754B1B68D3F8CC321C4604
:10D9500007F10802724B1B68104619464FF004028B
:10D960004FF00003A0476D4B1B68D3F8A8304FF071
:10D9700004009847694B1B68D3F8B0304EF2FF00A3
:10D980009847664B1B68D3F8B8304FF488509847D7
:10D99000624B1B68D3F8DC301C4607F108034FF0DC
:10D9A000000200924FF0000201924FF000004FF091
:10D9B000B4011A464FF00003A047584B1B68D3F838
:10D9C000A8304FF001009847544B1B68D3F8B03093
:10D9D0004FF6FF709847514B1B68D3F8B83048F2A8
:10D9E000010098474F4B1B78032B00F2888001A25F
:10D9F00052F823F005DA000839DA000805DA0008E1
:10DA000039DA0008434B1B78002B10D0434B1B68BE
:10DA1000D3F818311C4646F2081300934FF000006B
:10DA20004FF01E014FF0F0024FF09603A047394B24
:10DA30004FF000021A7062E0364B1B78012B15D0B4
:10DA4000364B1B68D3F818311C4646F20813009376
:10DA50004FF000004FF01E014FF0F0024FF0960320
:10DA6000A0472D4B4FF000021A803AE02C4B1B6868
:10DA70001846FFF715F803461846B96AFFF768F825
:10DA800003461846FFF7B4F90346FB84234B1B6893
:10DA9000D3F818311C46204B1B881A46FB8D4FF6D5
:10DAA000FF71009110464FF01E011A464FF0960389
:10DAB000A0471A4B1B68D3F818311C46164B1B881D
:10DAC0001946FA8DFB8C4FF0F800009008464FF095
:10DAD0001E01A047104B1A88FB8DD3189AB20E4B2B
:10DAE0001A800C4B4FF001021A700B4B1B88F02B65
:10DAF00004D9084B4FF000021A7000E000BF074B3A
:10DB00001B68D3F898304FF00A004FF00A0198478D
:10DB100078E000BFEC0100202E030020400300202D
:10DB2000180200201C020020CDCCCC3D374B1B68D6
:10DB3000D3F8A8304FF002009847344B1B68D3F855
:10DB4000B0304EF207009847304B1B68D3F81831BD
:10DB50001C4640F6FC0300934FF000004FF000011C
:10DB60004FF0F0024FF0F003A047284B1B68D3F8AA
:10DB7000DC301C46264B4FF0010200924FF00102B0
:10DB800001924FF000004FF0B4011A464FF0FF33FE
:10DB9000A0471E4B1B68D3F8A8304FF001009847F0
:10DBA0001A4B1B68D3F8DC301C461A4B4FF00102AD
:10DBB00000924FF0010201924FF000004FF0A001DF
:10DBC0001A464FF0FF33A047104B1B68D3F8A8301C
:10DBD0004FF0010098470D4B1B68D3F8DC301C4612
:10DBE00000F020F803464FF0000200924FF00102CF
:10DBF00001924FF000004FF064011A464FF0FF33DE
:10DC0000A04700BF07F13407BD4690BD4003002088
:10DC100004DD00080CDD000880B400AFBD4680BC08
:10DC2000704700BF80B582B000AF0F4B1B68D3F8C0
:10DC3000DC3298470346FB800C480D494FF00B023D
:10DC4000FEF7E6F9FA8840F69F739A4205D807482E
:10DC500008494FF00C02FEF7DBF9044B184607F1B8
:10DC60000807BD4680BD00BF4003002024030020FC
:10DC700014DD000820DD00085354694D33320000E4
:10DC8000000000005354694D3332204D61696E200D
:10DC90004D656E7500000000536574204672657115
:10DCA00075656E63790000005365742050756C7360
:10DCB000652053657175656E6365000043616E6331
:10DCC000656C000051756974000000002031206B04
:10DCD000487A20002032206B487A20002033206BC5
:10DCE000487A20005053657120310000505365710F
:10DCF000203200005053657120330000505365718D
:10DD0000203400005354694D333200003135303136
:10DD10003235000042617474657279204F4B000007
:0CDD200042617474657279204C4F57000A
:10DD2C000100000084DC000804000000000000007A
:10DD3C0000000000000000000000000000000000D7
:10DD4C000000000098DC000881D20008C1D1000856
:10DD5C0000000000A8DC0008A5D20008C1D1000812
:10DD6C0000000000BCDC00082DD5000811D500080F
:10DD7C0000000000C4DC000841D4000800000000D2
:10DD8C000100000000000000000000000000000086
:10DD9C000000000000000000000000000000000077
:10DDAC000000000000000000000000000000000067
:10DDBC000000000000000000000000000000000057
:10DDCC00000000000100000098DC000804000000C6
:10DDDC000000000000000000000000000000000037
:10DDEC000000000000000000CCDC0008C9D20008D4
:10DDFC00C1D1000800000000D4DC0008F1D20008FA
:10DE0C00C1D1000800000000DCDC000819D30008B8
:10DE1C00C1D1000800000000BCDC00082DD50008B2
:10DE2C00C1D100080000000000000000000000004C
:10DE3C0000000000000000000000000000000000D6
:10DE4C0000000000000000000000000000000000C6
:10DE5C0000000000000000000000000000000000B6
:10DE6C00000000000000000001000000A8DC000819
:10DE7C000500000000000000000000000000000091
:10DE8C00000000000000000000000000E4DC0008BE
:10DE9C0041D30008C1D1000800000000ECDC0008F0
:10DEAC0081D30008C1D1000800000000F4DC000898
:10DEBC00C1D30008C1D1000800000000FCDC000840
:10DECC0001D40008C1D1000800000000BCDC00082F
:10DEDC002DD50008C1D10008000000000000000092
:10DEEC000000000000000000000000000000000026
:10DEFC000000000000000000000000000000000016
:10DF0C000000000000000000000000000100000004
:040000050800C0101F
:00000001FF
